{"contracts/TetherToken.sol":{"TetherToken":{"abi":[{"constant":true,"inputs":[],"name":"name","outputs":[{"name":"","type":"string"}],"payable":false,"stateMutability":"view","type":"function"},{"constant":false,"inputs":[{"name":"_upgradedAddress","type":"address"}],"name":"deprecate","outputs":[],"payable":false,"stateMutability":"nonpayable","type":"function"},{"constant":false,"inputs":[{"name":"_spender","type":"address"},{"name":"_value","type":"uint256"}],"name":"approve","outputs":[{"name":"","type":"bool"}],"payable":false,"stateMutability":"nonpayable","type":"function"},{"constant":true,"inputs":[],"name":"deprecated","outputs":[{"name":"","type":"bool"}],"payable":false,"stateMutability":"view","type":"function"},{"constant":false,"inputs":[{"name":"_evilUser","type":"address"}],"name":"addBlackList","outputs":[],"payable":false,"stateMutability":"nonpayable","type":"function"},{"constant":true,"inputs":[],"name":"totalSupply","outputs":[{"name":"","type":"uint256"}],"payable":false,"stateMutability":"view","type":"function"},{"constant":false,"inputs":[{"name":"_from","type":"address"},{"name":"_to","type":"address"},{"name":"_value","type":"uint256"}],"name":"transferFrom","outputs":[{"name":"","type":"bool"}],"payable":false,"stateMutability":"nonpayable","type":"function"},{"constant":true,"inputs":[],"name":"upgradedAddress","outputs":[{"name":"","type":"address"}],"payable":false,"stateMutability":"view","type":"function"},{"constant":true,"inputs":[],"name":"decimals","outputs":[{"name":"","type":"uint8"}],"payable":false,"stateMutability":"view","type":"function"},{"constant":true,"inputs":[],"name":"maximumFee","outputs":[{"name":"","type":"uint256"}],"payable":false,"stateMutability":"view","type":"function"},{"constant":true,"inputs":[],"name":"_totalSupply","outputs":[{"name":"","type":"uint256"}],"payable":false,"stateMutability":"view","type":"function"},{"constant":false,"inputs":[],"name":"unpause","outputs":[],"payable":false,"stateMutability":"nonpayable","type":"function"},{"constant":true,"inputs":[{"name":"_maker","type":"address"}],"name":"getBlackListStatus","outputs":[{"name":"","type":"bool"}],"payable":false,"stateMutability":"view","type":"function"},{"constant":true,"inputs":[],"name":"paused","outputs":[{"name":"","type":"bool"}],"payable":false,"stateMutability":"view","type":"function"},{"constant":false,"inputs":[{"name":"_spender","type":"address"},{"name":"_subtractedValue","type":"uint256"}],"name":"decreaseApproval","outputs":[{"name":"","type":"bool"}],"payable":false,"stateMutability":"nonpayable","type":"function"},{"constant":true,"inputs":[{"name":"who","type":"address"}],"name":"balanceOf","outputs":[{"name":"","type":"uint256"}],"payable":false,"stateMutability":"view","type":"function"},{"constant":true,"inputs":[{"name":"_value","type":"uint256"}],"name":"calcFee","outputs":[{"name":"","type":"uint256"}],"payable":false,"stateMutability":"view","type":"function"},{"constant":false,"inputs":[],"name":"pause","outputs":[],"payable":false,"stateMutability":"nonpayable","type":"function"},{"constant":true,"inputs":[],"name":"owner","outputs":[{"name":"","type":"address"}],"payable":false,"stateMutability":"view","type":"function"},{"constant":true,"inputs":[],"name":"symbol","outputs":[{"name":"","type":"string"}],"payable":false,"stateMutability":"view","type":"function"},{"constant":false,"inputs":[{"name":"_to","type":"address"},{"name":"_value","type":"uint256"}],"name":"transfer","outputs":[{"name":"","type":"bool"}],"payable":false,"stateMutability":"nonpayable","type":"function"},{"constant":true,"inputs":[{"name":"who","type":"address"}],"name":"oldBalanceOf","outputs":[{"name":"","type":"uint256"}],"payable":false,"stateMutability":"view","type":"function"},{"constant":false,"inputs":[{"name":"newBasisPoints","type":"uint256"},{"name":"newMaxFee","type":"uint256"}],"name":"setParams","outputs":[],"payable":false,"stateMutability":"nonpayable","type":"function"},{"constant":false,"inputs":[{"name":"amount","type":"uint256"}],"name":"issue","outputs":[],"payable":false,"stateMutability":"nonpayable","type":"function"},{"constant":false,"inputs":[{"name":"_spender","type":"address"},{"name":"_addedValue","type":"uint256"}],"name":"increaseApproval","outputs":[{"name":"","type":"bool"}],"payable":false,"stateMutability":"nonpayable","type":"function"},{"constant":false,"inputs":[{"name":"amount","type":"uint256"}],"name":"redeem","outputs":[],"payable":false,"stateMutability":"nonpayable","type":"function"},{"constant":true,"inputs":[{"name":"_owner","type":"address"},{"name":"_spender","type":"address"}],"name":"allowance","outputs":[{"name":"remaining","type":"uint256"}],"payable":false,"stateMutability":"view","type":"function"},{"constant":true,"inputs":[],"name":"basisPointsRate","outputs":[{"name":"","type":"uint256"}],"payable":false,"stateMutability":"view","type":"function"},{"constant":true,"inputs":[{"name":"","type":"address"}],"name":"isBlackListed","outputs":[{"name":"","type":"bool"}],"payable":false,"stateMutability":"view","type":"function"},{"constant":false,"inputs":[{"name":"_clearedUser","type":"address"}],"name":"removeBlackList","outputs":[],"payable":false,"stateMutability":"nonpayable","type":"function"},{"constant":true,"inputs":[],"name":"MAX_UINT","outputs":[{"name":"","type":"uint256"}],"payable":false,"stateMutability":"view","type":"function"},{"constant":false,"inputs":[{"name":"newOwner","type":"address"}],"name":"transferOwnership","outputs":[],"payable":false,"stateMutability":"nonpayable","type":"function"},{"constant":false,"inputs":[{"name":"_blackListedUser","type":"address"}],"name":"destroyBlackFunds","outputs":[],"payable":false,"stateMutability":"nonpayable","type":"function"},{"inputs":[{"name":"_initialSupply","type":"uint256"},{"name":"_name","type":"string"},{"name":"_symbol","type":"string"},{"name":"_decimals","type":"uint8"}],"payable":false,"stateMutability":"nonpayable","type":"constructor"},{"anonymous":false,"inputs":[{"indexed":true,"name":"_blackListedUser","type":"address"},{"indexed":false,"name":"_balance","type":"uint256"}],"name":"DestroyedBlackFunds","type":"event"},{"anonymous":false,"inputs":[{"indexed":false,"name":"amount","type":"uint256"}],"name":"Issue","type":"event"},{"anonymous":false,"inputs":[{"indexed":false,"name":"amount","type":"uint256"}],"name":"Redeem","type":"event"},{"anonymous":false,"inputs":[{"indexed":false,"name":"newAddress","type":"address"}],"name":"Deprecate","type":"event"},{"anonymous":false,"inputs":[{"indexed":true,"name":"_user","type":"address"}],"name":"AddedBlackList","type":"event"},{"anonymous":false,"inputs":[{"indexed":true,"name":"_user","type":"address"}],"name":"RemovedBlackList","type":"event"},{"anonymous":false,"inputs":[{"indexed":false,"name":"feeBasisPoints","type":"uint256"},{"indexed":false,"name":"maxFee","type":"uint256"}],"name":"Params","type":"event"},{"anonymous":false,"inputs":[],"name":"Pause","type":"event"},{"anonymous":false,"inputs":[],"name":"Unpause","type":"event"},{"anonymous":false,"inputs":[{"indexed":true,"name":"previousOwner","type":"address"},{"indexed":true,"name":"newOwner","type":"address"}],"name":"OwnershipTransferred","type":"event"},{"anonymous":false,"inputs":[{"indexed":true,"name":"owner","type":"address"},{"indexed":true,"name":"spender","type":"address"},{"indexed":false,"name":"value","type":"uint256"}],"name":"Approval","type":"event"},{"anonymous":false,"inputs":[{"indexed":true,"name":"from","type":"address"},{"indexed":true,"name":"to","type":"address"},{"indexed":false,"name":"value","type":"uint256"}],"name":"Transfer","type":"event"}],"devdoc":{"methods":{"pause()":{"details":"called by the owner to pause, triggers stopped state"},"transferOwnership(address)":{"details":"Allows the current owner to transfer control of the contract to a newOwner.","params":{"newOwner":"The address to transfer ownership to."}},"unpause()":{"details":"called by the owner to unpause, returns to normal state"}}},"evm":{"assembly":"    /* \"contracts/TetherToken.sol\":846:6473  contract TetherToken is Pausable, StandardTokenWithFees, BlackList {... */\n  mstore(0x40, 0x60)\n    /* \"contracts/Pausable.sol\":263:268  false */\n  0x0\n    /* \"contracts/Pausable.sol\":242:268  bool public paused = false */\n  0x2\n  exp(0x100, 0x14)\n  dup2\n  sload\n  dup2\n  0xff\n  mul\n  not\n  and\n  swap1\n  dup4\n  iszero\n  iszero\n  mul\n  or\n  swap1\n  sstore\n  pop\n    /* \"contracts/StandardTokenWithFees.sol\":256:257  0 */\n  0x0\n    /* \"contracts/StandardTokenWithFees.sol\":223:257  uint256 public basisPointsRate = 0 */\n  0x3\n  sstore\n    /* \"contracts/StandardTokenWithFees.sol\":291:292  0 */\n  0x0\n    /* \"contracts/StandardTokenWithFees.sol\":263:292  uint256 public maximumFee = 0 */\n  0x4\n  sstore\n    /* \"contracts/TetherToken.sol\":1273:1563  function TetherToken(uint _initialSupply, string _name, string _symbol, uint8 _decimals) public {... */\n  jumpi(tag_1, iszero(callvalue))\n  0x0\n  dup1\n  revert\ntag_1:\n  mload(0x40)\n  sub(codesize, bytecodeSize)\n  dup1\n  bytecodeSize\n  dup4\n  codecopy\n  dup2\n  add\n  0x40\n  mstore\n  dup1\n  dup1\n  mload\n  swap1\n  0x20\n  add\n  swap1\n  swap2\n  swap1\n  dup1\n  mload\n  dup3\n  add\n  swap2\n  swap1\n  0x20\n  add\n  dup1\n  mload\n  dup3\n  add\n  swap2\n  swap1\n  0x20\n  add\n  dup1\n  mload\n  swap1\n  0x20\n  add\n  swap1\n  swap2\n  swap1\n  pop\n  pop\n    /* \"contracts/Ownable.sol\":523:533  msg.sender */\n  caller\n    /* \"contracts/Ownable.sol\":515:520  owner */\n  0x2\n  0x0\n    /* \"contracts/Ownable.sol\":515:533  owner = msg.sender */\n  0x100\n  exp\n  dup2\n  sload\n  dup2\n  0xffffffffffffffffffffffffffffffffffffffff\n  mul\n  not\n  and\n  swap1\n  dup4\n  0xffffffffffffffffffffffffffffffffffffffff\n  and\n  mul\n  or\n  swap1\n  sstore\n  pop\n    /* \"contracts/TetherToken.sol\":1394:1408  _initialSupply */\n  dup4\n    /* \"contracts/TetherToken.sol\":1379:1391  _totalSupply */\n  0x8\n    /* \"contracts/TetherToken.sol\":1379:1408  _totalSupply = _initialSupply */\n  dup2\n  swap1\n  sstore\n  pop\n    /* \"contracts/TetherToken.sol\":1425:1430  _name */\n  dup3\n    /* \"contracts/TetherToken.sol\":1418:1422  name */\n  0x5\n    /* \"contracts/TetherToken.sol\":1418:1430  name = _name */\n  swap1\n  dup1\n  mload\n  swap1\n  0x20\n  add\n  swap1\n  tag_6\n  swap3\n  swap2\n  swap1\n  jump\t// in(tag_7)\ntag_6:\n  pop\n    /* \"contracts/TetherToken.sol\":1449:1456  _symbol */\n  dup2\n    /* \"contracts/TetherToken.sol\":1440:1446  symbol */\n  0x6\n    /* \"contracts/TetherToken.sol\":1440:1456  symbol = _symbol */\n  swap1\n  dup1\n  mload\n  swap1\n  0x20\n  add\n  swap1\n  tag_8\n  swap3\n  swap2\n  swap1\n  jump\t// in(tag_7)\ntag_8:\n  pop\n    /* \"contracts/TetherToken.sol\":1477:1486  _decimals */\n  dup1\n    /* \"contracts/TetherToken.sol\":1466:1474  decimals */\n  0x7\n  0x0\n    /* \"contracts/TetherToken.sol\":1466:1486  decimals = _decimals */\n  0x100\n  exp\n  dup2\n  sload\n  dup2\n  0xff\n  mul\n  not\n  and\n  swap1\n  dup4\n  0xff\n  and\n  mul\n  or\n  swap1\n  sstore\n  pop\n    /* \"contracts/TetherToken.sol\":1514:1528  _initialSupply */\n  dup4\n    /* \"contracts/TetherToken.sol\":1496:1504  balances */\n  0x0\n    /* \"contracts/TetherToken.sol\":1496:1511  balances[owner] */\n  dup1\n    /* \"contracts/TetherToken.sol\":1505:1510  owner */\n  0x2\n  0x0\n  swap1\n  sload\n  swap1\n  0x100\n  exp\n  swap1\n  div\n  0xffffffffffffffffffffffffffffffffffffffff\n  and\n    /* \"contracts/TetherToken.sol\":1496:1511  balances[owner] */\n  0xffffffffffffffffffffffffffffffffffffffff\n  and\n  0xffffffffffffffffffffffffffffffffffffffff\n  and\n  dup2\n  mstore\n  0x20\n  add\n  swap1\n  dup2\n  mstore\n  0x20\n  add\n  0x0\n  keccak256\n    /* \"contracts/TetherToken.sol\":1496:1528  balances[owner] = _initialSupply */\n  dup2\n  swap1\n  sstore\n  pop\n    /* \"contracts/TetherToken.sol\":1551:1556  false */\n  0x0\n    /* \"contracts/TetherToken.sol\":1538:1548  deprecated */\n  0xa\n  0x14\n    /* \"contracts/TetherToken.sol\":1538:1556  deprecated = false */\n  0x100\n  exp\n  dup2\n  sload\n  dup2\n  0xff\n  mul\n  not\n  and\n  swap1\n  dup4\n  iszero\n  iszero\n  mul\n  or\n  swap1\n  sstore\n  pop\n    /* \"contracts/TetherToken.sol\":1273:1563  function TetherToken(uint _initialSupply, string _name, string _symbol, uint8 _decimals) public {... */\n  pop\n  pop\n  pop\n  pop\n    /* \"contracts/TetherToken.sol\":846:6473  contract TetherToken is Pausable, StandardTokenWithFees, BlackList {... */\n  jump(tag_9)\ntag_7:\n  dup3\n  dup1\n  sload\n  0x1\n  dup2\n  0x1\n  and\n  iszero\n  0x100\n  mul\n  sub\n  and\n  0x2\n  swap1\n  div\n  swap1\n  0x0\n  mstore\n  keccak256(0x0, 0x20)\n  swap1\n  0x1f\n  add\n  0x20\n  swap1\n  div\n  dup2\n  add\n  swap3\n  dup3\n  0x1f\n  lt\n  tag_11\n  jumpi\n  dup1\n  mload\n  not(0xff)\n  and\n  dup4\n  dup1\n  add\n  or\n  dup6\n  sstore\n  jump(tag_10)\ntag_11:\n  dup3\n  dup1\n  add\n  0x1\n  add\n  dup6\n  sstore\n  dup3\n  iszero\n  tag_10\n  jumpi\n  swap2\n  dup3\n  add\ntag_12:\n  dup3\n  dup2\n  gt\n  iszero\n  tag_13\n  jumpi\n  dup3\n  mload\n  dup3\n  sstore\n  swap2\n  0x20\n  add\n  swap2\n  swap1\n  0x1\n  add\n  swap1\n  jump(tag_12)\ntag_13:\ntag_10:\n  pop\n  swap1\n  pop\n  tag_14\n  swap2\n  swap1\n  jump\t// in(tag_15)\ntag_14:\n  pop\n  swap1\n  jump\t// out\ntag_15:\n  tag_16\n  swap2\n  swap1\ntag_17:\n  dup1\n  dup3\n  gt\n  iszero\n  tag_18\n  jumpi\n  0x0\n  dup2\n  0x0\n  swap1\n  sstore\n  pop\n  0x1\n  add\n  jump(tag_17)\ntag_18:\n  pop\n  swap1\n  jump\ntag_16:\n  swap1\n  jump\t// out\ntag_9:\n  dataSize(sub_0)\n  dup1\n  dataOffset(sub_0)\n  0x0\n  codecopy\n  0x0\n  return\nstop\n\nsub_0: assembly {\n        /* \"contracts/TetherToken.sol\":846:6473  contract TetherToken is Pausable, StandardTokenWithFees, BlackList {... */\n      mstore(0x40, 0x60)\n      jumpi(tag_1, lt(calldatasize, 0x4))\n      calldataload(0x0)\n      0x100000000000000000000000000000000000000000000000000000000\n      swap1\n      div\n      0xffffffff\n      and\n      dup1\n      0x6fdde03\n      eq\n      tag_2\n      jumpi\n      dup1\n      0x753c30c\n      eq\n      tag_3\n      jumpi\n      dup1\n      0x95ea7b3\n      eq\n      tag_4\n      jumpi\n      dup1\n      0xe136b19\n      eq\n      tag_5\n      jumpi\n      dup1\n      0xecb93c0\n      eq\n      tag_6\n      jumpi\n      dup1\n      0x18160ddd\n      eq\n      tag_7\n      jumpi\n      dup1\n      0x23b872dd\n      eq\n      tag_8\n      jumpi\n      dup1\n      0x26976e3f\n      eq\n      tag_9\n      jumpi\n      dup1\n      0x313ce567\n      eq\n      tag_10\n      jumpi\n      dup1\n      0x35390714\n      eq\n      tag_11\n      jumpi\n      dup1\n      0x3eaaf86b\n      eq\n      tag_12\n      jumpi\n      dup1\n      0x3f4ba83a\n      eq\n      tag_13\n      jumpi\n      dup1\n      0x59bf1abe\n      eq\n      tag_14\n      jumpi\n      dup1\n      0x5c975abb\n      eq\n      tag_15\n      jumpi\n      dup1\n      0x66188463\n      eq\n      tag_16\n      jumpi\n      dup1\n      0x70a08231\n      eq\n      tag_17\n      jumpi\n      dup1\n      0x75dc7d8c\n      eq\n      tag_18\n      jumpi\n      dup1\n      0x8456cb59\n      eq\n      tag_19\n      jumpi\n      dup1\n      0x8da5cb5b\n      eq\n      tag_20\n      jumpi\n      dup1\n      0x95d89b41\n      eq\n      tag_21\n      jumpi\n      dup1\n      0xa9059cbb\n      eq\n      tag_22\n      jumpi\n      dup1\n      0xb7a3446c\n      eq\n      tag_23\n      jumpi\n      dup1\n      0xc0324c77\n      eq\n      tag_24\n      jumpi\n      dup1\n      0xcc872b66\n      eq\n      tag_25\n      jumpi\n      dup1\n      0xd73dd623\n      eq\n      tag_26\n      jumpi\n      dup1\n      0xdb006a75\n      eq\n      tag_27\n      jumpi\n      dup1\n      0xdd62ed3e\n      eq\n      tag_28\n      jumpi\n      dup1\n      0xdd644f72\n      eq\n      tag_29\n      jumpi\n      dup1\n      0xe47d6060\n      eq\n      tag_30\n      jumpi\n      dup1\n      0xe4997dc5\n      eq\n      tag_31\n      jumpi\n      dup1\n      0xe5b5019a\n      eq\n      tag_32\n      jumpi\n      dup1\n      0xf2fde38b\n      eq\n      tag_33\n      jumpi\n      dup1\n      0xf3bdc228\n      eq\n      tag_34\n      jumpi\n    tag_1:\n      0x0\n      dup1\n      revert\n        /* \"contracts/StandardTokenWithFees.sol\":396:414  string public name */\n    tag_2:\n      jumpi(tag_35, iszero(callvalue))\n      0x0\n      dup1\n      revert\n    tag_35:\n      tag_36\n      jump(tag_37)\n    tag_36:\n      mload(0x40)\n      dup1\n      dup1\n      0x20\n      add\n      dup3\n      dup2\n      sub\n      dup3\n      mstore\n      dup4\n      dup2\n      dup2\n      mload\n      dup2\n      mstore\n      0x20\n      add\n      swap2\n      pop\n      dup1\n      mload\n      swap1\n      0x20\n      add\n      swap1\n      dup1\n      dup4\n      dup4\n        /* \"--CODEGEN--\":23:24   */\n      0x0\n        /* \"--CODEGEN--\":8:108   */\n    tag_38:\n        /* \"--CODEGEN--\":33:36   */\n      dup4\n        /* \"--CODEGEN--\":30:31   */\n      dup2\n        /* \"--CODEGEN--\":27:29   */\n      lt\n        /* \"--CODEGEN--\":8:108   */\n      iszero\n      tag_39\n      jumpi\n        /* \"--CODEGEN--\":99:100   */\n      dup1\n        /* \"--CODEGEN--\":94:97   */\n      dup3\n        /* \"--CODEGEN--\":90:93   */\n      add\n        /* \"--CODEGEN--\":84:89   */\n      mload\n        /* \"--CODEGEN--\":80:81   */\n      dup2\n        /* \"--CODEGEN--\":75:78   */\n      dup5\n        /* \"--CODEGEN--\":71:74   */\n      add\n        /* \"--CODEGEN--\":64:70   */\n      mstore\n        /* \"--CODEGEN--\":52:54   */\n      0x20\n        /* \"--CODEGEN--\":49:50   */\n      dup2\n        /* \"--CODEGEN--\":45:48   */\n      add\n        /* \"--CODEGEN--\":40:55   */\n      swap1\n      pop\n        /* \"--CODEGEN--\":8:108   */\n      jump(tag_38)\n    tag_39:\n        /* \"--CODEGEN--\":12:26   */\n      pop\n        /* \"--CODEGEN--\":3:112   */\n      pop\n      pop\n      pop\n      swap1\n      pop\n      swap1\n      dup2\n      add\n      swap1\n      0x1f\n      and\n      dup1\n      iszero\n      tag_41\n      jumpi\n      dup1\n      dup3\n      sub\n      dup1\n      mload\n      0x1\n      dup4\n      0x20\n      sub\n      0x100\n      exp\n      sub\n      not\n      and\n      dup2\n      mstore\n      0x20\n      add\n      swap2\n      pop\n    tag_41:\n      pop\n      swap3\n      pop\n      pop\n      pop\n      mload(0x40)\n      dup1\n      swap2\n      sub\n      swap1\n      return\n        /* \"contracts/TetherToken.sol\":4489:4715  function deprecate(address _upgradedAddress) public onlyOwner {... */\n    tag_3:\n      jumpi(tag_42, iszero(callvalue))\n      0x0\n      dup1\n      revert\n    tag_42:\n      tag_43\n      0x4\n      dup1\n      dup1\n      calldataload\n      0xffffffffffffffffffffffffffffffffffffffff\n      and\n      swap1\n      0x20\n      add\n      swap1\n      swap2\n      swap1\n      pop\n      pop\n      jump(tag_44)\n    tag_43:\n      stop\n        /* \"contracts/TetherToken.sol\":3043:3344  function approve(address _spender, uint _value) public whenNotPaused returns (bool) {... */\n    tag_4:\n      jumpi(tag_45, iszero(callvalue))\n      0x0\n      dup1\n      revert\n    tag_45:\n      tag_46\n      0x4\n      dup1\n      dup1\n      calldataload\n      0xffffffffffffffffffffffffffffffffffffffff\n      and\n      swap1\n      0x20\n      add\n      swap1\n      swap2\n      swap1\n      dup1\n      calldataload\n      swap1\n      0x20\n      add\n      swap1\n      swap2\n      swap1\n      pop\n      pop\n      jump(tag_47)\n    tag_46:\n      mload(0x40)\n      dup1\n      dup3\n      iszero\n      iszero\n      iszero\n      iszero\n      dup2\n      mstore\n      0x20\n      add\n      swap2\n      pop\n      pop\n      mload(0x40)\n      dup1\n      swap2\n      sub\n      swap1\n      return\n        /* \"contracts/TetherToken.sol\":956:978  bool public deprecated */\n    tag_5:\n      jumpi(tag_48, iszero(callvalue))\n      0x0\n      dup1\n      revert\n    tag_48:\n      tag_49\n      jump(tag_50)\n    tag_49:\n      mload(0x40)\n      dup1\n      dup3\n      iszero\n      iszero\n      iszero\n      iszero\n      dup2\n      mstore\n      0x20\n      add\n      swap2\n      pop\n      pop\n      mload(0x40)\n      dup1\n      swap2\n      sub\n      swap1\n      return\n        /* \"contracts/BlackList.sol\":387:529  function addBlackList (address _evilUser) public onlyOwner {... */\n    tag_6:\n      jumpi(tag_51, iszero(callvalue))\n      0x0\n      dup1\n      revert\n    tag_51:\n      tag_52\n      0x4\n      dup1\n      dup1\n      calldataload\n      0xffffffffffffffffffffffffffffffffffffffff\n      and\n      swap1\n      0x20\n      add\n      swap1\n      swap2\n      swap1\n      pop\n      pop\n      jump(tag_53)\n    tag_52:\n      stop\n        /* \"contracts/TetherToken.sol\":4778:4990  function totalSupply() public constant returns (uint) {... */\n    tag_7:\n      jumpi(tag_54, iszero(callvalue))\n      0x0\n      dup1\n      revert\n    tag_54:\n      tag_55\n      jump(tag_56)\n    tag_55:\n      mload(0x40)\n      dup1\n      dup3\n      dup2\n      mstore\n      0x20\n      add\n      swap2\n      pop\n      pop\n      mload(0x40)\n      dup1\n      swap2\n      sub\n      swap1\n      return\n        /* \"contracts/TetherToken.sol\":2061:2431  function transferFrom(address _from, address _to, uint _value) public whenNotPaused returns (bool) {... */\n    tag_8:\n      jumpi(tag_57, iszero(callvalue))\n      0x0\n      dup1\n      revert\n    tag_57:\n      tag_58\n      0x4\n      dup1\n      dup1\n      calldataload\n      0xffffffffffffffffffffffffffffffffffffffff\n      and\n      swap1\n      0x20\n      add\n      swap1\n      swap2\n      swap1\n      dup1\n      calldataload\n      0xffffffffffffffffffffffffffffffffffffffff\n      and\n      swap1\n      0x20\n      add\n      swap1\n      swap2\n      swap1\n      dup1\n      calldataload\n      swap1\n      0x20\n      add\n      swap1\n      swap2\n      swap1\n      pop\n      pop\n      jump(tag_59)\n    tag_58:\n      mload(0x40)\n      dup1\n      dup3\n      iszero\n      iszero\n      iszero\n      iszero\n      dup2\n      mstore\n      0x20\n      add\n      swap2\n      pop\n      pop\n      mload(0x40)\n      dup1\n      swap2\n      sub\n      swap1\n      return\n        /* \"contracts/TetherToken.sol\":920:950  address public upgradedAddress */\n    tag_9:\n      jumpi(tag_60, iszero(callvalue))\n      0x0\n      dup1\n      revert\n    tag_60:\n      tag_61\n      jump(tag_62)\n    tag_61:\n      mload(0x40)\n      dup1\n      dup3\n      0xffffffffffffffffffffffffffffffffffffffff\n      and\n      0xffffffffffffffffffffffffffffffffffffffff\n      and\n      dup2\n      mstore\n      0x20\n      add\n      swap2\n      pop\n      pop\n      mload(0x40)\n      dup1\n      swap2\n      sub\n      swap1\n      return\n        /* \"contracts/StandardTokenWithFees.sol\":446:467  uint8 public decimals */\n    tag_10:\n      jumpi(tag_63, iszero(callvalue))\n      0x0\n      dup1\n      revert\n    tag_63:\n      tag_64\n      jump(tag_65)\n    tag_64:\n      mload(0x40)\n      dup1\n      dup3\n      0xff\n      and\n      0xff\n      and\n      dup2\n      mstore\n      0x20\n      add\n      swap2\n      pop\n      pop\n      mload(0x40)\n      dup1\n      swap2\n      sub\n      swap1\n      return\n        /* \"contracts/StandardTokenWithFees.sol\":263:292  uint256 public maximumFee = 0 */\n    tag_11:\n      jumpi(tag_66, iszero(callvalue))\n      0x0\n      dup1\n      revert\n    tag_66:\n      tag_67\n      jump(tag_68)\n    tag_67:\n      mload(0x40)\n      dup1\n      dup3\n      dup2\n      mstore\n      0x20\n      add\n      swap2\n      pop\n      pop\n      mload(0x40)\n      dup1\n      swap2\n      sub\n      swap1\n      return\n        /* \"contracts/StandardTokenWithFees.sol\":473:497  uint public _totalSupply */\n    tag_12:\n      jumpi(tag_69, iszero(callvalue))\n      0x0\n      dup1\n      revert\n    tag_69:\n      tag_70\n      jump(tag_71)\n    tag_70:\n      mload(0x40)\n      dup1\n      dup3\n      dup2\n      mstore\n      0x20\n      add\n      swap2\n      pop\n      pop\n      mload(0x40)\n      dup1\n      swap2\n      sub\n      swap1\n      return\n        /* \"contracts/Pausable.sol\":882:979  function unpause() onlyOwner whenPaused public {... */\n    tag_13:\n      jumpi(tag_72, iszero(callvalue))\n      0x0\n      dup1\n      revert\n    tag_72:\n      tag_73\n      jump(tag_74)\n    tag_73:\n      stop\n        /* \"contracts/BlackList.sol\":206:328  function getBlackListStatus(address _maker) external constant returns (bool) {... */\n    tag_14:\n      jumpi(tag_75, iszero(callvalue))\n      0x0\n      dup1\n      revert\n    tag_75:\n      tag_76\n      0x4\n      dup1\n      dup1\n      calldataload\n      0xffffffffffffffffffffffffffffffffffffffff\n      and\n      swap1\n      0x20\n      add\n      swap1\n      swap2\n      swap1\n      pop\n      pop\n      jump(tag_77)\n    tag_76:\n      mload(0x40)\n      dup1\n      dup3\n      iszero\n      iszero\n      iszero\n      iszero\n      dup2\n      mstore\n      0x20\n      add\n      swap2\n      pop\n      pop\n      mload(0x40)\n      dup1\n      swap2\n      sub\n      swap1\n      return\n        /* \"contracts/Pausable.sol\":242:268  bool public paused = false */\n    tag_15:\n      jumpi(tag_78, iszero(callvalue))\n      0x0\n      dup1\n      revert\n    tag_78:\n      tag_79\n      jump(tag_80)\n    tag_79:\n      mload(0x40)\n      dup1\n      dup3\n      iszero\n      iszero\n      iszero\n      iszero\n      dup2\n      mstore\n      0x20\n      add\n      swap2\n      pop\n      pop\n      mload(0x40)\n      dup1\n      swap2\n      sub\n      swap1\n      return\n        /* \"contracts/TetherToken.sol\":3699:4057  function decreaseApproval(address _spender, uint _subtractedValue) public whenNotPaused returns (bool) {... */\n    tag_16:\n      jumpi(tag_81, iszero(callvalue))\n      0x0\n      dup1\n      revert\n    tag_81:\n      tag_82\n      0x4\n      dup1\n      dup1\n      calldataload\n      0xffffffffffffffffffffffffffffffffffffffff\n      and\n      swap1\n      0x20\n      add\n      swap1\n      swap2\n      swap1\n      dup1\n      calldataload\n      swap1\n      0x20\n      add\n      swap1\n      swap2\n      swap1\n      pop\n      pop\n      jump(tag_83)\n    tag_82:\n      mload(0x40)\n      dup1\n      dup3\n      iszero\n      iszero\n      iszero\n      iszero\n      dup2\n      mstore\n      0x20\n      add\n      swap2\n      pop\n      pop\n      mload(0x40)\n      dup1\n      swap2\n      sub\n      swap1\n      return\n        /* \"contracts/TetherToken.sol\":2513:2751  function balanceOf(address who) public constant returns (uint) {... */\n    tag_17:\n      jumpi(tag_84, iszero(callvalue))\n      0x0\n      dup1\n      revert\n    tag_84:\n      tag_85\n      0x4\n      dup1\n      dup1\n      calldataload\n      0xffffffffffffffffffffffffffffffffffffffff\n      and\n      swap1\n      0x20\n      add\n      swap1\n      swap2\n      swap1\n      pop\n      pop\n      jump(tag_86)\n    tag_85:\n      mload(0x40)\n      dup1\n      dup3\n      dup2\n      mstore\n      0x20\n      add\n      swap2\n      pop\n      pop\n      mload(0x40)\n      dup1\n      swap2\n      sub\n      swap1\n      return\n        /* \"contracts/StandardTokenWithFees.sol\":553:767  function calcFee(uint _value) constant returns (uint) {... */\n    tag_18:\n      jumpi(tag_87, iszero(callvalue))\n      0x0\n      dup1\n      revert\n    tag_87:\n      tag_88\n      0x4\n      dup1\n      dup1\n      calldataload\n      swap1\n      0x20\n      add\n      swap1\n      swap2\n      swap1\n      pop\n      pop\n      jump(tag_89)\n    tag_88:\n      mload(0x40)\n      dup1\n      dup3\n      dup2\n      mstore\n      0x20\n      add\n      swap2\n      pop\n      pop\n      mload(0x40)\n      dup1\n      swap2\n      sub\n      swap1\n      return\n        /* \"contracts/Pausable.sol\":699:794  function pause() onlyOwner whenNotPaused public {... */\n    tag_19:\n      jumpi(tag_90, iszero(callvalue))\n      0x0\n      dup1\n      revert\n    tag_90:\n      tag_91\n      jump(tag_92)\n    tag_91:\n      stop\n        /* \"contracts/Ownable.sol\":240:260  address public owner */\n    tag_20:\n      jumpi(tag_93, iszero(callvalue))\n      0x0\n      dup1\n      revert\n    tag_93:\n      tag_94\n      jump(tag_95)\n    tag_94:\n      mload(0x40)\n      dup1\n      dup3\n      0xffffffffffffffffffffffffffffffffffffffff\n      and\n      0xffffffffffffffffffffffffffffffffffffffff\n      and\n      dup2\n      mstore\n      0x20\n      add\n      swap2\n      pop\n      pop\n      mload(0x40)\n      dup1\n      swap2\n      sub\n      swap1\n      return\n        /* \"contracts/StandardTokenWithFees.sol\":420:440  string public symbol */\n    tag_21:\n      jumpi(tag_96, iszero(callvalue))\n      0x0\n      dup1\n      revert\n    tag_96:\n      tag_97\n      jump(tag_98)\n    tag_97:\n      mload(0x40)\n      dup1\n      dup1\n      0x20\n      add\n      dup3\n      dup2\n      sub\n      dup3\n      mstore\n      dup4\n      dup2\n      dup2\n      mload\n      dup2\n      mstore\n      0x20\n      add\n      swap2\n      pop\n      dup1\n      mload\n      swap1\n      0x20\n      add\n      swap1\n      dup1\n      dup4\n      dup4\n        /* \"--CODEGEN--\":23:24   */\n      0x0\n        /* \"--CODEGEN--\":8:108   */\n    tag_99:\n        /* \"--CODEGEN--\":33:36   */\n      dup4\n        /* \"--CODEGEN--\":30:31   */\n      dup2\n        /* \"--CODEGEN--\":27:29   */\n      lt\n        /* \"--CODEGEN--\":8:108   */\n      iszero\n      tag_100\n      jumpi\n        /* \"--CODEGEN--\":99:100   */\n      dup1\n        /* \"--CODEGEN--\":94:97   */\n      dup3\n        /* \"--CODEGEN--\":90:93   */\n      add\n        /* \"--CODEGEN--\":84:89   */\n      mload\n        /* \"--CODEGEN--\":80:81   */\n      dup2\n        /* \"--CODEGEN--\":75:78   */\n      dup5\n        /* \"--CODEGEN--\":71:74   */\n      add\n        /* \"--CODEGEN--\":64:70   */\n      mstore\n        /* \"--CODEGEN--\":52:54   */\n      0x20\n        /* \"--CODEGEN--\":49:50   */\n      dup2\n        /* \"--CODEGEN--\":45:48   */\n      add\n        /* \"--CODEGEN--\":40:55   */\n      swap1\n      pop\n        /* \"--CODEGEN--\":8:108   */\n      jump(tag_99)\n    tag_100:\n        /* \"--CODEGEN--\":12:26   */\n      pop\n        /* \"--CODEGEN--\":3:112   */\n      pop\n      pop\n      pop\n      swap1\n      pop\n      swap1\n      dup2\n      add\n      swap1\n      0x1f\n      and\n      dup1\n      iszero\n      tag_102\n      jumpi\n      dup1\n      dup3\n      sub\n      dup1\n      mload\n      0x1\n      dup4\n      0x20\n      sub\n      0x100\n      exp\n      sub\n      not\n      and\n      dup2\n      mstore\n      0x20\n      add\n      swap2\n      pop\n    tag_102:\n      pop\n      swap3\n      pop\n      pop\n      pop\n      mload(0x40)\n      dup1\n      swap2\n      sub\n      swap1\n      return\n        /* \"contracts/TetherToken.sol\":1645:1979  function transfer(address _to, uint _value) public whenNotPaused returns (bool) {... */\n    tag_22:\n      jumpi(tag_103, iszero(callvalue))\n      0x0\n      dup1\n      revert\n    tag_103:\n      tag_104\n      0x4\n      dup1\n      dup1\n      calldataload\n      0xffffffffffffffffffffffffffffffffffffffff\n      and\n      swap1\n      0x20\n      add\n      swap1\n      swap2\n      swap1\n      dup1\n      calldataload\n      swap1\n      0x20\n      add\n      swap1\n      swap2\n      swap1\n      pop\n      pop\n      jump(tag_105)\n    tag_104:\n      mload(0x40)\n      dup1\n      dup3\n      iszero\n      iszero\n      iszero\n      iszero\n      dup2\n      mstore\n      0x20\n      add\n      swap2\n      pop\n      pop\n      mload(0x40)\n      dup1\n      swap2\n      sub\n      swap1\n      return\n        /* \"contracts/TetherToken.sol\":2811:2961  function oldBalanceOf(address who) public constant returns (uint) {... */\n    tag_23:\n      jumpi(tag_106, iszero(callvalue))\n      0x0\n      dup1\n      revert\n    tag_106:\n      tag_107\n      0x4\n      dup1\n      dup1\n      calldataload\n      0xffffffffffffffffffffffffffffffffffffffff\n      and\n      swap1\n      0x20\n      add\n      swap1\n      swap2\n      swap1\n      pop\n      pop\n      jump(tag_108)\n    tag_107:\n      mload(0x40)\n      dup1\n      dup3\n      dup2\n      mstore\n      0x20\n      add\n      swap2\n      pop\n      pop\n      mload(0x40)\n      dup1\n      swap2\n      sub\n      swap1\n      return\n        /* \"contracts/StandardTokenWithFees.sol\":1810:2231  function setParams(uint newBasisPoints, uint newMaxFee) public onlyOwner {... */\n    tag_24:\n      jumpi(tag_109, iszero(callvalue))\n      0x0\n      dup1\n      revert\n    tag_109:\n      tag_110\n      0x4\n      dup1\n      dup1\n      calldataload\n      swap1\n      0x20\n      add\n      swap1\n      swap2\n      swap1\n      dup1\n      calldataload\n      swap1\n      0x20\n      add\n      swap1\n      swap2\n      swap1\n      pop\n      pop\n      jump(tag_111)\n    tag_110:\n      stop\n        /* \"contracts/TetherToken.sol\":5148:5372  function issue(uint amount) public onlyOwner {... */\n    tag_25:\n      jumpi(tag_112, iszero(callvalue))\n      0x0\n      dup1\n      revert\n    tag_112:\n      tag_113\n      0x4\n      dup1\n      dup1\n      calldataload\n      swap1\n      0x20\n      add\n      swap1\n      swap2\n      swap1\n      pop\n      pop\n      jump(tag_114)\n    tag_113:\n      stop\n        /* \"contracts/TetherToken.sol\":3350:3693  function increaseApproval(address _spender, uint _addedValue) public whenNotPaused returns (bool) {... */\n    tag_26:\n      jumpi(tag_115, iszero(callvalue))\n      0x0\n      dup1\n      revert\n    tag_115:\n      tag_116\n      0x4\n      dup1\n      dup1\n      calldataload\n      0xffffffffffffffffffffffffffffffffffffffff\n      and\n      swap1\n      0x20\n      add\n      swap1\n      swap2\n      swap1\n      dup1\n      calldataload\n      swap1\n      0x20\n      add\n      swap1\n      swap2\n      swap1\n      pop\n      pop\n      jump(tag_117)\n    tag_116:\n      mload(0x40)\n      dup1\n      dup3\n      iszero\n      iszero\n      iszero\n      iszero\n      dup2\n      mstore\n      0x20\n      add\n      swap2\n      pop\n      pop\n      mload(0x40)\n      dup1\n      swap2\n      sub\n      swap1\n      return\n        /* \"contracts/TetherToken.sol\":5596:5822  function redeem(uint amount) public onlyOwner {... */\n    tag_27:\n      jumpi(tag_118, iszero(callvalue))\n      0x0\n      dup1\n      revert\n    tag_118:\n      tag_119\n      0x4\n      dup1\n      dup1\n      calldataload\n      swap1\n      0x20\n      add\n      swap1\n      swap2\n      swap1\n      pop\n      pop\n      jump(tag_120)\n    tag_119:\n      stop\n        /* \"contracts/TetherToken.sol\":4139:4426  function allowance(address _owner, address _spender) public constant returns (uint remaining) {... */\n    tag_28:\n      jumpi(tag_121, iszero(callvalue))\n      0x0\n      dup1\n      revert\n    tag_121:\n      tag_122\n      0x4\n      dup1\n      dup1\n      calldataload\n      0xffffffffffffffffffffffffffffffffffffffff\n      and\n      swap1\n      0x20\n      add\n      swap1\n      swap2\n      swap1\n      dup1\n      calldataload\n      0xffffffffffffffffffffffffffffffffffffffff\n      and\n      swap1\n      0x20\n      add\n      swap1\n      swap2\n      swap1\n      pop\n      pop\n      jump(tag_123)\n    tag_122:\n      mload(0x40)\n      dup1\n      dup3\n      dup2\n      mstore\n      0x20\n      add\n      swap2\n      pop\n      pop\n      mload(0x40)\n      dup1\n      swap2\n      sub\n      swap1\n      return\n        /* \"contracts/StandardTokenWithFees.sol\":223:257  uint256 public basisPointsRate = 0 */\n    tag_29:\n      jumpi(tag_124, iszero(callvalue))\n      0x0\n      dup1\n      revert\n    tag_124:\n      tag_125\n      jump(tag_126)\n    tag_125:\n      mload(0x40)\n      dup1\n      dup3\n      dup2\n      mstore\n      0x20\n      add\n      swap2\n      pop\n      pop\n      mload(0x40)\n      dup1\n      swap2\n      sub\n      swap1\n      return\n        /* \"contracts/BlackList.sol\":334:380  mapping (address => bool) public isBlackListed */\n    tag_30:\n      jumpi(tag_127, iszero(callvalue))\n      0x0\n      dup1\n      revert\n    tag_127:\n      tag_128\n      0x4\n      dup1\n      dup1\n      calldataload\n      0xffffffffffffffffffffffffffffffffffffffff\n      and\n      swap1\n      0x20\n      add\n      swap1\n      swap2\n      swap1\n      pop\n      pop\n      jump(tag_129)\n    tag_128:\n      mload(0x40)\n      dup1\n      dup3\n      iszero\n      iszero\n      iszero\n      iszero\n      dup2\n      mstore\n      0x20\n      add\n      swap2\n      pop\n      pop\n      mload(0x40)\n      dup1\n      swap2\n      sub\n      swap1\n      return\n        /* \"contracts/BlackList.sol\":535:692  function removeBlackList (address _clearedUser) public onlyOwner {... */\n    tag_31:\n      jumpi(tag_130, iszero(callvalue))\n      0x0\n      dup1\n      revert\n    tag_130:\n      tag_131\n      0x4\n      dup1\n      dup1\n      calldataload\n      0xffffffffffffffffffffffffffffffffffffffff\n      and\n      swap1\n      0x20\n      add\n      swap1\n      swap2\n      swap1\n      pop\n      pop\n      jump(tag_132)\n    tag_131:\n      stop\n        /* \"contracts/StandardTokenWithFees.sol\":504:546  uint public constant MAX_UINT = 2**256 - 1 */\n    tag_32:\n      jumpi(tag_133, iszero(callvalue))\n      0x0\n      dup1\n      revert\n    tag_133:\n      tag_134\n      jump(tag_135)\n    tag_134:\n      mload(0x40)\n      dup1\n      dup3\n      dup2\n      mstore\n      0x20\n      add\n      swap2\n      pop\n      pop\n      mload(0x40)\n      dup1\n      swap2\n      sub\n      swap1\n      return\n        /* \"contracts/Ownable.sol\":872:1055  function transferOwnership(address newOwner) public onlyOwner {... */\n    tag_33:\n      jumpi(tag_136, iszero(callvalue))\n      0x0\n      dup1\n      revert\n    tag_136:\n      tag_137\n      0x4\n      dup1\n      dup1\n      calldataload\n      0xffffffffffffffffffffffffffffffffffffffff\n      and\n      swap1\n      0x20\n      add\n      swap1\n      swap2\n      swap1\n      pop\n      pop\n      jump(tag_138)\n    tag_137:\n      stop\n        /* \"contracts/TetherToken.sol\":5828:6163  function destroyBlackFunds (address _blackListedUser) public onlyOwner {... */\n    tag_34:\n      jumpi(tag_139, iszero(callvalue))\n      0x0\n      dup1\n      revert\n    tag_139:\n      tag_140\n      0x4\n      dup1\n      dup1\n      calldataload\n      0xffffffffffffffffffffffffffffffffffffffff\n      and\n      swap1\n      0x20\n      add\n      swap1\n      swap2\n      swap1\n      pop\n      pop\n      jump(tag_141)\n    tag_140:\n      stop\n        /* \"contracts/StandardTokenWithFees.sol\":396:414  string public name */\n    tag_37:\n      0x5\n      dup1\n      sload\n      0x1\n      dup2\n      0x1\n      and\n      iszero\n      0x100\n      mul\n      sub\n      and\n      0x2\n      swap1\n      div\n      dup1\n      0x1f\n      add\n      0x20\n      dup1\n      swap2\n      div\n      mul\n      0x20\n      add\n      mload(0x40)\n      swap1\n      dup2\n      add\n      0x40\n      mstore\n      dup1\n      swap3\n      swap2\n      swap1\n      dup2\n      dup2\n      mstore\n      0x20\n      add\n      dup3\n      dup1\n      sload\n      0x1\n      dup2\n      0x1\n      and\n      iszero\n      0x100\n      mul\n      sub\n      and\n      0x2\n      swap1\n      div\n      dup1\n      iszero\n      tag_142\n      jumpi\n      dup1\n      0x1f\n      lt\n      tag_143\n      jumpi\n      0x100\n      dup1\n      dup4\n      sload\n      div\n      mul\n      dup4\n      mstore\n      swap2\n      0x20\n      add\n      swap2\n      jump(tag_142)\n    tag_143:\n      dup3\n      add\n      swap2\n      swap1\n      0x0\n      mstore\n      keccak256(0x0, 0x20)\n      swap1\n    tag_144:\n      dup2\n      sload\n      dup2\n      mstore\n      swap1\n      0x1\n      add\n      swap1\n      0x20\n      add\n      dup1\n      dup4\n      gt\n      tag_144\n      jumpi\n      dup3\n      swap1\n      sub\n      0x1f\n      and\n      dup3\n      add\n      swap2\n    tag_142:\n      pop\n      pop\n      pop\n      pop\n      pop\n      dup2\n      jump\t// out\n        /* \"contracts/TetherToken.sol\":4489:4715  function deprecate(address _upgradedAddress) public onlyOwner {... */\n    tag_44:\n        /* \"contracts/Ownable.sol\":680:685  owner */\n      0x2\n      0x0\n      swap1\n      sload\n      swap1\n      0x100\n      exp\n      swap1\n      div\n      0xffffffffffffffffffffffffffffffffffffffff\n      and\n        /* \"contracts/Ownable.sol\":666:685  msg.sender == owner */\n      0xffffffffffffffffffffffffffffffffffffffff\n      and\n        /* \"contracts/Ownable.sol\":666:676  msg.sender */\n      caller\n        /* \"contracts/Ownable.sol\":666:685  msg.sender == owner */\n      0xffffffffffffffffffffffffffffffffffffffff\n      and\n      eq\n        /* \"contracts/Ownable.sol\":658:686  require(msg.sender == owner) */\n      iszero\n      iszero\n      tag_146\n      jumpi\n      0x0\n      dup1\n      revert\n    tag_146:\n        /* \"contracts/TetherToken.sol\":4597:4598  0 */\n      0x0\n        /* \"contracts/TetherToken.sol\":4569:4599  _upgradedAddress != address(0) */\n      0xffffffffffffffffffffffffffffffffffffffff\n      and\n        /* \"contracts/TetherToken.sol\":4569:4585  _upgradedAddress */\n      dup2\n        /* \"contracts/TetherToken.sol\":4569:4599  _upgradedAddress != address(0) */\n      0xffffffffffffffffffffffffffffffffffffffff\n      and\n      eq\n      iszero\n        /* \"contracts/TetherToken.sol\":4561:4600  require(_upgradedAddress != address(0)) */\n      iszero\n      iszero\n      tag_148\n      jumpi\n      0x0\n      dup1\n      revert\n    tag_148:\n        /* \"contracts/TetherToken.sol\":4623:4627  true */\n      0x1\n        /* \"contracts/TetherToken.sol\":4610:4620  deprecated */\n      0xa\n      0x14\n        /* \"contracts/TetherToken.sol\":4610:4627  deprecated = true */\n      0x100\n      exp\n      dup2\n      sload\n      dup2\n      0xff\n      mul\n      not\n      and\n      swap1\n      dup4\n      iszero\n      iszero\n      mul\n      or\n      swap1\n      sstore\n      pop\n        /* \"contracts/TetherToken.sol\":4655:4671  _upgradedAddress */\n      dup1\n        /* \"contracts/TetherToken.sol\":4637:4652  upgradedAddress */\n      0xa\n      0x0\n        /* \"contracts/TetherToken.sol\":4637:4671  upgradedAddress = _upgradedAddress */\n      0x100\n      exp\n      dup2\n      sload\n      dup2\n      0xffffffffffffffffffffffffffffffffffffffff\n      mul\n      not\n      and\n      swap1\n      dup4\n      0xffffffffffffffffffffffffffffffffffffffff\n      and\n      mul\n      or\n      swap1\n      sstore\n      pop\n        /* \"contracts/TetherToken.sol\":4681:4708  Deprecate(_upgradedAddress) */\n      0xcc358699805e9a8b7f77b522628c7cb9abd07d9efb86b6fb616af1609036a99e\n        /* \"contracts/TetherToken.sol\":4691:4707  _upgradedAddress */\n      dup2\n        /* \"contracts/TetherToken.sol\":4681:4708  Deprecate(_upgradedAddress) */\n      mload(0x40)\n      dup1\n      dup3\n      0xffffffffffffffffffffffffffffffffffffffff\n      and\n      0xffffffffffffffffffffffffffffffffffffffff\n      and\n      dup2\n      mstore\n      0x20\n      add\n      swap2\n      pop\n      pop\n      mload(0x40)\n      dup1\n      swap2\n      sub\n      swap1\n      log1\n        /* \"contracts/TetherToken.sol\":4489:4715  function deprecate(address _upgradedAddress) public onlyOwner {... */\n      pop\n      jump\t// out\n        /* \"contracts/TetherToken.sol\":3043:3344  function approve(address _spender, uint _value) public whenNotPaused returns (bool) {... */\n    tag_47:\n        /* \"contracts/TetherToken.sol\":3121:3125  bool */\n      0x0\n        /* \"contracts/Pausable.sol\":421:427  paused */\n      0x2\n      0x14\n      swap1\n      sload\n      swap1\n      0x100\n      exp\n      swap1\n      div\n      0xff\n      and\n        /* \"contracts/Pausable.sol\":420:427  !paused */\n      iszero\n        /* \"contracts/Pausable.sol\":412:428  require(!paused) */\n      iszero\n      iszero\n      tag_150\n      jumpi\n      0x0\n      dup1\n      revert\n    tag_150:\n        /* \"contracts/TetherToken.sol\":3141:3151  deprecated */\n      0xa\n      0x14\n      swap1\n      sload\n      swap1\n      0x100\n      exp\n      swap1\n      div\n      0xff\n      and\n        /* \"contracts/TetherToken.sol\":3137:3338  if (deprecated) {... */\n      iszero\n      tag_152\n      jumpi\n        /* \"contracts/TetherToken.sol\":3196:3211  upgradedAddress */\n      0xa\n      0x0\n      swap1\n      sload\n      swap1\n      0x100\n      exp\n      swap1\n      div\n      0xffffffffffffffffffffffffffffffffffffffff\n      and\n        /* \"contracts/TetherToken.sol\":3174:3228  UpgradedStandardToken(upgradedAddress).approveByLegacy */\n      0xffffffffffffffffffffffffffffffffffffffff\n      and\n      0xaee92d33\n        /* \"contracts/TetherToken.sol\":3229:3239  msg.sender */\n      caller\n        /* \"contracts/TetherToken.sol\":3241:3249  _spender */\n      dup6\n        /* \"contracts/TetherToken.sol\":3251:3257  _value */\n      dup6\n        /* \"contracts/TetherToken.sol\":3174:3258  UpgradedStandardToken(upgradedAddress).approveByLegacy(msg.sender, _spender, _value) */\n      mstore(add(0x20, mload(0x40)), 0x0)\n      mload(0x40)\n      dup5\n      0xffffffff\n      and\n      0x100000000000000000000000000000000000000000000000000000000\n      mul\n      dup2\n      mstore\n      0x4\n      add\n      dup1\n      dup5\n      0xffffffffffffffffffffffffffffffffffffffff\n      and\n      0xffffffffffffffffffffffffffffffffffffffff\n      and\n      dup2\n      mstore\n      0x20\n      add\n      dup4\n      0xffffffffffffffffffffffffffffffffffffffff\n      and\n      0xffffffffffffffffffffffffffffffffffffffff\n      and\n      dup2\n      mstore\n      0x20\n      add\n      dup3\n      dup2\n      mstore\n      0x20\n      add\n      swap4\n      pop\n      pop\n      pop\n      pop\n      0x20\n      mload(0x40)\n      dup1\n      dup4\n      sub\n      dup2\n      0x0\n      dup8\n      dup1\n      extcodesize\n      iszero\n      iszero\n      tag_153\n      jumpi\n      0x0\n      dup1\n      revert\n    tag_153:\n      sub(gas, 0x2c6)\n      call\n      iszero\n      iszero\n      tag_154\n      jumpi\n      0x0\n      dup1\n      revert\n    tag_154:\n      pop\n      pop\n      pop\n      mload(0x40)\n      dup1\n      mload\n      swap1\n      pop\n        /* \"contracts/TetherToken.sol\":3167:3258  return UpgradedStandardToken(upgradedAddress).approveByLegacy(msg.sender, _spender, _value) */\n      swap1\n      pop\n      jump(tag_151)\n        /* \"contracts/TetherToken.sol\":3137:3338  if (deprecated) {... */\n    tag_152:\n        /* \"contracts/TetherToken.sol\":3296:3327  super.approve(_spender, _value) */\n      tag_156\n        /* \"contracts/TetherToken.sol\":3310:3318  _spender */\n      dup4\n        /* \"contracts/TetherToken.sol\":3320:3326  _value */\n      dup4\n        /* \"contracts/TetherToken.sol\":3296:3309  super.approve */\n      tag_157\n        /* \"contracts/TetherToken.sol\":3296:3327  super.approve(_spender, _value) */\n      jump\t// in\n    tag_156:\n        /* \"contracts/TetherToken.sol\":3289:3327  return super.approve(_spender, _value) */\n      swap1\n      pop\n        /* \"contracts/Pausable.sol\":438:439  _ */\n    tag_151:\n        /* \"contracts/TetherToken.sol\":3043:3344  function approve(address _spender, uint _value) public whenNotPaused returns (bool) {... */\n      swap3\n      swap2\n      pop\n      pop\n      jump\t// out\n        /* \"contracts/TetherToken.sol\":956:978  bool public deprecated */\n    tag_50:\n      0xa\n      0x14\n      swap1\n      sload\n      swap1\n      0x100\n      exp\n      swap1\n      div\n      0xff\n      and\n      dup2\n      jump\t// out\n        /* \"contracts/BlackList.sol\":387:529  function addBlackList (address _evilUser) public onlyOwner {... */\n    tag_53:\n        /* \"contracts/Ownable.sol\":680:685  owner */\n      0x2\n      0x0\n      swap1\n      sload\n      swap1\n      0x100\n      exp\n      swap1\n      div\n      0xffffffffffffffffffffffffffffffffffffffff\n      and\n        /* \"contracts/Ownable.sol\":666:685  msg.sender == owner */\n      0xffffffffffffffffffffffffffffffffffffffff\n      and\n        /* \"contracts/Ownable.sol\":666:676  msg.sender */\n      caller\n        /* \"contracts/Ownable.sol\":666:685  msg.sender == owner */\n      0xffffffffffffffffffffffffffffffffffffffff\n      and\n      eq\n        /* \"contracts/Ownable.sol\":658:686  require(msg.sender == owner) */\n      iszero\n      iszero\n      tag_159\n      jumpi\n      0x0\n      dup1\n      revert\n    tag_159:\n        /* \"contracts/BlackList.sol\":483:487  true */\n      0x1\n        /* \"contracts/BlackList.sol\":456:469  isBlackListed */\n      0x9\n        /* \"contracts/BlackList.sol\":456:480  isBlackListed[_evilUser] */\n      0x0\n        /* \"contracts/BlackList.sol\":470:479  _evilUser */\n      dup4\n        /* \"contracts/BlackList.sol\":456:480  isBlackListed[_evilUser] */\n      0xffffffffffffffffffffffffffffffffffffffff\n      and\n      0xffffffffffffffffffffffffffffffffffffffff\n      and\n      dup2\n      mstore\n      0x20\n      add\n      swap1\n      dup2\n      mstore\n      0x20\n      add\n      0x0\n      keccak256\n      0x0\n        /* \"contracts/BlackList.sol\":456:487  isBlackListed[_evilUser] = true */\n      0x100\n      exp\n      dup2\n      sload\n      dup2\n      0xff\n      mul\n      not\n      and\n      swap1\n      dup4\n      iszero\n      iszero\n      mul\n      or\n      swap1\n      sstore\n      pop\n        /* \"contracts/BlackList.sol\":512:521  _evilUser */\n      dup1\n        /* \"contracts/BlackList.sol\":497:522  AddedBlackList(_evilUser) */\n      0xffffffffffffffffffffffffffffffffffffffff\n      and\n      0x42e160154868087d6bfdc0ca23d96a1c1cfa32f1b72ba9ba27b69b98a0d819dc\n      mload(0x40)\n      mload(0x40)\n      dup1\n      swap2\n      sub\n      swap1\n      log2\n        /* \"contracts/BlackList.sol\":387:529  function addBlackList (address _evilUser) public onlyOwner {... */\n      pop\n      jump\t// out\n        /* \"contracts/TetherToken.sol\":4778:4990  function totalSupply() public constant returns (uint) {... */\n    tag_56:\n        /* \"contracts/TetherToken.sol\":4826:4830  uint */\n      0x0\n        /* \"contracts/TetherToken.sol\":4846:4856  deprecated */\n      0xa\n      0x14\n      swap1\n      sload\n      swap1\n      0x100\n      exp\n      swap1\n      div\n      0xff\n      and\n        /* \"contracts/TetherToken.sol\":4842:4984  if (deprecated) {... */\n      iszero\n      tag_162\n      jumpi\n        /* \"contracts/TetherToken.sol\":4893:4908  upgradedAddress */\n      0xa\n      0x0\n      swap1\n      sload\n      swap1\n      0x100\n      exp\n      swap1\n      div\n      0xffffffffffffffffffffffffffffffffffffffff\n      and\n        /* \"contracts/TetherToken.sol\":4879:4921  StandardToken(upgradedAddress).totalSupply */\n      0xffffffffffffffffffffffffffffffffffffffff\n      and\n      0x18160ddd\n        /* \"contracts/TetherToken.sol\":4879:4923  StandardToken(upgradedAddress).totalSupply() */\n      mstore(add(0x20, mload(0x40)), 0x0)\n      mload(0x40)\n      dup2\n      0xffffffff\n      and\n      0x100000000000000000000000000000000000000000000000000000000\n      mul\n      dup2\n      mstore\n      0x4\n      add\n      0x20\n      mload(0x40)\n      dup1\n      dup4\n      sub\n      dup2\n      0x0\n      dup8\n      dup1\n      extcodesize\n      iszero\n      iszero\n      tag_163\n      jumpi\n      0x0\n      dup1\n      revert\n    tag_163:\n      sub(gas, 0x2c6)\n      call\n      iszero\n      iszero\n      tag_164\n      jumpi\n      0x0\n      dup1\n      revert\n    tag_164:\n      pop\n      pop\n      pop\n      mload(0x40)\n      dup1\n      mload\n      swap1\n      pop\n        /* \"contracts/TetherToken.sol\":4872:4923  return StandardToken(upgradedAddress).totalSupply() */\n      swap1\n      pop\n      jump(tag_161)\n        /* \"contracts/TetherToken.sol\":4842:4984  if (deprecated) {... */\n    tag_162:\n        /* \"contracts/TetherToken.sol\":4961:4973  _totalSupply */\n      sload(0x8)\n        /* \"contracts/TetherToken.sol\":4954:4973  return _totalSupply */\n      swap1\n      pop\n        /* \"contracts/TetherToken.sol\":4778:4990  function totalSupply() public constant returns (uint) {... */\n    tag_161:\n      swap1\n      jump\t// out\n        /* \"contracts/TetherToken.sol\":2061:2431  function transferFrom(address _from, address _to, uint _value) public whenNotPaused returns (bool) {... */\n    tag_59:\n        /* \"contracts/TetherToken.sol\":2154:2158  bool */\n      0x0\n        /* \"contracts/Pausable.sol\":421:427  paused */\n      0x2\n      0x14\n      swap1\n      sload\n      swap1\n      0x100\n      exp\n      swap1\n      div\n      0xff\n      and\n        /* \"contracts/Pausable.sol\":420:427  !paused */\n      iszero\n        /* \"contracts/Pausable.sol\":412:428  require(!paused) */\n      iszero\n      iszero\n      tag_167\n      jumpi\n      0x0\n      dup1\n      revert\n    tag_167:\n        /* \"contracts/TetherToken.sol\":2179:2192  isBlackListed */\n      0x9\n        /* \"contracts/TetherToken.sol\":2179:2199  isBlackListed[_from] */\n      0x0\n        /* \"contracts/TetherToken.sol\":2193:2198  _from */\n      dup6\n        /* \"contracts/TetherToken.sol\":2179:2199  isBlackListed[_from] */\n      0xffffffffffffffffffffffffffffffffffffffff\n      and\n      0xffffffffffffffffffffffffffffffffffffffff\n      and\n      dup2\n      mstore\n      0x20\n      add\n      swap1\n      dup2\n      mstore\n      0x20\n      add\n      0x0\n      keccak256\n      0x0\n      swap1\n      sload\n      swap1\n      0x100\n      exp\n      swap1\n      div\n      0xff\n      and\n        /* \"contracts/TetherToken.sol\":2178:2199  !isBlackListed[_from] */\n      iszero\n        /* \"contracts/TetherToken.sol\":2170:2200  require(!isBlackListed[_from]) */\n      iszero\n      iszero\n      tag_169\n      jumpi\n      0x0\n      dup1\n      revert\n    tag_169:\n        /* \"contracts/TetherToken.sol\":2214:2224  deprecated */\n      0xa\n      0x14\n      swap1\n      sload\n      swap1\n      0x100\n      exp\n      swap1\n      div\n      0xff\n      and\n        /* \"contracts/TetherToken.sol\":2210:2425  if (deprecated) {... */\n      iszero\n      tag_170\n      jumpi\n        /* \"contracts/TetherToken.sol\":2269:2284  upgradedAddress */\n      0xa\n      0x0\n      swap1\n      sload\n      swap1\n      0x100\n      exp\n      swap1\n      div\n      0xffffffffffffffffffffffffffffffffffffffff\n      and\n        /* \"contracts/TetherToken.sol\":2247:2306  UpgradedStandardToken(upgradedAddress).transferFromByLegacy */\n      0xffffffffffffffffffffffffffffffffffffffff\n      and\n      0x8b477adb\n        /* \"contracts/TetherToken.sol\":2307:2317  msg.sender */\n      caller\n        /* \"contracts/TetherToken.sol\":2319:2324  _from */\n      dup7\n        /* \"contracts/TetherToken.sol\":2326:2329  _to */\n      dup7\n        /* \"contracts/TetherToken.sol\":2331:2337  _value */\n      dup7\n        /* \"contracts/TetherToken.sol\":2247:2338  UpgradedStandardToken(upgradedAddress).transferFromByLegacy(msg.sender, _from, _to, _value) */\n      mstore(add(0x20, mload(0x40)), 0x0)\n      mload(0x40)\n      dup6\n      0xffffffff\n      and\n      0x100000000000000000000000000000000000000000000000000000000\n      mul\n      dup2\n      mstore\n      0x4\n      add\n      dup1\n      dup6\n      0xffffffffffffffffffffffffffffffffffffffff\n      and\n      0xffffffffffffffffffffffffffffffffffffffff\n      and\n      dup2\n      mstore\n      0x20\n      add\n      dup5\n      0xffffffffffffffffffffffffffffffffffffffff\n      and\n      0xffffffffffffffffffffffffffffffffffffffff\n      and\n      dup2\n      mstore\n      0x20\n      add\n      dup4\n      0xffffffffffffffffffffffffffffffffffffffff\n      and\n      0xffffffffffffffffffffffffffffffffffffffff\n      and\n      dup2\n      mstore\n      0x20\n      add\n      dup3\n      dup2\n      mstore\n      0x20\n      add\n      swap5\n      pop\n      pop\n      pop\n      pop\n      pop\n      0x20\n      mload(0x40)\n      dup1\n      dup4\n      sub\n      dup2\n      0x0\n      dup8\n      dup1\n      extcodesize\n      iszero\n      iszero\n      tag_171\n      jumpi\n      0x0\n      dup1\n      revert\n    tag_171:\n      sub(gas, 0x2c6)\n      call\n      iszero\n      iszero\n      tag_172\n      jumpi\n      0x0\n      dup1\n      revert\n    tag_172:\n      pop\n      pop\n      pop\n      mload(0x40)\n      dup1\n      mload\n      swap1\n      pop\n        /* \"contracts/TetherToken.sol\":2240:2338  return UpgradedStandardToken(upgradedAddress).transferFromByLegacy(msg.sender, _from, _to, _value) */\n      swap1\n      pop\n      jump(tag_168)\n        /* \"contracts/TetherToken.sol\":2210:2425  if (deprecated) {... */\n    tag_170:\n        /* \"contracts/TetherToken.sol\":2376:2414  super.transferFrom(_from, _to, _value) */\n      tag_174\n        /* \"contracts/TetherToken.sol\":2395:2400  _from */\n      dup5\n        /* \"contracts/TetherToken.sol\":2402:2405  _to */\n      dup5\n        /* \"contracts/TetherToken.sol\":2407:2413  _value */\n      dup5\n        /* \"contracts/TetherToken.sol\":2376:2394  super.transferFrom */\n      tag_175\n        /* \"contracts/TetherToken.sol\":2376:2414  super.transferFrom(_from, _to, _value) */\n      jump\t// in\n    tag_174:\n        /* \"contracts/TetherToken.sol\":2369:2414  return super.transferFrom(_from, _to, _value) */\n      swap1\n      pop\n        /* \"contracts/Pausable.sol\":438:439  _ */\n    tag_168:\n        /* \"contracts/TetherToken.sol\":2061:2431  function transferFrom(address _from, address _to, uint _value) public whenNotPaused returns (bool) {... */\n      swap4\n      swap3\n      pop\n      pop\n      pop\n      jump\t// out\n        /* \"contracts/TetherToken.sol\":920:950  address public upgradedAddress */\n    tag_62:\n      0xa\n      0x0\n      swap1\n      sload\n      swap1\n      0x100\n      exp\n      swap1\n      div\n      0xffffffffffffffffffffffffffffffffffffffff\n      and\n      dup2\n      jump\t// out\n        /* \"contracts/StandardTokenWithFees.sol\":446:467  uint8 public decimals */\n    tag_65:\n      0x7\n      0x0\n      swap1\n      sload\n      swap1\n      0x100\n      exp\n      swap1\n      div\n      0xff\n      and\n      dup2\n      jump\t// out\n        /* \"contracts/StandardTokenWithFees.sol\":263:292  uint256 public maximumFee = 0 */\n    tag_68:\n      sload(0x4)\n      dup2\n      jump\t// out\n        /* \"contracts/StandardTokenWithFees.sol\":473:497  uint public _totalSupply */\n    tag_71:\n      sload(0x8)\n      dup2\n      jump\t// out\n        /* \"contracts/Pausable.sol\":882:979  function unpause() onlyOwner whenPaused public {... */\n    tag_74:\n        /* \"contracts/Ownable.sol\":680:685  owner */\n      0x2\n      0x0\n      swap1\n      sload\n      swap1\n      0x100\n      exp\n      swap1\n      div\n      0xffffffffffffffffffffffffffffffffffffffff\n      and\n        /* \"contracts/Ownable.sol\":666:685  msg.sender == owner */\n      0xffffffffffffffffffffffffffffffffffffffff\n      and\n        /* \"contracts/Ownable.sol\":666:676  msg.sender */\n      caller\n        /* \"contracts/Ownable.sol\":666:685  msg.sender == owner */\n      0xffffffffffffffffffffffffffffffffffffffff\n      and\n      eq\n        /* \"contracts/Ownable.sol\":658:686  require(msg.sender == owner) */\n      iszero\n      iszero\n      tag_177\n      jumpi\n      0x0\n      dup1\n      revert\n    tag_177:\n        /* \"contracts/Pausable.sol\":589:595  paused */\n      0x2\n      0x14\n      swap1\n      sload\n      swap1\n      0x100\n      exp\n      swap1\n      div\n      0xff\n      and\n        /* \"contracts/Pausable.sol\":581:596  require(paused) */\n      iszero\n      iszero\n      tag_179\n      jumpi\n      0x0\n      dup1\n      revert\n    tag_179:\n        /* \"contracts/Pausable.sol\":948:953  false */\n      0x0\n        /* \"contracts/Pausable.sol\":939:945  paused */\n      0x2\n      0x14\n        /* \"contracts/Pausable.sol\":939:953  paused = false */\n      0x100\n      exp\n      dup2\n      sload\n      dup2\n      0xff\n      mul\n      not\n      and\n      swap1\n      dup4\n      iszero\n      iszero\n      mul\n      or\n      swap1\n      sstore\n      pop\n        /* \"contracts/Pausable.sol\":963:972  Unpause() */\n      0x7805862f689e2f13df9f062ff482ad3ad112aca9e0847911ed832e158c525b33\n      mload(0x40)\n      mload(0x40)\n      dup1\n      swap2\n      sub\n      swap1\n      log1\n        /* \"contracts/Pausable.sol\":882:979  function unpause() onlyOwner whenPaused public {... */\n      jump\t// out\n        /* \"contracts/BlackList.sol\":206:328  function getBlackListStatus(address _maker) external constant returns (bool) {... */\n    tag_77:\n        /* \"contracts/BlackList.sol\":277:281  bool */\n      0x0\n        /* \"contracts/BlackList.sol\":300:313  isBlackListed */\n      0x9\n        /* \"contracts/BlackList.sol\":300:321  isBlackListed[_maker] */\n      0x0\n        /* \"contracts/BlackList.sol\":314:320  _maker */\n      dup4\n        /* \"contracts/BlackList.sol\":300:321  isBlackListed[_maker] */\n      0xffffffffffffffffffffffffffffffffffffffff\n      and\n      0xffffffffffffffffffffffffffffffffffffffff\n      and\n      dup2\n      mstore\n      0x20\n      add\n      swap1\n      dup2\n      mstore\n      0x20\n      add\n      0x0\n      keccak256\n      0x0\n      swap1\n      sload\n      swap1\n      0x100\n      exp\n      swap1\n      div\n      0xff\n      and\n        /* \"contracts/BlackList.sol\":293:321  return isBlackListed[_maker] */\n      swap1\n      pop\n        /* \"contracts/BlackList.sol\":206:328  function getBlackListStatus(address _maker) external constant returns (bool) {... */\n      swap2\n      swap1\n      pop\n      jump\t// out\n        /* \"contracts/Pausable.sol\":242:268  bool public paused = false */\n    tag_80:\n      0x2\n      0x14\n      swap1\n      sload\n      swap1\n      0x100\n      exp\n      swap1\n      div\n      0xff\n      and\n      dup2\n      jump\t// out\n        /* \"contracts/TetherToken.sol\":3699:4057  function decreaseApproval(address _spender, uint _subtractedValue) public whenNotPaused returns (bool) {... */\n    tag_83:\n        /* \"contracts/TetherToken.sol\":3796:3800  bool */\n      0x0\n        /* \"contracts/Pausable.sol\":421:427  paused */\n      0x2\n      0x14\n      swap1\n      sload\n      swap1\n      0x100\n      exp\n      swap1\n      div\n      0xff\n      and\n        /* \"contracts/Pausable.sol\":420:427  !paused */\n      iszero\n        /* \"contracts/Pausable.sol\":412:428  require(!paused) */\n      iszero\n      iszero\n      tag_183\n      jumpi\n      0x0\n      dup1\n      revert\n    tag_183:\n        /* \"contracts/TetherToken.sol\":3816:3826  deprecated */\n      0xa\n      0x14\n      swap1\n      sload\n      swap1\n      0x100\n      exp\n      swap1\n      div\n      0xff\n      and\n        /* \"contracts/TetherToken.sol\":3812:4051  if (deprecated) {... */\n      iszero\n      tag_185\n      jumpi\n        /* \"contracts/TetherToken.sol\":3871:3886  upgradedAddress */\n      0xa\n      0x0\n      swap1\n      sload\n      swap1\n      0x100\n      exp\n      swap1\n      div\n      0xffffffffffffffffffffffffffffffffffffffff\n      and\n        /* \"contracts/TetherToken.sol\":3849:3912  UpgradedStandardToken(upgradedAddress).decreaseApprovalByLegacy */\n      0xffffffffffffffffffffffffffffffffffffffff\n      and\n      0x6001279f\n        /* \"contracts/TetherToken.sol\":3913:3923  msg.sender */\n      caller\n        /* \"contracts/TetherToken.sol\":3925:3933  _spender */\n      dup6\n        /* \"contracts/TetherToken.sol\":3935:3951  _subtractedValue */\n      dup6\n        /* \"contracts/TetherToken.sol\":3849:3952  UpgradedStandardToken(upgradedAddress).decreaseApprovalByLegacy(msg.sender, _spender, _subtractedValue) */\n      mstore(add(0x20, mload(0x40)), 0x0)\n      mload(0x40)\n      dup5\n      0xffffffff\n      and\n      0x100000000000000000000000000000000000000000000000000000000\n      mul\n      dup2\n      mstore\n      0x4\n      add\n      dup1\n      dup5\n      0xffffffffffffffffffffffffffffffffffffffff\n      and\n      0xffffffffffffffffffffffffffffffffffffffff\n      and\n      dup2\n      mstore\n      0x20\n      add\n      dup4\n      0xffffffffffffffffffffffffffffffffffffffff\n      and\n      0xffffffffffffffffffffffffffffffffffffffff\n      and\n      dup2\n      mstore\n      0x20\n      add\n      dup3\n      dup2\n      mstore\n      0x20\n      add\n      swap4\n      pop\n      pop\n      pop\n      pop\n      0x20\n      mload(0x40)\n      dup1\n      dup4\n      sub\n      dup2\n      0x0\n      dup8\n      dup1\n      extcodesize\n      iszero\n      iszero\n      tag_186\n      jumpi\n      0x0\n      dup1\n      revert\n    tag_186:\n      sub(gas, 0x2c6)\n      call\n      iszero\n      iszero\n      tag_187\n      jumpi\n      0x0\n      dup1\n      revert\n    tag_187:\n      pop\n      pop\n      pop\n      mload(0x40)\n      dup1\n      mload\n      swap1\n      pop\n        /* \"contracts/TetherToken.sol\":3842:3952  return UpgradedStandardToken(upgradedAddress).decreaseApprovalByLegacy(msg.sender, _spender, _subtractedValue) */\n      swap1\n      pop\n      jump(tag_184)\n        /* \"contracts/TetherToken.sol\":3812:4051  if (deprecated) {... */\n    tag_185:\n        /* \"contracts/TetherToken.sol\":3990:4040  super.decreaseApproval(_spender, _subtractedValue) */\n      tag_189\n        /* \"contracts/TetherToken.sol\":4013:4021  _spender */\n      dup4\n        /* \"contracts/TetherToken.sol\":4023:4039  _subtractedValue */\n      dup4\n        /* \"contracts/TetherToken.sol\":3990:4012  super.decreaseApproval */\n      tag_190\n        /* \"contracts/TetherToken.sol\":3990:4040  super.decreaseApproval(_spender, _subtractedValue) */\n      jump\t// in\n    tag_189:\n        /* \"contracts/TetherToken.sol\":3983:4040  return super.decreaseApproval(_spender, _subtractedValue) */\n      swap1\n      pop\n        /* \"contracts/Pausable.sol\":438:439  _ */\n    tag_184:\n        /* \"contracts/TetherToken.sol\":3699:4057  function decreaseApproval(address _spender, uint _subtractedValue) public whenNotPaused returns (bool) {... */\n      swap3\n      swap2\n      pop\n      pop\n      jump\t// out\n        /* \"contracts/TetherToken.sol\":2513:2751  function balanceOf(address who) public constant returns (uint) {... */\n    tag_86:\n        /* \"contracts/TetherToken.sol\":2570:2574  uint */\n      0x0\n        /* \"contracts/TetherToken.sol\":2590:2600  deprecated */\n      0xa\n      0x14\n      swap1\n      sload\n      swap1\n      0x100\n      exp\n      swap1\n      div\n      0xff\n      and\n        /* \"contracts/TetherToken.sol\":2586:2745  if (deprecated) {... */\n      iszero\n      tag_192\n      jumpi\n        /* \"contracts/TetherToken.sol\":2645:2660  upgradedAddress */\n      0xa\n      0x0\n      swap1\n      sload\n      swap1\n      0x100\n      exp\n      swap1\n      div\n      0xffffffffffffffffffffffffffffffffffffffff\n      and\n        /* \"contracts/TetherToken.sol\":2623:2671  UpgradedStandardToken(upgradedAddress).balanceOf */\n      0xffffffffffffffffffffffffffffffffffffffff\n      and\n      0x70a08231\n        /* \"contracts/TetherToken.sol\":2672:2675  who */\n      dup4\n        /* \"contracts/TetherToken.sol\":2623:2676  UpgradedStandardToken(upgradedAddress).balanceOf(who) */\n      mstore(add(0x20, mload(0x40)), 0x0)\n      mload(0x40)\n      dup3\n      0xffffffff\n      and\n      0x100000000000000000000000000000000000000000000000000000000\n      mul\n      dup2\n      mstore\n      0x4\n      add\n      dup1\n      dup3\n      0xffffffffffffffffffffffffffffffffffffffff\n      and\n      0xffffffffffffffffffffffffffffffffffffffff\n      and\n      dup2\n      mstore\n      0x20\n      add\n      swap2\n      pop\n      pop\n      0x20\n      mload(0x40)\n      dup1\n      dup4\n      sub\n      dup2\n      0x0\n      dup8\n      dup1\n      extcodesize\n      iszero\n      iszero\n      tag_193\n      jumpi\n      0x0\n      dup1\n      revert\n    tag_193:\n      sub(gas, 0x2c6)\n      call\n      iszero\n      iszero\n      tag_194\n      jumpi\n      0x0\n      dup1\n      revert\n    tag_194:\n      pop\n      pop\n      pop\n      mload(0x40)\n      dup1\n      mload\n      swap1\n      pop\n        /* \"contracts/TetherToken.sol\":2616:2676  return UpgradedStandardToken(upgradedAddress).balanceOf(who) */\n      swap1\n      pop\n      jump(tag_191)\n        /* \"contracts/TetherToken.sol\":2586:2745  if (deprecated) {... */\n    tag_192:\n        /* \"contracts/TetherToken.sol\":2714:2734  super.balanceOf(who) */\n      tag_196\n        /* \"contracts/TetherToken.sol\":2730:2733  who */\n      dup3\n        /* \"contracts/TetherToken.sol\":2714:2729  super.balanceOf */\n      tag_197\n        /* \"contracts/TetherToken.sol\":2714:2734  super.balanceOf(who) */\n      jump\t// in\n    tag_196:\n        /* \"contracts/TetherToken.sol\":2707:2734  return super.balanceOf(who) */\n      swap1\n      pop\n        /* \"contracts/TetherToken.sol\":2513:2751  function balanceOf(address who) public constant returns (uint) {... */\n    tag_191:\n      swap2\n      swap1\n      pop\n      jump\t// out\n        /* \"contracts/StandardTokenWithFees.sol\":553:767  function calcFee(uint _value) constant returns (uint) {... */\n    tag_89:\n        /* \"contracts/StandardTokenWithFees.sol\":601:605  uint */\n      0x0\n        /* \"contracts/StandardTokenWithFees.sol\":617:625  uint fee */\n      dup1\n        /* \"contracts/StandardTokenWithFees.sol\":628:668  (_value.mul(basisPointsRate)).div(10000) */\n      tag_199\n        /* \"contracts/StandardTokenWithFees.sol\":662:667  10000 */\n      0x2710\n        /* \"contracts/StandardTokenWithFees.sol\":629:656  _value.mul(basisPointsRate) */\n      tag_200\n        /* \"contracts/StandardTokenWithFees.sol\":640:655  basisPointsRate */\n      sload(0x3)\n        /* \"contracts/StandardTokenWithFees.sol\":629:635  _value */\n      dup7\n        /* \"contracts/StandardTokenWithFees.sol\":629:639  _value.mul */\n      tag_201\n      swap1\n        /* \"contracts/StandardTokenWithFees.sol\":629:656  _value.mul(basisPointsRate) */\n      swap2\n      swap1\n      0xffffffff\n      and\n      jump\t// in\n    tag_200:\n        /* \"contracts/StandardTokenWithFees.sol\":628:661  (_value.mul(basisPointsRate)).div */\n      tag_202\n      swap1\n        /* \"contracts/StandardTokenWithFees.sol\":628:668  (_value.mul(basisPointsRate)).div(10000) */\n      swap2\n      swap1\n      0xffffffff\n      and\n      jump\t// in\n    tag_199:\n        /* \"contracts/StandardTokenWithFees.sol\":617:668  uint fee = (_value.mul(basisPointsRate)).div(10000) */\n      swap1\n      pop\n        /* \"contracts/StandardTokenWithFees.sol\":688:698  maximumFee */\n      sload(0x4)\n        /* \"contracts/StandardTokenWithFees.sol\":682:685  fee */\n      dup2\n        /* \"contracts/StandardTokenWithFees.sol\":682:698  fee > maximumFee */\n      gt\n        /* \"contracts/StandardTokenWithFees.sol\":678:741  if (fee > maximumFee) {... */\n      iszero\n      tag_203\n      jumpi\n        /* \"contracts/StandardTokenWithFees.sol\":720:730  maximumFee */\n      sload(0x4)\n        /* \"contracts/StandardTokenWithFees.sol\":714:730  fee = maximumFee */\n      swap1\n      pop\n        /* \"contracts/StandardTokenWithFees.sol\":678:741  if (fee > maximumFee) {... */\n    tag_203:\n        /* \"contracts/StandardTokenWithFees.sol\":757:760  fee */\n      dup1\n        /* \"contracts/StandardTokenWithFees.sol\":750:760  return fee */\n      swap2\n      pop\n        /* \"contracts/StandardTokenWithFees.sol\":553:767  function calcFee(uint _value) constant returns (uint) {... */\n      pop\n      swap2\n      swap1\n      pop\n      jump\t// out\n        /* \"contracts/Pausable.sol\":699:794  function pause() onlyOwner whenNotPaused public {... */\n    tag_92:\n        /* \"contracts/Ownable.sol\":680:685  owner */\n      0x2\n      0x0\n      swap1\n      sload\n      swap1\n      0x100\n      exp\n      swap1\n      div\n      0xffffffffffffffffffffffffffffffffffffffff\n      and\n        /* \"contracts/Ownable.sol\":666:685  msg.sender == owner */\n      0xffffffffffffffffffffffffffffffffffffffff\n      and\n        /* \"contracts/Ownable.sol\":666:676  msg.sender */\n      caller\n        /* \"contracts/Ownable.sol\":666:685  msg.sender == owner */\n      0xffffffffffffffffffffffffffffffffffffffff\n      and\n      eq\n        /* \"contracts/Ownable.sol\":658:686  require(msg.sender == owner) */\n      iszero\n      iszero\n      tag_205\n      jumpi\n      0x0\n      dup1\n      revert\n    tag_205:\n        /* \"contracts/Pausable.sol\":421:427  paused */\n      0x2\n      0x14\n      swap1\n      sload\n      swap1\n      0x100\n      exp\n      swap1\n      div\n      0xff\n      and\n        /* \"contracts/Pausable.sol\":420:427  !paused */\n      iszero\n        /* \"contracts/Pausable.sol\":412:428  require(!paused) */\n      iszero\n      iszero\n      tag_207\n      jumpi\n      0x0\n      dup1\n      revert\n    tag_207:\n        /* \"contracts/Pausable.sol\":766:770  true */\n      0x1\n        /* \"contracts/Pausable.sol\":757:763  paused */\n      0x2\n      0x14\n        /* \"contracts/Pausable.sol\":757:770  paused = true */\n      0x100\n      exp\n      dup2\n      sload\n      dup2\n      0xff\n      mul\n      not\n      and\n      swap1\n      dup4\n      iszero\n      iszero\n      mul\n      or\n      swap1\n      sstore\n      pop\n        /* \"contracts/Pausable.sol\":780:787  Pause() */\n      0x6985a02210a168e66602d3235cb6db0e70f92b3ba4d376a33c0f3d9434bff625\n      mload(0x40)\n      mload(0x40)\n      dup1\n      swap2\n      sub\n      swap1\n      log1\n        /* \"contracts/Pausable.sol\":699:794  function pause() onlyOwner whenNotPaused public {... */\n      jump\t// out\n        /* \"contracts/Ownable.sol\":240:260  address public owner */\n    tag_95:\n      0x2\n      0x0\n      swap1\n      sload\n      swap1\n      0x100\n      exp\n      swap1\n      div\n      0xffffffffffffffffffffffffffffffffffffffff\n      and\n      dup2\n      jump\t// out\n        /* \"contracts/StandardTokenWithFees.sol\":420:440  string public symbol */\n    tag_98:\n      0x6\n      dup1\n      sload\n      0x1\n      dup2\n      0x1\n      and\n      iszero\n      0x100\n      mul\n      sub\n      and\n      0x2\n      swap1\n      div\n      dup1\n      0x1f\n      add\n      0x20\n      dup1\n      swap2\n      div\n      mul\n      0x20\n      add\n      mload(0x40)\n      swap1\n      dup2\n      add\n      0x40\n      mstore\n      dup1\n      swap3\n      swap2\n      swap1\n      dup2\n      dup2\n      mstore\n      0x20\n      add\n      dup3\n      dup1\n      sload\n      0x1\n      dup2\n      0x1\n      and\n      iszero\n      0x100\n      mul\n      sub\n      and\n      0x2\n      swap1\n      div\n      dup1\n      iszero\n      tag_209\n      jumpi\n      dup1\n      0x1f\n      lt\n      tag_210\n      jumpi\n      0x100\n      dup1\n      dup4\n      sload\n      div\n      mul\n      dup4\n      mstore\n      swap2\n      0x20\n      add\n      swap2\n      jump(tag_209)\n    tag_210:\n      dup3\n      add\n      swap2\n      swap1\n      0x0\n      mstore\n      keccak256(0x0, 0x20)\n      swap1\n    tag_211:\n      dup2\n      sload\n      dup2\n      mstore\n      swap1\n      0x1\n      add\n      swap1\n      0x20\n      add\n      dup1\n      dup4\n      gt\n      tag_211\n      jumpi\n      dup3\n      swap1\n      sub\n      0x1f\n      and\n      dup3\n      add\n      swap2\n    tag_209:\n      pop\n      pop\n      pop\n      pop\n      pop\n      dup2\n      jump\t// out\n        /* \"contracts/TetherToken.sol\":1645:1979  function transfer(address _to, uint _value) public whenNotPaused returns (bool) {... */\n    tag_105:\n        /* \"contracts/TetherToken.sol\":1719:1723  bool */\n      0x0\n        /* \"contracts/Pausable.sol\":421:427  paused */\n      0x2\n      0x14\n      swap1\n      sload\n      swap1\n      0x100\n      exp\n      swap1\n      div\n      0xff\n      and\n        /* \"contracts/Pausable.sol\":420:427  !paused */\n      iszero\n        /* \"contracts/Pausable.sol\":412:428  require(!paused) */\n      iszero\n      iszero\n      tag_213\n      jumpi\n      0x0\n      dup1\n      revert\n    tag_213:\n        /* \"contracts/TetherToken.sol\":1744:1757  isBlackListed */\n      0x9\n        /* \"contracts/TetherToken.sol\":1744:1769  isBlackListed[msg.sender] */\n      0x0\n        /* \"contracts/TetherToken.sol\":1758:1768  msg.sender */\n      caller\n        /* \"contracts/TetherToken.sol\":1744:1769  isBlackListed[msg.sender] */\n      0xffffffffffffffffffffffffffffffffffffffff\n      and\n      0xffffffffffffffffffffffffffffffffffffffff\n      and\n      dup2\n      mstore\n      0x20\n      add\n      swap1\n      dup2\n      mstore\n      0x20\n      add\n      0x0\n      keccak256\n      0x0\n      swap1\n      sload\n      swap1\n      0x100\n      exp\n      swap1\n      div\n      0xff\n      and\n        /* \"contracts/TetherToken.sol\":1743:1769  !isBlackListed[msg.sender] */\n      iszero\n        /* \"contracts/TetherToken.sol\":1735:1770  require(!isBlackListed[msg.sender]) */\n      iszero\n      iszero\n      tag_215\n      jumpi\n      0x0\n      dup1\n      revert\n    tag_215:\n        /* \"contracts/TetherToken.sol\":1784:1794  deprecated */\n      0xa\n      0x14\n      swap1\n      sload\n      swap1\n      0x100\n      exp\n      swap1\n      div\n      0xff\n      and\n        /* \"contracts/TetherToken.sol\":1780:1973  if (deprecated) {... */\n      iszero\n      tag_216\n      jumpi\n        /* \"contracts/TetherToken.sol\":1839:1854  upgradedAddress */\n      0xa\n      0x0\n      swap1\n      sload\n      swap1\n      0x100\n      exp\n      swap1\n      div\n      0xffffffffffffffffffffffffffffffffffffffff\n      and\n        /* \"contracts/TetherToken.sol\":1817:1872  UpgradedStandardToken(upgradedAddress).transferByLegacy */\n      0xffffffffffffffffffffffffffffffffffffffff\n      and\n      0x6e18980a\n        /* \"contracts/TetherToken.sol\":1873:1883  msg.sender */\n      caller\n        /* \"contracts/TetherToken.sol\":1885:1888  _to */\n      dup6\n        /* \"contracts/TetherToken.sol\":1890:1896  _value */\n      dup6\n        /* \"contracts/TetherToken.sol\":1817:1897  UpgradedStandardToken(upgradedAddress).transferByLegacy(msg.sender, _to, _value) */\n      mstore(add(0x20, mload(0x40)), 0x0)\n      mload(0x40)\n      dup5\n      0xffffffff\n      and\n      0x100000000000000000000000000000000000000000000000000000000\n      mul\n      dup2\n      mstore\n      0x4\n      add\n      dup1\n      dup5\n      0xffffffffffffffffffffffffffffffffffffffff\n      and\n      0xffffffffffffffffffffffffffffffffffffffff\n      and\n      dup2\n      mstore\n      0x20\n      add\n      dup4\n      0xffffffffffffffffffffffffffffffffffffffff\n      and\n      0xffffffffffffffffffffffffffffffffffffffff\n      and\n      dup2\n      mstore\n      0x20\n      add\n      dup3\n      dup2\n      mstore\n      0x20\n      add\n      swap4\n      pop\n      pop\n      pop\n      pop\n      0x20\n      mload(0x40)\n      dup1\n      dup4\n      sub\n      dup2\n      0x0\n      dup8\n      dup1\n      extcodesize\n      iszero\n      iszero\n      tag_217\n      jumpi\n      0x0\n      dup1\n      revert\n    tag_217:\n      sub(gas, 0x2c6)\n      call\n      iszero\n      iszero\n      tag_218\n      jumpi\n      0x0\n      dup1\n      revert\n    tag_218:\n      pop\n      pop\n      pop\n      mload(0x40)\n      dup1\n      mload\n      swap1\n      pop\n        /* \"contracts/TetherToken.sol\":1810:1897  return UpgradedStandardToken(upgradedAddress).transferByLegacy(msg.sender, _to, _value) */\n      swap1\n      pop\n      jump(tag_214)\n        /* \"contracts/TetherToken.sol\":1780:1973  if (deprecated) {... */\n    tag_216:\n        /* \"contracts/TetherToken.sol\":1935:1962  super.transfer(_to, _value) */\n      tag_220\n        /* \"contracts/TetherToken.sol\":1950:1953  _to */\n      dup4\n        /* \"contracts/TetherToken.sol\":1955:1961  _value */\n      dup4\n        /* \"contracts/TetherToken.sol\":1935:1949  super.transfer */\n      tag_221\n        /* \"contracts/TetherToken.sol\":1935:1962  super.transfer(_to, _value) */\n      jump\t// in\n    tag_220:\n        /* \"contracts/TetherToken.sol\":1928:1962  return super.transfer(_to, _value) */\n      swap1\n      pop\n        /* \"contracts/Pausable.sol\":438:439  _ */\n    tag_214:\n        /* \"contracts/TetherToken.sol\":1645:1979  function transfer(address _to, uint _value) public whenNotPaused returns (bool) {... */\n      swap3\n      swap2\n      pop\n      pop\n      jump\t// out\n        /* \"contracts/TetherToken.sol\":2811:2961  function oldBalanceOf(address who) public constant returns (uint) {... */\n    tag_108:\n        /* \"contracts/TetherToken.sol\":2871:2875  uint */\n      0x0\n        /* \"contracts/TetherToken.sol\":2891:2901  deprecated */\n      0xa\n      0x14\n      swap1\n      sload\n      swap1\n      0x100\n      exp\n      swap1\n      div\n      0xff\n      and\n        /* \"contracts/TetherToken.sol\":2887:2955  if (deprecated) {... */\n      iszero\n      tag_223\n      jumpi\n        /* \"contracts/TetherToken.sol\":2924:2944  super.balanceOf(who) */\n      tag_224\n        /* \"contracts/TetherToken.sol\":2940:2943  who */\n      dup3\n        /* \"contracts/TetherToken.sol\":2924:2939  super.balanceOf */\n      tag_197\n        /* \"contracts/TetherToken.sol\":2924:2944  super.balanceOf(who) */\n      jump\t// in\n    tag_224:\n        /* \"contracts/TetherToken.sol\":2917:2944  return super.balanceOf(who) */\n      swap1\n      pop\n      jump(tag_222)\n        /* \"contracts/TetherToken.sol\":2887:2955  if (deprecated) {... */\n    tag_223:\n        /* \"contracts/TetherToken.sol\":2811:2961  function oldBalanceOf(address who) public constant returns (uint) {... */\n    tag_222:\n      swap2\n      swap1\n      pop\n      jump\t// out\n        /* \"contracts/StandardTokenWithFees.sol\":1810:2231  function setParams(uint newBasisPoints, uint newMaxFee) public onlyOwner {... */\n    tag_111:\n        /* \"contracts/Ownable.sol\":680:685  owner */\n      0x2\n      0x0\n      swap1\n      sload\n      swap1\n      0x100\n      exp\n      swap1\n      div\n      0xffffffffffffffffffffffffffffffffffffffff\n      and\n        /* \"contracts/Ownable.sol\":666:685  msg.sender == owner */\n      0xffffffffffffffffffffffffffffffffffffffff\n      and\n        /* \"contracts/Ownable.sol\":666:676  msg.sender */\n      caller\n        /* \"contracts/Ownable.sol\":666:685  msg.sender == owner */\n      0xffffffffffffffffffffffffffffffffffffffff\n      and\n      eq\n        /* \"contracts/Ownable.sol\":658:686  require(msg.sender == owner) */\n      iszero\n      iszero\n      tag_226\n      jumpi\n      0x0\n      dup1\n      revert\n    tag_226:\n        /* \"contracts/StandardTokenWithFees.sol\":343:345  20 */\n      0x14\n        /* \"contracts/StandardTokenWithFees.sol\":1989:2003  newBasisPoints */\n      dup3\n        /* \"contracts/StandardTokenWithFees.sol\":1989:2031  newBasisPoints < MAX_SETTABLE_BASIS_POINTS */\n      lt\n        /* \"contracts/StandardTokenWithFees.sol\":1981:2032  require(newBasisPoints < MAX_SETTABLE_BASIS_POINTS) */\n      iszero\n      iszero\n      tag_228\n      jumpi\n      0x0\n      dup1\n      revert\n    tag_228:\n        /* \"contracts/StandardTokenWithFees.sol\":387:389  50 */\n      0x32\n        /* \"contracts/StandardTokenWithFees.sol\":2050:2059  newMaxFee */\n      dup2\n        /* \"contracts/StandardTokenWithFees.sol\":2050:2078  newMaxFee < MAX_SETTABLE_FEE */\n      lt\n        /* \"contracts/StandardTokenWithFees.sol\":2042:2079  require(newMaxFee < MAX_SETTABLE_FEE) */\n      iszero\n      iszero\n      tag_229\n      jumpi\n      0x0\n      dup1\n      revert\n    tag_229:\n        /* \"contracts/StandardTokenWithFees.sol\":2108:2122  newBasisPoints */\n      dup2\n        /* \"contracts/StandardTokenWithFees.sol\":2090:2105  basisPointsRate */\n      0x3\n        /* \"contracts/StandardTokenWithFees.sol\":2090:2122  basisPointsRate = newBasisPoints */\n      dup2\n      swap1\n      sstore\n      pop\n        /* \"contracts/StandardTokenWithFees.sol\":2145:2178  newMaxFee.mul(uint(10)**decimals) */\n      tag_230\n        /* \"contracts/StandardTokenWithFees.sol\":2169:2177  decimals */\n      0x7\n      0x0\n      swap1\n      sload\n      swap1\n      0x100\n      exp\n      swap1\n      div\n      0xff\n      and\n        /* \"contracts/StandardTokenWithFees.sol\":2159:2177  uint(10)**decimals */\n      0xff\n      and\n        /* \"contracts/StandardTokenWithFees.sol\":2164:2166  10 */\n      0xa\n        /* \"contracts/StandardTokenWithFees.sol\":2159:2177  uint(10)**decimals */\n      exp\n        /* \"contracts/StandardTokenWithFees.sol\":2145:2154  newMaxFee */\n      dup3\n        /* \"contracts/StandardTokenWithFees.sol\":2145:2158  newMaxFee.mul */\n      tag_201\n      swap1\n        /* \"contracts/StandardTokenWithFees.sol\":2145:2178  newMaxFee.mul(uint(10)**decimals) */\n      swap2\n      swap1\n      0xffffffff\n      and\n      jump\t// in\n    tag_230:\n        /* \"contracts/StandardTokenWithFees.sol\":2132:2142  maximumFee */\n      0x4\n        /* \"contracts/StandardTokenWithFees.sol\":2132:2178  maximumFee = newMaxFee.mul(uint(10)**decimals) */\n      dup2\n      swap1\n      sstore\n      pop\n        /* \"contracts/StandardTokenWithFees.sol\":2189:2224  Params(basisPointsRate, maximumFee) */\n      0xb044a1e409eac5c48e5af22d4af52670dd1a99059537a78b31b48c6500a6354e\n        /* \"contracts/StandardTokenWithFees.sol\":2196:2211  basisPointsRate */\n      sload(0x3)\n        /* \"contracts/StandardTokenWithFees.sol\":2213:2223  maximumFee */\n      sload(0x4)\n        /* \"contracts/StandardTokenWithFees.sol\":2189:2224  Params(basisPointsRate, maximumFee) */\n      mload(0x40)\n      dup1\n      dup4\n      dup2\n      mstore\n      0x20\n      add\n      dup3\n      dup2\n      mstore\n      0x20\n      add\n      swap3\n      pop\n      pop\n      pop\n      mload(0x40)\n      dup1\n      swap2\n      sub\n      swap1\n      log1\n        /* \"contracts/StandardTokenWithFees.sol\":1810:2231  function setParams(uint newBasisPoints, uint newMaxFee) public onlyOwner {... */\n      pop\n      pop\n      jump\t// out\n        /* \"contracts/TetherToken.sol\":5148:5372  function issue(uint amount) public onlyOwner {... */\n    tag_114:\n        /* \"contracts/Ownable.sol\":680:685  owner */\n      0x2\n      0x0\n      swap1\n      sload\n      swap1\n      0x100\n      exp\n      swap1\n      div\n      0xffffffffffffffffffffffffffffffffffffffff\n      and\n        /* \"contracts/Ownable.sol\":666:685  msg.sender == owner */\n      0xffffffffffffffffffffffffffffffffffffffff\n      and\n        /* \"contracts/Ownable.sol\":666:676  msg.sender */\n      caller\n        /* \"contracts/Ownable.sol\":666:685  msg.sender == owner */\n      0xffffffffffffffffffffffffffffffffffffffff\n      and\n      eq\n        /* \"contracts/Ownable.sol\":658:686  require(msg.sender == owner) */\n      iszero\n      iszero\n      tag_232\n      jumpi\n      0x0\n      dup1\n      revert\n    tag_232:\n        /* \"contracts/TetherToken.sol\":5221:5248  balances[owner].add(amount) */\n      tag_234\n        /* \"contracts/TetherToken.sol\":5241:5247  amount */\n      dup2\n        /* \"contracts/TetherToken.sol\":5221:5229  balances */\n      0x0\n        /* \"contracts/TetherToken.sol\":5221:5236  balances[owner] */\n      dup1\n        /* \"contracts/TetherToken.sol\":5230:5235  owner */\n      0x2\n      0x0\n      swap1\n      sload\n      swap1\n      0x100\n      exp\n      swap1\n      div\n      0xffffffffffffffffffffffffffffffffffffffff\n      and\n        /* \"contracts/TetherToken.sol\":5221:5236  balances[owner] */\n      0xffffffffffffffffffffffffffffffffffffffff\n      and\n      0xffffffffffffffffffffffffffffffffffffffff\n      and\n      dup2\n      mstore\n      0x20\n      add\n      swap1\n      dup2\n      mstore\n      0x20\n      add\n      0x0\n      keccak256\n      sload\n        /* \"contracts/TetherToken.sol\":5221:5240  balances[owner].add */\n      tag_235\n      swap1\n        /* \"contracts/TetherToken.sol\":5221:5248  balances[owner].add(amount) */\n      swap2\n      swap1\n      0xffffffff\n      and\n      jump\t// in\n    tag_234:\n        /* \"contracts/TetherToken.sol\":5203:5211  balances */\n      0x0\n        /* \"contracts/TetherToken.sol\":5203:5218  balances[owner] */\n      dup1\n        /* \"contracts/TetherToken.sol\":5212:5217  owner */\n      0x2\n      0x0\n      swap1\n      sload\n      swap1\n      0x100\n      exp\n      swap1\n      div\n      0xffffffffffffffffffffffffffffffffffffffff\n      and\n        /* \"contracts/TetherToken.sol\":5203:5218  balances[owner] */\n      0xffffffffffffffffffffffffffffffffffffffff\n      and\n      0xffffffffffffffffffffffffffffffffffffffff\n      and\n      dup2\n      mstore\n      0x20\n      add\n      swap1\n      dup2\n      mstore\n      0x20\n      add\n      0x0\n      keccak256\n        /* \"contracts/TetherToken.sol\":5203:5248  balances[owner] = balances[owner].add(amount) */\n      dup2\n      swap1\n      sstore\n      pop\n        /* \"contracts/TetherToken.sol\":5273:5297  _totalSupply.add(amount) */\n      tag_236\n        /* \"contracts/TetherToken.sol\":5290:5296  amount */\n      dup2\n        /* \"contracts/TetherToken.sol\":5273:5285  _totalSupply */\n      sload(0x8)\n        /* \"contracts/TetherToken.sol\":5273:5289  _totalSupply.add */\n      tag_235\n      swap1\n        /* \"contracts/TetherToken.sol\":5273:5297  _totalSupply.add(amount) */\n      swap2\n      swap1\n      0xffffffff\n      and\n      jump\t// in\n    tag_236:\n        /* \"contracts/TetherToken.sol\":5258:5270  _totalSupply */\n      0x8\n        /* \"contracts/TetherToken.sol\":5258:5297  _totalSupply = _totalSupply.add(amount) */\n      dup2\n      swap1\n      sstore\n      pop\n        /* \"contracts/TetherToken.sol\":5307:5320  Issue(amount) */\n      0xcb8241adb0c3fdb35b70c24ce35c5eb0c17af7431c99f827d44a445ca624176a\n        /* \"contracts/TetherToken.sol\":5313:5319  amount */\n      dup2\n        /* \"contracts/TetherToken.sol\":5307:5320  Issue(amount) */\n      mload(0x40)\n      dup1\n      dup3\n      dup2\n      mstore\n      0x20\n      add\n      swap2\n      pop\n      pop\n      mload(0x40)\n      dup1\n      swap2\n      sub\n      swap1\n      log1\n        /* \"contracts/TetherToken.sol\":5351:5356  owner */\n      0x2\n      0x0\n      swap1\n      sload\n      swap1\n      0x100\n      exp\n      swap1\n      div\n      0xffffffffffffffffffffffffffffffffffffffff\n      and\n        /* \"contracts/TetherToken.sol\":5330:5365  Transfer(address(0), owner, amount) */\n      0xffffffffffffffffffffffffffffffffffffffff\n      and\n        /* \"contracts/TetherToken.sol\":5347:5348  0 */\n      0x0\n        /* \"contracts/TetherToken.sol\":5330:5365  Transfer(address(0), owner, amount) */\n      0xffffffffffffffffffffffffffffffffffffffff\n      and\n      0xddf252ad1be2c89b69c2b068fc378daa952ba7f163c4a11628f55a4df523b3ef\n        /* \"contracts/TetherToken.sol\":5358:5364  amount */\n      dup4\n        /* \"contracts/TetherToken.sol\":5330:5365  Transfer(address(0), owner, amount) */\n      mload(0x40)\n      dup1\n      dup3\n      dup2\n      mstore\n      0x20\n      add\n      swap2\n      pop\n      pop\n      mload(0x40)\n      dup1\n      swap2\n      sub\n      swap1\n      log3\n        /* \"contracts/TetherToken.sol\":5148:5372  function issue(uint amount) public onlyOwner {... */\n      pop\n      jump\t// out\n        /* \"contracts/TetherToken.sol\":3350:3693  function increaseApproval(address _spender, uint _addedValue) public whenNotPaused returns (bool) {... */\n    tag_117:\n        /* \"contracts/TetherToken.sol\":3442:3446  bool */\n      0x0\n        /* \"contracts/Pausable.sol\":421:427  paused */\n      0x2\n      0x14\n      swap1\n      sload\n      swap1\n      0x100\n      exp\n      swap1\n      div\n      0xff\n      and\n        /* \"contracts/Pausable.sol\":420:427  !paused */\n      iszero\n        /* \"contracts/Pausable.sol\":412:428  require(!paused) */\n      iszero\n      iszero\n      tag_238\n      jumpi\n      0x0\n      dup1\n      revert\n    tag_238:\n        /* \"contracts/TetherToken.sol\":3462:3472  deprecated */\n      0xa\n      0x14\n      swap1\n      sload\n      swap1\n      0x100\n      exp\n      swap1\n      div\n      0xff\n      and\n        /* \"contracts/TetherToken.sol\":3458:3687  if (deprecated) {... */\n      iszero\n      tag_240\n      jumpi\n        /* \"contracts/TetherToken.sol\":3517:3532  upgradedAddress */\n      0xa\n      0x0\n      swap1\n      sload\n      swap1\n      0x100\n      exp\n      swap1\n      div\n      0xffffffffffffffffffffffffffffffffffffffff\n      and\n        /* \"contracts/TetherToken.sol\":3495:3558  UpgradedStandardToken(upgradedAddress).increaseApprovalByLegacy */\n      0xffffffffffffffffffffffffffffffffffffffff\n      and\n      0xa9538157\n        /* \"contracts/TetherToken.sol\":3559:3569  msg.sender */\n      caller\n        /* \"contracts/TetherToken.sol\":3571:3579  _spender */\n      dup6\n        /* \"contracts/TetherToken.sol\":3581:3592  _addedValue */\n      dup6\n        /* \"contracts/TetherToken.sol\":3495:3593  UpgradedStandardToken(upgradedAddress).increaseApprovalByLegacy(msg.sender, _spender, _addedValue) */\n      mstore(add(0x20, mload(0x40)), 0x0)\n      mload(0x40)\n      dup5\n      0xffffffff\n      and\n      0x100000000000000000000000000000000000000000000000000000000\n      mul\n      dup2\n      mstore\n      0x4\n      add\n      dup1\n      dup5\n      0xffffffffffffffffffffffffffffffffffffffff\n      and\n      0xffffffffffffffffffffffffffffffffffffffff\n      and\n      dup2\n      mstore\n      0x20\n      add\n      dup4\n      0xffffffffffffffffffffffffffffffffffffffff\n      and\n      0xffffffffffffffffffffffffffffffffffffffff\n      and\n      dup2\n      mstore\n      0x20\n      add\n      dup3\n      dup2\n      mstore\n      0x20\n      add\n      swap4\n      pop\n      pop\n      pop\n      pop\n      0x20\n      mload(0x40)\n      dup1\n      dup4\n      sub\n      dup2\n      0x0\n      dup8\n      dup1\n      extcodesize\n      iszero\n      iszero\n      tag_241\n      jumpi\n      0x0\n      dup1\n      revert\n    tag_241:\n      sub(gas, 0x2c6)\n      call\n      iszero\n      iszero\n      tag_242\n      jumpi\n      0x0\n      dup1\n      revert\n    tag_242:\n      pop\n      pop\n      pop\n      mload(0x40)\n      dup1\n      mload\n      swap1\n      pop\n        /* \"contracts/TetherToken.sol\":3488:3593  return UpgradedStandardToken(upgradedAddress).increaseApprovalByLegacy(msg.sender, _spender, _addedValue) */\n      swap1\n      pop\n      jump(tag_239)\n        /* \"contracts/TetherToken.sol\":3458:3687  if (deprecated) {... */\n    tag_240:\n        /* \"contracts/TetherToken.sol\":3631:3676  super.increaseApproval(_spender, _addedValue) */\n      tag_244\n        /* \"contracts/TetherToken.sol\":3654:3662  _spender */\n      dup4\n        /* \"contracts/TetherToken.sol\":3664:3675  _addedValue */\n      dup4\n        /* \"contracts/TetherToken.sol\":3631:3653  super.increaseApproval */\n      tag_245\n        /* \"contracts/TetherToken.sol\":3631:3676  super.increaseApproval(_spender, _addedValue) */\n      jump\t// in\n    tag_244:\n        /* \"contracts/TetherToken.sol\":3624:3676  return super.increaseApproval(_spender, _addedValue) */\n      swap1\n      pop\n        /* \"contracts/Pausable.sol\":438:439  _ */\n    tag_239:\n        /* \"contracts/TetherToken.sol\":3350:3693  function increaseApproval(address _spender, uint _addedValue) public whenNotPaused returns (bool) {... */\n      swap3\n      swap2\n      pop\n      pop\n      jump\t// out\n        /* \"contracts/TetherToken.sol\":5596:5822  function redeem(uint amount) public onlyOwner {... */\n    tag_120:\n        /* \"contracts/Ownable.sol\":680:685  owner */\n      0x2\n      0x0\n      swap1\n      sload\n      swap1\n      0x100\n      exp\n      swap1\n      div\n      0xffffffffffffffffffffffffffffffffffffffff\n      and\n        /* \"contracts/Ownable.sol\":666:685  msg.sender == owner */\n      0xffffffffffffffffffffffffffffffffffffffff\n      and\n        /* \"contracts/Ownable.sol\":666:676  msg.sender */\n      caller\n        /* \"contracts/Ownable.sol\":666:685  msg.sender == owner */\n      0xffffffffffffffffffffffffffffffffffffffff\n      and\n      eq\n        /* \"contracts/Ownable.sol\":658:686  require(msg.sender == owner) */\n      iszero\n      iszero\n      tag_247\n      jumpi\n      0x0\n      dup1\n      revert\n    tag_247:\n        /* \"contracts/TetherToken.sol\":5667:5691  _totalSupply.sub(amount) */\n      tag_249\n        /* \"contracts/TetherToken.sol\":5684:5690  amount */\n      dup2\n        /* \"contracts/TetherToken.sol\":5667:5679  _totalSupply */\n      sload(0x8)\n        /* \"contracts/TetherToken.sol\":5667:5683  _totalSupply.sub */\n      tag_250\n      swap1\n        /* \"contracts/TetherToken.sol\":5667:5691  _totalSupply.sub(amount) */\n      swap2\n      swap1\n      0xffffffff\n      and\n      jump\t// in\n    tag_249:\n        /* \"contracts/TetherToken.sol\":5652:5664  _totalSupply */\n      0x8\n        /* \"contracts/TetherToken.sol\":5652:5691  _totalSupply = _totalSupply.sub(amount) */\n      dup2\n      swap1\n      sstore\n      pop\n        /* \"contracts/TetherToken.sol\":5719:5746  balances[owner].sub(amount) */\n      tag_251\n        /* \"contracts/TetherToken.sol\":5739:5745  amount */\n      dup2\n        /* \"contracts/TetherToken.sol\":5719:5727  balances */\n      0x0\n        /* \"contracts/TetherToken.sol\":5719:5734  balances[owner] */\n      dup1\n        /* \"contracts/TetherToken.sol\":5728:5733  owner */\n      0x2\n      0x0\n      swap1\n      sload\n      swap1\n      0x100\n      exp\n      swap1\n      div\n      0xffffffffffffffffffffffffffffffffffffffff\n      and\n        /* \"contracts/TetherToken.sol\":5719:5734  balances[owner] */\n      0xffffffffffffffffffffffffffffffffffffffff\n      and\n      0xffffffffffffffffffffffffffffffffffffffff\n      and\n      dup2\n      mstore\n      0x20\n      add\n      swap1\n      dup2\n      mstore\n      0x20\n      add\n      0x0\n      keccak256\n      sload\n        /* \"contracts/TetherToken.sol\":5719:5738  balances[owner].sub */\n      tag_250\n      swap1\n        /* \"contracts/TetherToken.sol\":5719:5746  balances[owner].sub(amount) */\n      swap2\n      swap1\n      0xffffffff\n      and\n      jump\t// in\n    tag_251:\n        /* \"contracts/TetherToken.sol\":5701:5709  balances */\n      0x0\n        /* \"contracts/TetherToken.sol\":5701:5716  balances[owner] */\n      dup1\n        /* \"contracts/TetherToken.sol\":5710:5715  owner */\n      0x2\n      0x0\n      swap1\n      sload\n      swap1\n      0x100\n      exp\n      swap1\n      div\n      0xffffffffffffffffffffffffffffffffffffffff\n      and\n        /* \"contracts/TetherToken.sol\":5701:5716  balances[owner] */\n      0xffffffffffffffffffffffffffffffffffffffff\n      and\n      0xffffffffffffffffffffffffffffffffffffffff\n      and\n      dup2\n      mstore\n      0x20\n      add\n      swap1\n      dup2\n      mstore\n      0x20\n      add\n      0x0\n      keccak256\n        /* \"contracts/TetherToken.sol\":5701:5746  balances[owner] = balances[owner].sub(amount) */\n      dup2\n      swap1\n      sstore\n      pop\n        /* \"contracts/TetherToken.sol\":5756:5770  Redeem(amount) */\n      0x702d5967f45f6513a38ffc42d6ba9bf230bd40e8f53b16363c7eb4fd2deb9a44\n        /* \"contracts/TetherToken.sol\":5763:5769  amount */\n      dup2\n        /* \"contracts/TetherToken.sol\":5756:5770  Redeem(amount) */\n      mload(0x40)\n      dup1\n      dup3\n      dup2\n      mstore\n      0x20\n      add\n      swap2\n      pop\n      pop\n      mload(0x40)\n      dup1\n      swap2\n      sub\n      swap1\n      log1\n        /* \"contracts/TetherToken.sol\":5804:5805  0 */\n      0x0\n        /* \"contracts/TetherToken.sol\":5780:5815  Transfer(owner, address(0), amount) */\n      0xffffffffffffffffffffffffffffffffffffffff\n      and\n        /* \"contracts/TetherToken.sol\":5789:5794  owner */\n      0x2\n      0x0\n      swap1\n      sload\n      swap1\n      0x100\n      exp\n      swap1\n      div\n      0xffffffffffffffffffffffffffffffffffffffff\n      and\n        /* \"contracts/TetherToken.sol\":5780:5815  Transfer(owner, address(0), amount) */\n      0xffffffffffffffffffffffffffffffffffffffff\n      and\n      0xddf252ad1be2c89b69c2b068fc378daa952ba7f163c4a11628f55a4df523b3ef\n        /* \"contracts/TetherToken.sol\":5808:5814  amount */\n      dup4\n        /* \"contracts/TetherToken.sol\":5780:5815  Transfer(owner, address(0), amount) */\n      mload(0x40)\n      dup1\n      dup3\n      dup2\n      mstore\n      0x20\n      add\n      swap2\n      pop\n      pop\n      mload(0x40)\n      dup1\n      swap2\n      sub\n      swap1\n      log3\n        /* \"contracts/TetherToken.sol\":5596:5822  function redeem(uint amount) public onlyOwner {... */\n      pop\n      jump\t// out\n        /* \"contracts/TetherToken.sol\":4139:4426  function allowance(address _owner, address _spender) public constant returns (uint remaining) {... */\n    tag_123:\n        /* \"contracts/TetherToken.sol\":4217:4231  uint remaining */\n      0x0\n        /* \"contracts/TetherToken.sol\":4247:4257  deprecated */\n      0xa\n      0x14\n      swap1\n      sload\n      swap1\n      0x100\n      exp\n      swap1\n      div\n      0xff\n      and\n        /* \"contracts/TetherToken.sol\":4243:4420  if (deprecated) {... */\n      iszero\n      tag_253\n      jumpi\n        /* \"contracts/TetherToken.sol\":4294:4309  upgradedAddress */\n      0xa\n      0x0\n      swap1\n      sload\n      swap1\n      0x100\n      exp\n      swap1\n      div\n      0xffffffffffffffffffffffffffffffffffffffff\n      and\n        /* \"contracts/TetherToken.sol\":4280:4320  StandardToken(upgradedAddress).allowance */\n      0xffffffffffffffffffffffffffffffffffffffff\n      and\n      0xdd62ed3e\n        /* \"contracts/TetherToken.sol\":4321:4327  _owner */\n      dup5\n        /* \"contracts/TetherToken.sol\":4329:4337  _spender */\n      dup5\n        /* \"contracts/TetherToken.sol\":4280:4338  StandardToken(upgradedAddress).allowance(_owner, _spender) */\n      mstore(add(0x20, mload(0x40)), 0x0)\n      mload(0x40)\n      dup4\n      0xffffffff\n      and\n      0x100000000000000000000000000000000000000000000000000000000\n      mul\n      dup2\n      mstore\n      0x4\n      add\n      dup1\n      dup4\n      0xffffffffffffffffffffffffffffffffffffffff\n      and\n      0xffffffffffffffffffffffffffffffffffffffff\n      and\n      dup2\n      mstore\n      0x20\n      add\n      dup3\n      0xffffffffffffffffffffffffffffffffffffffff\n      and\n      0xffffffffffffffffffffffffffffffffffffffff\n      and\n      dup2\n      mstore\n      0x20\n      add\n      swap3\n      pop\n      pop\n      pop\n      0x20\n      mload(0x40)\n      dup1\n      dup4\n      sub\n      dup2\n      0x0\n      dup8\n      dup1\n      extcodesize\n      iszero\n      iszero\n      tag_254\n      jumpi\n      0x0\n      dup1\n      revert\n    tag_254:\n      sub(gas, 0x2c6)\n      call\n      iszero\n      iszero\n      tag_255\n      jumpi\n      0x0\n      dup1\n      revert\n    tag_255:\n      pop\n      pop\n      pop\n      mload(0x40)\n      dup1\n      mload\n      swap1\n      pop\n        /* \"contracts/TetherToken.sol\":4273:4338  return StandardToken(upgradedAddress).allowance(_owner, _spender) */\n      swap1\n      pop\n      jump(tag_252)\n        /* \"contracts/TetherToken.sol\":4243:4420  if (deprecated) {... */\n    tag_253:\n        /* \"contracts/TetherToken.sol\":4376:4409  super.allowance(_owner, _spender) */\n      tag_257\n        /* \"contracts/TetherToken.sol\":4392:4398  _owner */\n      dup4\n        /* \"contracts/TetherToken.sol\":4400:4408  _spender */\n      dup4\n        /* \"contracts/TetherToken.sol\":4376:4391  super.allowance */\n      tag_258\n        /* \"contracts/TetherToken.sol\":4376:4409  super.allowance(_owner, _spender) */\n      jump\t// in\n    tag_257:\n        /* \"contracts/TetherToken.sol\":4369:4409  return super.allowance(_owner, _spender) */\n      swap1\n      pop\n        /* \"contracts/TetherToken.sol\":4139:4426  function allowance(address _owner, address _spender) public constant returns (uint remaining) {... */\n    tag_252:\n      swap3\n      swap2\n      pop\n      pop\n      jump\t// out\n        /* \"contracts/StandardTokenWithFees.sol\":223:257  uint256 public basisPointsRate = 0 */\n    tag_126:\n      sload(0x3)\n      dup2\n      jump\t// out\n        /* \"contracts/BlackList.sol\":334:380  mapping (address => bool) public isBlackListed */\n    tag_129:\n      mstore(0x20, 0x9)\n      dup1\n      0x0\n      mstore\n      keccak256(0x0, 0x40)\n      0x0\n      swap2\n      pop\n      sload\n      swap1\n      0x100\n      exp\n      swap1\n      div\n      0xff\n      and\n      dup2\n      jump\t// out\n        /* \"contracts/BlackList.sol\":535:692  function removeBlackList (address _clearedUser) public onlyOwner {... */\n    tag_132:\n        /* \"contracts/Ownable.sol\":680:685  owner */\n      0x2\n      0x0\n      swap1\n      sload\n      swap1\n      0x100\n      exp\n      swap1\n      div\n      0xffffffffffffffffffffffffffffffffffffffff\n      and\n        /* \"contracts/Ownable.sol\":666:685  msg.sender == owner */\n      0xffffffffffffffffffffffffffffffffffffffff\n      and\n        /* \"contracts/Ownable.sol\":666:676  msg.sender */\n      caller\n        /* \"contracts/Ownable.sol\":666:685  msg.sender == owner */\n      0xffffffffffffffffffffffffffffffffffffffff\n      and\n      eq\n        /* \"contracts/Ownable.sol\":658:686  require(msg.sender == owner) */\n      iszero\n      iszero\n      tag_260\n      jumpi\n      0x0\n      dup1\n      revert\n    tag_260:\n        /* \"contracts/BlackList.sol\":640:645  false */\n      0x0\n        /* \"contracts/BlackList.sol\":610:623  isBlackListed */\n      0x9\n        /* \"contracts/BlackList.sol\":610:637  isBlackListed[_clearedUser] */\n      0x0\n        /* \"contracts/BlackList.sol\":624:636  _clearedUser */\n      dup4\n        /* \"contracts/BlackList.sol\":610:637  isBlackListed[_clearedUser] */\n      0xffffffffffffffffffffffffffffffffffffffff\n      and\n      0xffffffffffffffffffffffffffffffffffffffff\n      and\n      dup2\n      mstore\n      0x20\n      add\n      swap1\n      dup2\n      mstore\n      0x20\n      add\n      0x0\n      keccak256\n      0x0\n        /* \"contracts/BlackList.sol\":610:645  isBlackListed[_clearedUser] = false */\n      0x100\n      exp\n      dup2\n      sload\n      dup2\n      0xff\n      mul\n      not\n      and\n      swap1\n      dup4\n      iszero\n      iszero\n      mul\n      or\n      swap1\n      sstore\n      pop\n        /* \"contracts/BlackList.sol\":672:684  _clearedUser */\n      dup1\n        /* \"contracts/BlackList.sol\":655:685  RemovedBlackList(_clearedUser) */\n      0xffffffffffffffffffffffffffffffffffffffff\n      and\n      0xd7e9ec6e6ecd65492dce6bf513cd6867560d49544421d0783ddf06e76c24470c\n      mload(0x40)\n      mload(0x40)\n      dup1\n      swap2\n      sub\n      swap1\n      log2\n        /* \"contracts/BlackList.sol\":535:692  function removeBlackList (address _clearedUser) public onlyOwner {... */\n      pop\n      jump\t// out\n        /* \"contracts/StandardTokenWithFees.sol\":504:546  uint public constant MAX_UINT = 2**256 - 1 */\n    tag_135:\n        /* \"contracts/StandardTokenWithFees.sol\":536:546  2**256 - 1 */\n      0xffffffffffffffffffffffffffffffffffffffffffffffffffffffffffffffff\n        /* \"contracts/StandardTokenWithFees.sol\":504:546  uint public constant MAX_UINT = 2**256 - 1 */\n      dup2\n      jump\t// out\n        /* \"contracts/Ownable.sol\":872:1055  function transferOwnership(address newOwner) public onlyOwner {... */\n    tag_138:\n        /* \"contracts/Ownable.sol\":680:685  owner */\n      0x2\n      0x0\n      swap1\n      sload\n      swap1\n      0x100\n      exp\n      swap1\n      div\n      0xffffffffffffffffffffffffffffffffffffffff\n      and\n        /* \"contracts/Ownable.sol\":666:685  msg.sender == owner */\n      0xffffffffffffffffffffffffffffffffffffffff\n      and\n        /* \"contracts/Ownable.sol\":666:676  msg.sender */\n      caller\n        /* \"contracts/Ownable.sol\":666:685  msg.sender == owner */\n      0xffffffffffffffffffffffffffffffffffffffff\n      and\n      eq\n        /* \"contracts/Ownable.sol\":658:686  require(msg.sender == owner) */\n      iszero\n      iszero\n      tag_263\n      jumpi\n      0x0\n      dup1\n      revert\n    tag_263:\n        /* \"contracts/Ownable.sol\":972:973  0 */\n      0x0\n        /* \"contracts/Ownable.sol\":952:974  newOwner != address(0) */\n      0xffffffffffffffffffffffffffffffffffffffff\n      and\n        /* \"contracts/Ownable.sol\":952:960  newOwner */\n      dup2\n        /* \"contracts/Ownable.sol\":952:974  newOwner != address(0) */\n      0xffffffffffffffffffffffffffffffffffffffff\n      and\n      eq\n      iszero\n        /* \"contracts/Ownable.sol\":944:975  require(newOwner != address(0)) */\n      iszero\n      iszero\n      tag_265\n      jumpi\n      0x0\n      dup1\n      revert\n    tag_265:\n        /* \"contracts/Ownable.sol\":1013:1021  newOwner */\n      dup1\n        /* \"contracts/Ownable.sol\":985:1022  OwnershipTransferred(owner, newOwner) */\n      0xffffffffffffffffffffffffffffffffffffffff\n      and\n        /* \"contracts/Ownable.sol\":1006:1011  owner */\n      0x2\n      0x0\n      swap1\n      sload\n      swap1\n      0x100\n      exp\n      swap1\n      div\n      0xffffffffffffffffffffffffffffffffffffffff\n      and\n        /* \"contracts/Ownable.sol\":985:1022  OwnershipTransferred(owner, newOwner) */\n      0xffffffffffffffffffffffffffffffffffffffff\n      and\n      0x8be0079c531659141344cd1fd0a4f28419497f9722a3daafe3b4186f6b6457e0\n      mload(0x40)\n      mload(0x40)\n      dup1\n      swap2\n      sub\n      swap1\n      log3\n        /* \"contracts/Ownable.sol\":1040:1048  newOwner */\n      dup1\n        /* \"contracts/Ownable.sol\":1032:1037  owner */\n      0x2\n      0x0\n        /* \"contracts/Ownable.sol\":1032:1048  owner = newOwner */\n      0x100\n      exp\n      dup2\n      sload\n      dup2\n      0xffffffffffffffffffffffffffffffffffffffff\n      mul\n      not\n      and\n      swap1\n      dup4\n      0xffffffffffffffffffffffffffffffffffffffff\n      and\n      mul\n      or\n      swap1\n      sstore\n      pop\n        /* \"contracts/Ownable.sol\":872:1055  function transferOwnership(address newOwner) public onlyOwner {... */\n      pop\n      jump\t// out\n        /* \"contracts/TetherToken.sol\":5828:6163  function destroyBlackFunds (address _blackListedUser) public onlyOwner {... */\n    tag_141:\n        /* \"contracts/TetherToken.sol\":5959:5974  uint dirtyFunds */\n      0x0\n        /* \"contracts/Ownable.sol\":680:685  owner */\n      0x2\n      0x0\n      swap1\n      sload\n      swap1\n      0x100\n      exp\n      swap1\n      div\n      0xffffffffffffffffffffffffffffffffffffffff\n      and\n        /* \"contracts/Ownable.sol\":666:685  msg.sender == owner */\n      0xffffffffffffffffffffffffffffffffffffffff\n      and\n        /* \"contracts/Ownable.sol\":666:676  msg.sender */\n      caller\n        /* \"contracts/Ownable.sol\":666:685  msg.sender == owner */\n      0xffffffffffffffffffffffffffffffffffffffff\n      and\n      eq\n        /* \"contracts/Ownable.sol\":658:686  require(msg.sender == owner) */\n      iszero\n      iszero\n      tag_267\n      jumpi\n      0x0\n      dup1\n      revert\n    tag_267:\n        /* \"contracts/TetherToken.sol\":5917:5930  isBlackListed */\n      0x9\n        /* \"contracts/TetherToken.sol\":5917:5948  isBlackListed[_blackListedUser] */\n      0x0\n        /* \"contracts/TetherToken.sol\":5931:5947  _blackListedUser */\n      dup4\n        /* \"contracts/TetherToken.sol\":5917:5948  isBlackListed[_blackListedUser] */\n      0xffffffffffffffffffffffffffffffffffffffff\n      and\n      0xffffffffffffffffffffffffffffffffffffffff\n      and\n      dup2\n      mstore\n      0x20\n      add\n      swap1\n      dup2\n      mstore\n      0x20\n      add\n      0x0\n      keccak256\n      0x0\n      swap1\n      sload\n      swap1\n      0x100\n      exp\n      swap1\n      div\n      0xff\n      and\n        /* \"contracts/TetherToken.sol\":5909:5949  require(isBlackListed[_blackListedUser]) */\n      iszero\n      iszero\n      tag_269\n      jumpi\n      0x0\n      dup1\n      revert\n    tag_269:\n        /* \"contracts/TetherToken.sol\":5977:6004  balanceOf(_blackListedUser) */\n      tag_270\n        /* \"contracts/TetherToken.sol\":5987:6003  _blackListedUser */\n      dup3\n        /* \"contracts/TetherToken.sol\":5977:5986  balanceOf */\n      tag_86\n        /* \"contracts/TetherToken.sol\":5977:6004  balanceOf(_blackListedUser) */\n      jump\t// in\n    tag_270:\n        /* \"contracts/TetherToken.sol\":5959:6004  uint dirtyFunds = balanceOf(_blackListedUser) */\n      swap1\n      pop\n        /* \"contracts/TetherToken.sol\":6043:6044  0 */\n      0x0\n        /* \"contracts/TetherToken.sol\":6014:6022  balances */\n      dup1\n        /* \"contracts/TetherToken.sol\":6014:6040  balances[_blackListedUser] */\n      0x0\n        /* \"contracts/TetherToken.sol\":6023:6039  _blackListedUser */\n      dup5\n        /* \"contracts/TetherToken.sol\":6014:6040  balances[_blackListedUser] */\n      0xffffffffffffffffffffffffffffffffffffffff\n      and\n      0xffffffffffffffffffffffffffffffffffffffff\n      and\n      dup2\n      mstore\n      0x20\n      add\n      swap1\n      dup2\n      mstore\n      0x20\n      add\n      0x0\n      keccak256\n        /* \"contracts/TetherToken.sol\":6014:6044  balances[_blackListedUser] = 0 */\n      dup2\n      swap1\n      sstore\n      pop\n        /* \"contracts/TetherToken.sol\":6069:6097  _totalSupply.sub(dirtyFunds) */\n      tag_271\n        /* \"contracts/TetherToken.sol\":6086:6096  dirtyFunds */\n      dup2\n        /* \"contracts/TetherToken.sol\":6069:6081  _totalSupply */\n      sload(0x8)\n        /* \"contracts/TetherToken.sol\":6069:6085  _totalSupply.sub */\n      tag_250\n      swap1\n        /* \"contracts/TetherToken.sol\":6069:6097  _totalSupply.sub(dirtyFunds) */\n      swap2\n      swap1\n      0xffffffff\n      and\n      jump\t// in\n    tag_271:\n        /* \"contracts/TetherToken.sol\":6054:6066  _totalSupply */\n      0x8\n        /* \"contracts/TetherToken.sol\":6054:6097  _totalSupply = _totalSupply.sub(dirtyFunds) */\n      dup2\n      swap1\n      sstore\n      pop\n        /* \"contracts/TetherToken.sol\":6127:6143  _blackListedUser */\n      dup2\n        /* \"contracts/TetherToken.sol\":6107:6156  DestroyedBlackFunds(_blackListedUser, dirtyFunds) */\n      0xffffffffffffffffffffffffffffffffffffffff\n      and\n      0x61e6e66b0d6339b2980aecc6ccc0039736791f0ccde9ed512e789a7fbdd698c6\n        /* \"contracts/TetherToken.sol\":6145:6155  dirtyFunds */\n      dup3\n        /* \"contracts/TetherToken.sol\":6107:6156  DestroyedBlackFunds(_blackListedUser, dirtyFunds) */\n      mload(0x40)\n      dup1\n      dup3\n      dup2\n      mstore\n      0x20\n      add\n      swap2\n      pop\n      pop\n      mload(0x40)\n      dup1\n      swap2\n      sub\n      swap1\n      log2\n        /* \"contracts/TetherToken.sol\":5828:6163  function destroyBlackFunds (address _blackListedUser) public onlyOwner {... */\n      pop\n      pop\n      jump\t// out\n        /* \"contracts/StandardToken.sol\":2283:2480  function approve(address _spender, uint256 _value) public returns (bool) {... */\n    tag_157:\n        /* \"contracts/StandardToken.sol\":2350:2354  bool */\n      0x0\n        /* \"contracts/StandardToken.sol\":2398:2404  _value */\n      dup2\n        /* \"contracts/StandardToken.sol\":2366:2373  allowed */\n      0x1\n        /* \"contracts/StandardToken.sol\":2366:2385  allowed[msg.sender] */\n      0x0\n        /* \"contracts/StandardToken.sol\":2374:2384  msg.sender */\n      caller\n        /* \"contracts/StandardToken.sol\":2366:2385  allowed[msg.sender] */\n      0xffffffffffffffffffffffffffffffffffffffff\n      and\n      0xffffffffffffffffffffffffffffffffffffffff\n      and\n      dup2\n      mstore\n      0x20\n      add\n      swap1\n      dup2\n      mstore\n      0x20\n      add\n      0x0\n      keccak256\n        /* \"contracts/StandardToken.sol\":2366:2395  allowed[msg.sender][_spender] */\n      0x0\n        /* \"contracts/StandardToken.sol\":2386:2394  _spender */\n      dup6\n        /* \"contracts/StandardToken.sol\":2366:2395  allowed[msg.sender][_spender] */\n      0xffffffffffffffffffffffffffffffffffffffff\n      and\n      0xffffffffffffffffffffffffffffffffffffffff\n      and\n      dup2\n      mstore\n      0x20\n      add\n      swap1\n      dup2\n      mstore\n      0x20\n      add\n      0x0\n      keccak256\n        /* \"contracts/StandardToken.sol\":2366:2404  allowed[msg.sender][_spender] = _value */\n      dup2\n      swap1\n      sstore\n      pop\n        /* \"contracts/StandardToken.sol\":2435:2443  _spender */\n      dup3\n        /* \"contracts/StandardToken.sol\":2414:2452  Approval(msg.sender, _spender, _value) */\n      0xffffffffffffffffffffffffffffffffffffffff\n      and\n        /* \"contracts/StandardToken.sol\":2423:2433  msg.sender */\n      caller\n        /* \"contracts/StandardToken.sol\":2414:2452  Approval(msg.sender, _spender, _value) */\n      0xffffffffffffffffffffffffffffffffffffffff\n      and\n      0x8c5be1e5ebec7d5bd14f71427d1e84f3dd0314c0f7b2291e5b200ac8c7c3b925\n        /* \"contracts/StandardToken.sol\":2445:2451  _value */\n      dup5\n        /* \"contracts/StandardToken.sol\":2414:2452  Approval(msg.sender, _spender, _value) */\n      mload(0x40)\n      dup1\n      dup3\n      dup2\n      mstore\n      0x20\n      add\n      swap2\n      pop\n      pop\n      mload(0x40)\n      dup1\n      swap2\n      sub\n      swap1\n      log3\n        /* \"contracts/StandardToken.sol\":2469:2473  true */\n      0x1\n        /* \"contracts/StandardToken.sol\":2462:2473  return true */\n      swap1\n      pop\n        /* \"contracts/StandardToken.sol\":2283:2480  function approve(address _spender, uint256 _value) public returns (bool) {... */\n      swap3\n      swap2\n      pop\n      pop\n      jump\t// out\n        /* \"contracts/StandardTokenWithFees.sol\":1046:1804  function transferFrom(address _from, address _to, uint256 _value) public returns (bool) {... */\n    tag_175:\n        /* \"contracts/StandardTokenWithFees.sol\":1128:1132  bool */\n      0x0\n        /* \"contracts/StandardTokenWithFees.sol\":1280:1288  uint fee */\n      dup1\n        /* \"contracts/StandardTokenWithFees.sol\":1316:1331  uint sendAmount */\n      0x0\n        /* \"contracts/StandardTokenWithFees.sol\":1167:1168  0 */\n      dup1\n        /* \"contracts/StandardTokenWithFees.sol\":1152:1169  _to != address(0) */\n      0xffffffffffffffffffffffffffffffffffffffff\n      and\n        /* \"contracts/StandardTokenWithFees.sol\":1152:1155  _to */\n      dup6\n        /* \"contracts/StandardTokenWithFees.sol\":1152:1169  _to != address(0) */\n      0xffffffffffffffffffffffffffffffffffffffff\n      and\n      eq\n      iszero\n        /* \"contracts/StandardTokenWithFees.sol\":1144:1170  require(_to != address(0)) */\n      iszero\n      iszero\n      tag_274\n      jumpi\n      0x0\n      dup1\n      revert\n    tag_274:\n        /* \"contracts/StandardTokenWithFees.sol\":1198:1206  balances */\n      0x0\n        /* \"contracts/StandardTokenWithFees.sol\":1198:1213  balances[_from] */\n      dup1\n        /* \"contracts/StandardTokenWithFees.sol\":1207:1212  _from */\n      dup8\n        /* \"contracts/StandardTokenWithFees.sol\":1198:1213  balances[_from] */\n      0xffffffffffffffffffffffffffffffffffffffff\n      and\n      0xffffffffffffffffffffffffffffffffffffffff\n      and\n      dup2\n      mstore\n      0x20\n      add\n      swap1\n      dup2\n      mstore\n      0x20\n      add\n      0x0\n      keccak256\n      sload\n        /* \"contracts/StandardTokenWithFees.sol\":1188:1194  _value */\n      dup5\n        /* \"contracts/StandardTokenWithFees.sol\":1188:1213  _value <= balances[_from] */\n      gt\n      iszero\n        /* \"contracts/StandardTokenWithFees.sol\":1180:1214  require(_value <= balances[_from]) */\n      iszero\n      iszero\n      tag_275\n      jumpi\n      0x0\n      dup1\n      revert\n    tag_275:\n        /* \"contracts/StandardTokenWithFees.sol\":1242:1249  allowed */\n      0x1\n        /* \"contracts/StandardTokenWithFees.sol\":1242:1256  allowed[_from] */\n      0x0\n        /* \"contracts/StandardTokenWithFees.sol\":1250:1255  _from */\n      dup8\n        /* \"contracts/StandardTokenWithFees.sol\":1242:1256  allowed[_from] */\n      0xffffffffffffffffffffffffffffffffffffffff\n      and\n      0xffffffffffffffffffffffffffffffffffffffff\n      and\n      dup2\n      mstore\n      0x20\n      add\n      swap1\n      dup2\n      mstore\n      0x20\n      add\n      0x0\n      keccak256\n        /* \"contracts/StandardTokenWithFees.sol\":1242:1268  allowed[_from][msg.sender] */\n      0x0\n        /* \"contracts/StandardTokenWithFees.sol\":1257:1267  msg.sender */\n      caller\n        /* \"contracts/StandardTokenWithFees.sol\":1242:1268  allowed[_from][msg.sender] */\n      0xffffffffffffffffffffffffffffffffffffffff\n      and\n      0xffffffffffffffffffffffffffffffffffffffff\n      and\n      dup2\n      mstore\n      0x20\n      add\n      swap1\n      dup2\n      mstore\n      0x20\n      add\n      0x0\n      keccak256\n      sload\n        /* \"contracts/StandardTokenWithFees.sol\":1232:1238  _value */\n      dup5\n        /* \"contracts/StandardTokenWithFees.sol\":1232:1268  _value <= allowed[_from][msg.sender] */\n      gt\n      iszero\n        /* \"contracts/StandardTokenWithFees.sol\":1224:1269  require(_value <= allowed[_from][msg.sender]) */\n      iszero\n      iszero\n      tag_276\n      jumpi\n      0x0\n      dup1\n      revert\n    tag_276:\n        /* \"contracts/StandardTokenWithFees.sol\":1291:1306  calcFee(_value) */\n      tag_277\n        /* \"contracts/StandardTokenWithFees.sol\":1299:1305  _value */\n      dup5\n        /* \"contracts/StandardTokenWithFees.sol\":1291:1298  calcFee */\n      tag_89\n        /* \"contracts/StandardTokenWithFees.sol\":1291:1306  calcFee(_value) */\n      jump\t// in\n    tag_277:\n        /* \"contracts/StandardTokenWithFees.sol\":1280:1306  uint fee = calcFee(_value) */\n      swap2\n      pop\n        /* \"contracts/StandardTokenWithFees.sol\":1334:1349  _value.sub(fee) */\n      tag_278\n        /* \"contracts/StandardTokenWithFees.sol\":1345:1348  fee */\n      dup3\n        /* \"contracts/StandardTokenWithFees.sol\":1334:1340  _value */\n      dup6\n        /* \"contracts/StandardTokenWithFees.sol\":1334:1344  _value.sub */\n      tag_250\n      swap1\n        /* \"contracts/StandardTokenWithFees.sol\":1334:1349  _value.sub(fee) */\n      swap2\n      swap1\n      0xffffffff\n      and\n      jump\t// in\n    tag_278:\n        /* \"contracts/StandardTokenWithFees.sol\":1316:1349  uint sendAmount = _value.sub(fee) */\n      swap1\n      pop\n        /* \"contracts/StandardTokenWithFees.sol\":1378:1405  balances[_from].sub(_value) */\n      tag_279\n        /* \"contracts/StandardTokenWithFees.sol\":1398:1404  _value */\n      dup5\n        /* \"contracts/StandardTokenWithFees.sol\":1378:1386  balances */\n      0x0\n        /* \"contracts/StandardTokenWithFees.sol\":1378:1393  balances[_from] */\n      dup1\n        /* \"contracts/StandardTokenWithFees.sol\":1387:1392  _from */\n      dup10\n        /* \"contracts/StandardTokenWithFees.sol\":1378:1393  balances[_from] */\n      0xffffffffffffffffffffffffffffffffffffffff\n      and\n      0xffffffffffffffffffffffffffffffffffffffff\n      and\n      dup2\n      mstore\n      0x20\n      add\n      swap1\n      dup2\n      mstore\n      0x20\n      add\n      0x0\n      keccak256\n      sload\n        /* \"contracts/StandardTokenWithFees.sol\":1378:1397  balances[_from].sub */\n      tag_250\n      swap1\n        /* \"contracts/StandardTokenWithFees.sol\":1378:1405  balances[_from].sub(_value) */\n      swap2\n      swap1\n      0xffffffff\n      and\n      jump\t// in\n    tag_279:\n        /* \"contracts/StandardTokenWithFees.sol\":1360:1368  balances */\n      0x0\n        /* \"contracts/StandardTokenWithFees.sol\":1360:1375  balances[_from] */\n      dup1\n        /* \"contracts/StandardTokenWithFees.sol\":1369:1374  _from */\n      dup9\n        /* \"contracts/StandardTokenWithFees.sol\":1360:1375  balances[_from] */\n      0xffffffffffffffffffffffffffffffffffffffff\n      and\n      0xffffffffffffffffffffffffffffffffffffffff\n      and\n      dup2\n      mstore\n      0x20\n      add\n      swap1\n      dup2\n      mstore\n      0x20\n      add\n      0x0\n      keccak256\n        /* \"contracts/StandardTokenWithFees.sol\":1360:1405  balances[_from] = balances[_from].sub(_value) */\n      dup2\n      swap1\n      sstore\n      pop\n        /* \"contracts/StandardTokenWithFees.sol\":1431:1460  balances[_to].add(sendAmount) */\n      tag_280\n        /* \"contracts/StandardTokenWithFees.sol\":1449:1459  sendAmount */\n      dup2\n        /* \"contracts/StandardTokenWithFees.sol\":1431:1439  balances */\n      0x0\n        /* \"contracts/StandardTokenWithFees.sol\":1431:1444  balances[_to] */\n      dup1\n        /* \"contracts/StandardTokenWithFees.sol\":1440:1443  _to */\n      dup9\n        /* \"contracts/StandardTokenWithFees.sol\":1431:1444  balances[_to] */\n      0xffffffffffffffffffffffffffffffffffffffff\n      and\n      0xffffffffffffffffffffffffffffffffffffffff\n      and\n      dup2\n      mstore\n      0x20\n      add\n      swap1\n      dup2\n      mstore\n      0x20\n      add\n      0x0\n      keccak256\n      sload\n        /* \"contracts/StandardTokenWithFees.sol\":1431:1448  balances[_to].add */\n      tag_235\n      swap1\n        /* \"contracts/StandardTokenWithFees.sol\":1431:1460  balances[_to].add(sendAmount) */\n      swap2\n      swap1\n      0xffffffff\n      and\n      jump\t// in\n    tag_280:\n        /* \"contracts/StandardTokenWithFees.sol\":1415:1423  balances */\n      0x0\n        /* \"contracts/StandardTokenWithFees.sol\":1415:1428  balances[_to] */\n      dup1\n        /* \"contracts/StandardTokenWithFees.sol\":1424:1427  _to */\n      dup8\n        /* \"contracts/StandardTokenWithFees.sol\":1415:1428  balances[_to] */\n      0xffffffffffffffffffffffffffffffffffffffff\n      and\n      0xffffffffffffffffffffffffffffffffffffffff\n      and\n      dup2\n      mstore\n      0x20\n      add\n      swap1\n      dup2\n      mstore\n      0x20\n      add\n      0x0\n      keccak256\n        /* \"contracts/StandardTokenWithFees.sol\":1415:1460  balances[_to] = balances[_to].add(sendAmount) */\n      dup2\n      swap1\n      sstore\n      pop\n        /* \"contracts/StandardTokenWithFees.sol\":536:546  2**256 - 1 */\n      0xffffffffffffffffffffffffffffffffffffffffffffffffffffffffffffffff\n        /* \"contracts/StandardTokenWithFees.sol\":1474:1481  allowed */\n      0x1\n        /* \"contracts/StandardTokenWithFees.sol\":1474:1488  allowed[_from] */\n      0x0\n        /* \"contracts/StandardTokenWithFees.sol\":1482:1487  _from */\n      dup9\n        /* \"contracts/StandardTokenWithFees.sol\":1474:1488  allowed[_from] */\n      0xffffffffffffffffffffffffffffffffffffffff\n      and\n      0xffffffffffffffffffffffffffffffffffffffff\n      and\n      dup2\n      mstore\n      0x20\n      add\n      swap1\n      dup2\n      mstore\n      0x20\n      add\n      0x0\n      keccak256\n        /* \"contracts/StandardTokenWithFees.sol\":1474:1500  allowed[_from][msg.sender] */\n      0x0\n        /* \"contracts/StandardTokenWithFees.sol\":1489:1499  msg.sender */\n      caller\n        /* \"contracts/StandardTokenWithFees.sol\":1474:1500  allowed[_from][msg.sender] */\n      0xffffffffffffffffffffffffffffffffffffffff\n      and\n      0xffffffffffffffffffffffffffffffffffffffff\n      and\n      dup2\n      mstore\n      0x20\n      add\n      swap1\n      dup2\n      mstore\n      0x20\n      add\n      0x0\n      keccak256\n      sload\n        /* \"contracts/StandardTokenWithFees.sol\":1474:1511  allowed[_from][msg.sender] < MAX_UINT */\n      lt\n        /* \"contracts/StandardTokenWithFees.sol\":1470:1605  if (allowed[_from][msg.sender] < MAX_UINT) {... */\n      iszero\n      tag_281\n      jumpi\n        /* \"contracts/StandardTokenWithFees.sol\":1556:1594  allowed[_from][msg.sender].sub(_value) */\n      tag_282\n        /* \"contracts/StandardTokenWithFees.sol\":1587:1593  _value */\n      dup5\n        /* \"contracts/StandardTokenWithFees.sol\":1556:1563  allowed */\n      0x1\n        /* \"contracts/StandardTokenWithFees.sol\":1556:1570  allowed[_from] */\n      0x0\n        /* \"contracts/StandardTokenWithFees.sol\":1564:1569  _from */\n      dup10\n        /* \"contracts/StandardTokenWithFees.sol\":1556:1570  allowed[_from] */\n      0xffffffffffffffffffffffffffffffffffffffff\n      and\n      0xffffffffffffffffffffffffffffffffffffffff\n      and\n      dup2\n      mstore\n      0x20\n      add\n      swap1\n      dup2\n      mstore\n      0x20\n      add\n      0x0\n      keccak256\n        /* \"contracts/StandardTokenWithFees.sol\":1556:1582  allowed[_from][msg.sender] */\n      0x0\n        /* \"contracts/StandardTokenWithFees.sol\":1571:1581  msg.sender */\n      caller\n        /* \"contracts/StandardTokenWithFees.sol\":1556:1582  allowed[_from][msg.sender] */\n      0xffffffffffffffffffffffffffffffffffffffff\n      and\n      0xffffffffffffffffffffffffffffffffffffffff\n      and\n      dup2\n      mstore\n      0x20\n      add\n      swap1\n      dup2\n      mstore\n      0x20\n      add\n      0x0\n      keccak256\n      sload\n        /* \"contracts/StandardTokenWithFees.sol\":1556:1586  allowed[_from][msg.sender].sub */\n      tag_250\n      swap1\n        /* \"contracts/StandardTokenWithFees.sol\":1556:1594  allowed[_from][msg.sender].sub(_value) */\n      swap2\n      swap1\n      0xffffffff\n      and\n      jump\t// in\n    tag_282:\n        /* \"contracts/StandardTokenWithFees.sol\":1527:1534  allowed */\n      0x1\n        /* \"contracts/StandardTokenWithFees.sol\":1527:1541  allowed[_from] */\n      0x0\n        /* \"contracts/StandardTokenWithFees.sol\":1535:1540  _from */\n      dup9\n        /* \"contracts/StandardTokenWithFees.sol\":1527:1541  allowed[_from] */\n      0xffffffffffffffffffffffffffffffffffffffff\n      and\n      0xffffffffffffffffffffffffffffffffffffffff\n      and\n      dup2\n      mstore\n      0x20\n      add\n      swap1\n      dup2\n      mstore\n      0x20\n      add\n      0x0\n      keccak256\n        /* \"contracts/StandardTokenWithFees.sol\":1527:1553  allowed[_from][msg.sender] */\n      0x0\n        /* \"contracts/StandardTokenWithFees.sol\":1542:1552  msg.sender */\n      caller\n        /* \"contracts/StandardTokenWithFees.sol\":1527:1553  allowed[_from][msg.sender] */\n      0xffffffffffffffffffffffffffffffffffffffff\n      and\n      0xffffffffffffffffffffffffffffffffffffffff\n      and\n      dup2\n      mstore\n      0x20\n      add\n      swap1\n      dup2\n      mstore\n      0x20\n      add\n      0x0\n      keccak256\n        /* \"contracts/StandardTokenWithFees.sol\":1527:1594  allowed[_from][msg.sender] = allowed[_from][msg.sender].sub(_value) */\n      dup2\n      swap1\n      sstore\n      pop\n        /* \"contracts/StandardTokenWithFees.sol\":1470:1605  if (allowed[_from][msg.sender] < MAX_UINT) {... */\n    tag_281:\n        /* \"contracts/StandardTokenWithFees.sol\":1630:1633  _to */\n      dup5\n        /* \"contracts/StandardTokenWithFees.sol\":1614:1646  Transfer(_from, _to, sendAmount) */\n      0xffffffffffffffffffffffffffffffffffffffff\n      and\n        /* \"contracts/StandardTokenWithFees.sol\":1623:1628  _from */\n      dup7\n        /* \"contracts/StandardTokenWithFees.sol\":1614:1646  Transfer(_from, _to, sendAmount) */\n      0xffffffffffffffffffffffffffffffffffffffff\n      and\n      0xddf252ad1be2c89b69c2b068fc378daa952ba7f163c4a11628f55a4df523b3ef\n        /* \"contracts/StandardTokenWithFees.sol\":1635:1645  sendAmount */\n      dup4\n        /* \"contracts/StandardTokenWithFees.sol\":1614:1646  Transfer(_from, _to, sendAmount) */\n      mload(0x40)\n      dup1\n      dup3\n      dup2\n      mstore\n      0x20\n      add\n      swap2\n      pop\n      pop\n      mload(0x40)\n      dup1\n      swap2\n      sub\n      swap1\n      log3\n        /* \"contracts/StandardTokenWithFees.sol\":1666:1667  0 */\n      0x0\n        /* \"contracts/StandardTokenWithFees.sol\":1660:1663  fee */\n      dup3\n        /* \"contracts/StandardTokenWithFees.sol\":1660:1667  fee > 0 */\n      gt\n        /* \"contracts/StandardTokenWithFees.sol\":1656:1777  if (fee > 0) {... */\n      iszero\n      tag_283\n      jumpi\n        /* \"contracts/StandardTokenWithFees.sol\":1701:1725  balances[owner].add(fee) */\n      tag_284\n        /* \"contracts/StandardTokenWithFees.sol\":1721:1724  fee */\n      dup3\n        /* \"contracts/StandardTokenWithFees.sol\":1701:1709  balances */\n      0x0\n        /* \"contracts/StandardTokenWithFees.sol\":1701:1716  balances[owner] */\n      dup1\n        /* \"contracts/StandardTokenWithFees.sol\":1710:1715  owner */\n      0x2\n      0x0\n      swap1\n      sload\n      swap1\n      0x100\n      exp\n      swap1\n      div\n      0xffffffffffffffffffffffffffffffffffffffff\n      and\n        /* \"contracts/StandardTokenWithFees.sol\":1701:1716  balances[owner] */\n      0xffffffffffffffffffffffffffffffffffffffff\n      and\n      0xffffffffffffffffffffffffffffffffffffffff\n      and\n      dup2\n      mstore\n      0x20\n      add\n      swap1\n      dup2\n      mstore\n      0x20\n      add\n      0x0\n      keccak256\n      sload\n        /* \"contracts/StandardTokenWithFees.sol\":1701:1720  balances[owner].add */\n      tag_235\n      swap1\n        /* \"contracts/StandardTokenWithFees.sol\":1701:1725  balances[owner].add(fee) */\n      swap2\n      swap1\n      0xffffffff\n      and\n      jump\t// in\n    tag_284:\n        /* \"contracts/StandardTokenWithFees.sol\":1683:1691  balances */\n      0x0\n        /* \"contracts/StandardTokenWithFees.sol\":1683:1698  balances[owner] */\n      dup1\n        /* \"contracts/StandardTokenWithFees.sol\":1692:1697  owner */\n      0x2\n      0x0\n      swap1\n      sload\n      swap1\n      0x100\n      exp\n      swap1\n      div\n      0xffffffffffffffffffffffffffffffffffffffff\n      and\n        /* \"contracts/StandardTokenWithFees.sol\":1683:1698  balances[owner] */\n      0xffffffffffffffffffffffffffffffffffffffff\n      and\n      0xffffffffffffffffffffffffffffffffffffffff\n      and\n      dup2\n      mstore\n      0x20\n      add\n      swap1\n      dup2\n      mstore\n      0x20\n      add\n      0x0\n      keccak256\n        /* \"contracts/StandardTokenWithFees.sol\":1683:1725  balances[owner] = balances[owner].add(fee) */\n      dup2\n      swap1\n      sstore\n      pop\n        /* \"contracts/StandardTokenWithFees.sol\":1755:1760  owner */\n      0x2\n      0x0\n      swap1\n      sload\n      swap1\n      0x100\n      exp\n      swap1\n      div\n      0xffffffffffffffffffffffffffffffffffffffff\n      and\n        /* \"contracts/StandardTokenWithFees.sol\":1739:1766  Transfer(_from, owner, fee) */\n      0xffffffffffffffffffffffffffffffffffffffff\n      and\n        /* \"contracts/StandardTokenWithFees.sol\":1748:1753  _from */\n      dup7\n        /* \"contracts/StandardTokenWithFees.sol\":1739:1766  Transfer(_from, owner, fee) */\n      0xffffffffffffffffffffffffffffffffffffffff\n      and\n      0xddf252ad1be2c89b69c2b068fc378daa952ba7f163c4a11628f55a4df523b3ef\n        /* \"contracts/StandardTokenWithFees.sol\":1762:1765  fee */\n      dup5\n        /* \"contracts/StandardTokenWithFees.sol\":1739:1766  Transfer(_from, owner, fee) */\n      mload(0x40)\n      dup1\n      dup3\n      dup2\n      mstore\n      0x20\n      add\n      swap2\n      pop\n      pop\n      mload(0x40)\n      dup1\n      swap2\n      sub\n      swap1\n      log3\n        /* \"contracts/StandardTokenWithFees.sol\":1656:1777  if (fee > 0) {... */\n    tag_283:\n        /* \"contracts/StandardTokenWithFees.sol\":1793:1797  true */\n      0x1\n        /* \"contracts/StandardTokenWithFees.sol\":1786:1797  return true */\n      swap3\n      pop\n        /* \"contracts/StandardTokenWithFees.sol\":1046:1804  function transferFrom(address _from, address _to, uint256 _value) public returns (bool) {... */\n      pop\n      pop\n      swap4\n      swap3\n      pop\n      pop\n      pop\n      jump\t// out\n        /* \"contracts/StandardToken.sol\":3468:3904  function decreaseApproval(address _spender, uint _subtractedValue) public returns (bool) {... */\n    tag_190:\n        /* \"contracts/StandardToken.sol\":3551:3555  bool */\n      0x0\n        /* \"contracts/StandardToken.sol\":3567:3580  uint oldValue */\n      dup1\n        /* \"contracts/StandardToken.sol\":3583:3590  allowed */\n      0x1\n        /* \"contracts/StandardToken.sol\":3583:3602  allowed[msg.sender] */\n      0x0\n        /* \"contracts/StandardToken.sol\":3591:3601  msg.sender */\n      caller\n        /* \"contracts/StandardToken.sol\":3583:3602  allowed[msg.sender] */\n      0xffffffffffffffffffffffffffffffffffffffff\n      and\n      0xffffffffffffffffffffffffffffffffffffffff\n      and\n      dup2\n      mstore\n      0x20\n      add\n      swap1\n      dup2\n      mstore\n      0x20\n      add\n      0x0\n      keccak256\n        /* \"contracts/StandardToken.sol\":3583:3612  allowed[msg.sender][_spender] */\n      0x0\n        /* \"contracts/StandardToken.sol\":3603:3611  _spender */\n      dup6\n        /* \"contracts/StandardToken.sol\":3583:3612  allowed[msg.sender][_spender] */\n      0xffffffffffffffffffffffffffffffffffffffff\n      and\n      0xffffffffffffffffffffffffffffffffffffffff\n      and\n      dup2\n      mstore\n      0x20\n      add\n      swap1\n      dup2\n      mstore\n      0x20\n      add\n      0x0\n      keccak256\n      sload\n        /* \"contracts/StandardToken.sol\":3567:3612  uint oldValue = allowed[msg.sender][_spender] */\n      swap1\n      pop\n        /* \"contracts/StandardToken.sol\":3645:3653  oldValue */\n      dup1\n        /* \"contracts/StandardToken.sol\":3626:3642  _subtractedValue */\n      dup4\n        /* \"contracts/StandardToken.sol\":3626:3653  _subtractedValue > oldValue */\n      gt\n        /* \"contracts/StandardToken.sol\":3622:3806  if (_subtractedValue > oldValue) {... */\n      iszero\n      tag_286\n      jumpi\n        /* \"contracts/StandardToken.sol\":3701:3702  0 */\n      0x0\n        /* \"contracts/StandardToken.sol\":3669:3676  allowed */\n      0x1\n        /* \"contracts/StandardToken.sol\":3669:3688  allowed[msg.sender] */\n      0x0\n        /* \"contracts/StandardToken.sol\":3677:3687  msg.sender */\n      caller\n        /* \"contracts/StandardToken.sol\":3669:3688  allowed[msg.sender] */\n      0xffffffffffffffffffffffffffffffffffffffff\n      and\n      0xffffffffffffffffffffffffffffffffffffffff\n      and\n      dup2\n      mstore\n      0x20\n      add\n      swap1\n      dup2\n      mstore\n      0x20\n      add\n      0x0\n      keccak256\n        /* \"contracts/StandardToken.sol\":3669:3698  allowed[msg.sender][_spender] */\n      0x0\n        /* \"contracts/StandardToken.sol\":3689:3697  _spender */\n      dup7\n        /* \"contracts/StandardToken.sol\":3669:3698  allowed[msg.sender][_spender] */\n      0xffffffffffffffffffffffffffffffffffffffff\n      and\n      0xffffffffffffffffffffffffffffffffffffffff\n      and\n      dup2\n      mstore\n      0x20\n      add\n      swap1\n      dup2\n      mstore\n      0x20\n      add\n      0x0\n      keccak256\n        /* \"contracts/StandardToken.sol\":3669:3702  allowed[msg.sender][_spender] = 0 */\n      dup2\n      swap1\n      sstore\n      pop\n        /* \"contracts/StandardToken.sol\":3622:3806  if (_subtractedValue > oldValue) {... */\n      jump(tag_287)\n    tag_286:\n        /* \"contracts/StandardToken.sol\":3765:3795  oldValue.sub(_subtractedValue) */\n      tag_288\n        /* \"contracts/StandardToken.sol\":3778:3794  _subtractedValue */\n      dup4\n        /* \"contracts/StandardToken.sol\":3765:3773  oldValue */\n      dup3\n        /* \"contracts/StandardToken.sol\":3765:3777  oldValue.sub */\n      tag_250\n      swap1\n        /* \"contracts/StandardToken.sol\":3765:3795  oldValue.sub(_subtractedValue) */\n      swap2\n      swap1\n      0xffffffff\n      and\n      jump\t// in\n    tag_288:\n        /* \"contracts/StandardToken.sol\":3733:3740  allowed */\n      0x1\n        /* \"contracts/StandardToken.sol\":3733:3752  allowed[msg.sender] */\n      0x0\n        /* \"contracts/StandardToken.sol\":3741:3751  msg.sender */\n      caller\n        /* \"contracts/StandardToken.sol\":3733:3752  allowed[msg.sender] */\n      0xffffffffffffffffffffffffffffffffffffffff\n      and\n      0xffffffffffffffffffffffffffffffffffffffff\n      and\n      dup2\n      mstore\n      0x20\n      add\n      swap1\n      dup2\n      mstore\n      0x20\n      add\n      0x0\n      keccak256\n        /* \"contracts/StandardToken.sol\":3733:3762  allowed[msg.sender][_spender] */\n      0x0\n        /* \"contracts/StandardToken.sol\":3753:3761  _spender */\n      dup7\n        /* \"contracts/StandardToken.sol\":3733:3762  allowed[msg.sender][_spender] */\n      0xffffffffffffffffffffffffffffffffffffffff\n      and\n      0xffffffffffffffffffffffffffffffffffffffff\n      and\n      dup2\n      mstore\n      0x20\n      add\n      swap1\n      dup2\n      mstore\n      0x20\n      add\n      0x0\n      keccak256\n        /* \"contracts/StandardToken.sol\":3733:3795  allowed[msg.sender][_spender] = oldValue.sub(_subtractedValue) */\n      dup2\n      swap1\n      sstore\n      pop\n        /* \"contracts/StandardToken.sol\":3622:3806  if (_subtractedValue > oldValue) {... */\n    tag_287:\n        /* \"contracts/StandardToken.sol\":3836:3844  _spender */\n      dup4\n        /* \"contracts/StandardToken.sol\":3815:3876  Approval(msg.sender, _spender, allowed[msg.sender][_spender]) */\n      0xffffffffffffffffffffffffffffffffffffffff\n      and\n        /* \"contracts/StandardToken.sol\":3824:3834  msg.sender */\n      caller\n        /* \"contracts/StandardToken.sol\":3815:3876  Approval(msg.sender, _spender, allowed[msg.sender][_spender]) */\n      0xffffffffffffffffffffffffffffffffffffffff\n      and\n      0x8c5be1e5ebec7d5bd14f71427d1e84f3dd0314c0f7b2291e5b200ac8c7c3b925\n        /* \"contracts/StandardToken.sol\":3846:3853  allowed */\n      0x1\n        /* \"contracts/StandardToken.sol\":3846:3865  allowed[msg.sender] */\n      0x0\n        /* \"contracts/StandardToken.sol\":3854:3864  msg.sender */\n      caller\n        /* \"contracts/StandardToken.sol\":3846:3865  allowed[msg.sender] */\n      0xffffffffffffffffffffffffffffffffffffffff\n      and\n      0xffffffffffffffffffffffffffffffffffffffff\n      and\n      dup2\n      mstore\n      0x20\n      add\n      swap1\n      dup2\n      mstore\n      0x20\n      add\n      0x0\n      keccak256\n        /* \"contracts/StandardToken.sol\":3846:3875  allowed[msg.sender][_spender] */\n      0x0\n        /* \"contracts/StandardToken.sol\":3866:3874  _spender */\n      dup9\n        /* \"contracts/StandardToken.sol\":3846:3875  allowed[msg.sender][_spender] */\n      0xffffffffffffffffffffffffffffffffffffffff\n      and\n      0xffffffffffffffffffffffffffffffffffffffff\n      and\n      dup2\n      mstore\n      0x20\n      add\n      swap1\n      dup2\n      mstore\n      0x20\n      add\n      0x0\n      keccak256\n      sload\n        /* \"contracts/StandardToken.sol\":3815:3876  Approval(msg.sender, _spender, allowed[msg.sender][_spender]) */\n      mload(0x40)\n      dup1\n      dup3\n      dup2\n      mstore\n      0x20\n      add\n      swap2\n      pop\n      pop\n      mload(0x40)\n      dup1\n      swap2\n      sub\n      swap1\n      log3\n        /* \"contracts/StandardToken.sol\":3893:3897  true */\n      0x1\n        /* \"contracts/StandardToken.sol\":3886:3897  return true */\n      swap2\n      pop\n        /* \"contracts/StandardToken.sol\":3468:3904  function decreaseApproval(address _spender, uint _subtractedValue) public returns (bool) {... */\n      pop\n      swap3\n      swap2\n      pop\n      pop\n      jump\t// out\n        /* \"contracts/BasicToken.sol\":1458:1571  function balanceOf(address _owner) public view returns (uint256 balance) {... */\n    tag_197:\n        /* \"contracts/BasicToken.sol\":1514:1529  uint256 balance */\n      0x0\n        /* \"contracts/BasicToken.sol\":1548:1556  balances */\n      dup1\n        /* \"contracts/BasicToken.sol\":1548:1564  balances[_owner] */\n      0x0\n        /* \"contracts/BasicToken.sol\":1557:1563  _owner */\n      dup4\n        /* \"contracts/BasicToken.sol\":1548:1564  balances[_owner] */\n      0xffffffffffffffffffffffffffffffffffffffff\n      and\n      0xffffffffffffffffffffffffffffffffffffffff\n      and\n      dup2\n      mstore\n      0x20\n      add\n      swap1\n      dup2\n      mstore\n      0x20\n      add\n      0x0\n      keccak256\n      sload\n        /* \"contracts/BasicToken.sol\":1541:1564  return balances[_owner] */\n      swap1\n      pop\n        /* \"contracts/BasicToken.sol\":1458:1571  function balanceOf(address _owner) public view returns (uint256 balance) {... */\n      swap2\n      swap1\n      pop\n      jump\t// out\n        /* \"contracts/SafeMath.sol\":140:341  function mul(uint256 a, uint256 b) internal pure returns (uint256) {... */\n    tag_201:\n        /* \"contracts/SafeMath.sol\":198:205  uint256 */\n      0x0\n        /* \"contracts/SafeMath.sol\":271:280  uint256 c */\n      dup1\n        /* \"contracts/SafeMath.sol\":226:227  0 */\n      0x0\n        /* \"contracts/SafeMath.sol\":221:222  a */\n      dup5\n        /* \"contracts/SafeMath.sol\":221:227  a == 0 */\n      eq\n        /* \"contracts/SafeMath.sol\":217:262  if (a == 0) {... */\n      iszero\n      tag_291\n      jumpi\n        /* \"contracts/SafeMath.sol\":250:251  0 */\n      0x0\n        /* \"contracts/SafeMath.sol\":243:251  return 0 */\n      swap2\n      pop\n      jump(tag_290)\n        /* \"contracts/SafeMath.sol\":217:262  if (a == 0) {... */\n    tag_291:\n        /* \"contracts/SafeMath.sol\":287:288  b */\n      dup3\n        /* \"contracts/SafeMath.sol\":283:284  a */\n      dup5\n        /* \"contracts/SafeMath.sol\":283:288  a * b */\n      mul\n        /* \"contracts/SafeMath.sol\":271:288  uint256 c = a * b */\n      swap1\n      pop\n        /* \"contracts/SafeMath.sol\":314:315  b */\n      dup3\n        /* \"contracts/SafeMath.sol\":309:310  a */\n      dup5\n        /* \"contracts/SafeMath.sol\":305:306  c */\n      dup3\n        /* \"contracts/SafeMath.sol\":305:310  c / a */\n      dup2\n      iszero\n      iszero\n      tag_292\n      jumpi\n      invalid\n    tag_292:\n      div\n        /* \"contracts/SafeMath.sol\":305:315  c / a == b */\n      eq\n        /* \"contracts/SafeMath.sol\":298:316  assert(c / a == b) */\n      iszero\n      iszero\n      tag_293\n      jumpi\n      invalid\n    tag_293:\n        /* \"contracts/SafeMath.sol\":333:334  c */\n      dup1\n        /* \"contracts/SafeMath.sol\":326:334  return c */\n      swap2\n      pop\n        /* \"contracts/SafeMath.sol\":140:341  function mul(uint256 a, uint256 b) internal pure returns (uint256) {... */\n    tag_290:\n      pop\n      swap3\n      swap2\n      pop\n      pop\n      jump\t// out\n        /* \"contracts/SafeMath.sol\":347:630  function div(uint256 a, uint256 b) internal pure returns (uint256) {... */\n    tag_202:\n        /* \"contracts/SafeMath.sol\":405:412  uint256 */\n      0x0\n        /* \"contracts/SafeMath.sol\":502:511  uint256 c */\n      dup1\n        /* \"contracts/SafeMath.sol\":518:519  b */\n      dup3\n        /* \"contracts/SafeMath.sol\":514:515  a */\n      dup5\n        /* \"contracts/SafeMath.sol\":514:519  a / b */\n      dup2\n      iszero\n      iszero\n      tag_295\n      jumpi\n      invalid\n    tag_295:\n      div\n        /* \"contracts/SafeMath.sol\":502:519  uint256 c = a / b */\n      swap1\n      pop\n        /* \"contracts/SafeMath.sol\":622:623  c */\n      dup1\n        /* \"contracts/SafeMath.sol\":615:623  return c */\n      swap2\n      pop\n        /* \"contracts/SafeMath.sol\":347:630  function div(uint256 a, uint256 b) internal pure returns (uint256) {... */\n      pop\n      swap3\n      swap2\n      pop\n      pop\n      jump\t// out\n        /* \"contracts/StandardTokenWithFees.sol\":773:1040  function transfer(address _to, uint _value) public returns (bool) {... */\n    tag_221:\n        /* \"contracts/StandardTokenWithFees.sol\":833:837  bool */\n      0x0\n        /* \"contracts/StandardTokenWithFees.sol\":849:857  uint fee */\n      dup1\n        /* \"contracts/StandardTokenWithFees.sol\":885:900  uint sendAmount */\n      0x0\n        /* \"contracts/StandardTokenWithFees.sol\":860:875  calcFee(_value) */\n      tag_297\n        /* \"contracts/StandardTokenWithFees.sol\":868:874  _value */\n      dup5\n        /* \"contracts/StandardTokenWithFees.sol\":860:867  calcFee */\n      tag_89\n        /* \"contracts/StandardTokenWithFees.sol\":860:875  calcFee(_value) */\n      jump\t// in\n    tag_297:\n        /* \"contracts/StandardTokenWithFees.sol\":849:875  uint fee = calcFee(_value) */\n      swap2\n      pop\n        /* \"contracts/StandardTokenWithFees.sol\":903:918  _value.sub(fee) */\n      tag_298\n        /* \"contracts/StandardTokenWithFees.sol\":914:917  fee */\n      dup3\n        /* \"contracts/StandardTokenWithFees.sol\":903:909  _value */\n      dup6\n        /* \"contracts/StandardTokenWithFees.sol\":903:913  _value.sub */\n      tag_250\n      swap1\n        /* \"contracts/StandardTokenWithFees.sol\":903:918  _value.sub(fee) */\n      swap2\n      swap1\n      0xffffffff\n      and\n      jump\t// in\n    tag_298:\n        /* \"contracts/StandardTokenWithFees.sol\":885:918  uint sendAmount = _value.sub(fee) */\n      swap1\n      pop\n        /* \"contracts/StandardTokenWithFees.sol\":929:960  super.transfer(_to, sendAmount) */\n      tag_299\n        /* \"contracts/StandardTokenWithFees.sol\":944:947  _to */\n      dup6\n        /* \"contracts/StandardTokenWithFees.sol\":949:959  sendAmount */\n      dup3\n        /* \"contracts/StandardTokenWithFees.sol\":929:943  super.transfer */\n      tag_300\n        /* \"contracts/StandardTokenWithFees.sol\":929:960  super.transfer(_to, sendAmount) */\n      jump\t// in\n    tag_299:\n      pop\n        /* \"contracts/StandardTokenWithFees.sol\":980:981  0 */\n      0x0\n        /* \"contracts/StandardTokenWithFees.sol\":974:977  fee */\n      dup3\n        /* \"contracts/StandardTokenWithFees.sol\":974:981  fee > 0 */\n      gt\n        /* \"contracts/StandardTokenWithFees.sol\":970:1034  if (fee > 0) {... */\n      iszero\n      tag_301\n      jumpi\n        /* \"contracts/StandardTokenWithFees.sol\":997:1023  super.transfer(owner, fee) */\n      tag_302\n        /* \"contracts/StandardTokenWithFees.sol\":1012:1017  owner */\n      0x2\n      0x0\n      swap1\n      sload\n      swap1\n      0x100\n      exp\n      swap1\n      div\n      0xffffffffffffffffffffffffffffffffffffffff\n      and\n        /* \"contracts/StandardTokenWithFees.sol\":1019:1022  fee */\n      dup4\n        /* \"contracts/StandardTokenWithFees.sol\":997:1011  super.transfer */\n      tag_300\n        /* \"contracts/StandardTokenWithFees.sol\":997:1023  super.transfer(owner, fee) */\n      jump\t// in\n    tag_302:\n      pop\n        /* \"contracts/StandardTokenWithFees.sol\":970:1034  if (fee > 0) {... */\n    tag_301:\n        /* \"contracts/StandardTokenWithFees.sol\":773:1040  function transfer(address _to, uint _value) public returns (bool) {... */\n      pop\n      pop\n      swap3\n      swap2\n      pop\n      pop\n      jump\t// out\n        /* \"contracts/SafeMath.sol\":762:905  function add(uint256 a, uint256 b) internal pure returns (uint256) {... */\n    tag_235:\n        /* \"contracts/SafeMath.sol\":820:827  uint256 */\n      0x0\n        /* \"contracts/SafeMath.sol\":839:848  uint256 c */\n      dup1\n        /* \"contracts/SafeMath.sol\":855:856  b */\n      dup3\n        /* \"contracts/SafeMath.sol\":851:852  a */\n      dup5\n        /* \"contracts/SafeMath.sol\":851:856  a + b */\n      add\n        /* \"contracts/SafeMath.sol\":839:856  uint256 c = a + b */\n      swap1\n      pop\n        /* \"contracts/SafeMath.sol\":878:879  a */\n      dup4\n        /* \"contracts/SafeMath.sol\":873:874  c */\n      dup2\n        /* \"contracts/SafeMath.sol\":873:879  c >= a */\n      lt\n      iszero\n        /* \"contracts/SafeMath.sol\":866:880  assert(c >= a) */\n      iszero\n      iszero\n      tag_304\n      jumpi\n      invalid\n    tag_304:\n        /* \"contracts/SafeMath.sol\":897:898  c */\n      dup1\n        /* \"contracts/SafeMath.sol\":890:898  return c */\n      swap2\n      pop\n        /* \"contracts/SafeMath.sol\":762:905  function add(uint256 a, uint256 b) internal pure returns (uint256) {... */\n      pop\n      swap3\n      swap2\n      pop\n      pop\n      jump\t// out\n        /* \"contracts/StandardToken.sol\":3191:3462  function increaseApproval(address _spender, uint _addedValue) public returns (bool) {... */\n    tag_245:\n        /* \"contracts/StandardToken.sol\":3269:3273  bool */\n      0x0\n        /* \"contracts/StandardToken.sol\":3317:3363  allowed[msg.sender][_spender].add(_addedValue) */\n      tag_306\n        /* \"contracts/StandardToken.sol\":3351:3362  _addedValue */\n      dup3\n        /* \"contracts/StandardToken.sol\":3317:3324  allowed */\n      0x1\n        /* \"contracts/StandardToken.sol\":3317:3336  allowed[msg.sender] */\n      0x0\n        /* \"contracts/StandardToken.sol\":3325:3335  msg.sender */\n      caller\n        /* \"contracts/StandardToken.sol\":3317:3336  allowed[msg.sender] */\n      0xffffffffffffffffffffffffffffffffffffffff\n      and\n      0xffffffffffffffffffffffffffffffffffffffff\n      and\n      dup2\n      mstore\n      0x20\n      add\n      swap1\n      dup2\n      mstore\n      0x20\n      add\n      0x0\n      keccak256\n        /* \"contracts/StandardToken.sol\":3317:3346  allowed[msg.sender][_spender] */\n      0x0\n        /* \"contracts/StandardToken.sol\":3337:3345  _spender */\n      dup7\n        /* \"contracts/StandardToken.sol\":3317:3346  allowed[msg.sender][_spender] */\n      0xffffffffffffffffffffffffffffffffffffffff\n      and\n      0xffffffffffffffffffffffffffffffffffffffff\n      and\n      dup2\n      mstore\n      0x20\n      add\n      swap1\n      dup2\n      mstore\n      0x20\n      add\n      0x0\n      keccak256\n      sload\n        /* \"contracts/StandardToken.sol\":3317:3350  allowed[msg.sender][_spender].add */\n      tag_235\n      swap1\n        /* \"contracts/StandardToken.sol\":3317:3363  allowed[msg.sender][_spender].add(_addedValue) */\n      swap2\n      swap1\n      0xffffffff\n      and\n      jump\t// in\n    tag_306:\n        /* \"contracts/StandardToken.sol\":3285:3292  allowed */\n      0x1\n        /* \"contracts/StandardToken.sol\":3285:3304  allowed[msg.sender] */\n      0x0\n        /* \"contracts/StandardToken.sol\":3293:3303  msg.sender */\n      caller\n        /* \"contracts/StandardToken.sol\":3285:3304  allowed[msg.sender] */\n      0xffffffffffffffffffffffffffffffffffffffff\n      and\n      0xffffffffffffffffffffffffffffffffffffffff\n      and\n      dup2\n      mstore\n      0x20\n      add\n      swap1\n      dup2\n      mstore\n      0x20\n      add\n      0x0\n      keccak256\n        /* \"contracts/StandardToken.sol\":3285:3314  allowed[msg.sender][_spender] */\n      0x0\n        /* \"contracts/StandardToken.sol\":3305:3313  _spender */\n      dup6\n        /* \"contracts/StandardToken.sol\":3285:3314  allowed[msg.sender][_spender] */\n      0xffffffffffffffffffffffffffffffffffffffff\n      and\n      0xffffffffffffffffffffffffffffffffffffffff\n      and\n      dup2\n      mstore\n      0x20\n      add\n      swap1\n      dup2\n      mstore\n      0x20\n      add\n      0x0\n      keccak256\n        /* \"contracts/StandardToken.sol\":3285:3363  allowed[msg.sender][_spender] = allowed[msg.sender][_spender].add(_addedValue) */\n      dup2\n      swap1\n      sstore\n      pop\n        /* \"contracts/StandardToken.sol\":3394:3402  _spender */\n      dup3\n        /* \"contracts/StandardToken.sol\":3373:3434  Approval(msg.sender, _spender, allowed[msg.sender][_spender]) */\n      0xffffffffffffffffffffffffffffffffffffffff\n      and\n        /* \"contracts/StandardToken.sol\":3382:3392  msg.sender */\n      caller\n        /* \"contracts/StandardToken.sol\":3373:3434  Approval(msg.sender, _spender, allowed[msg.sender][_spender]) */\n      0xffffffffffffffffffffffffffffffffffffffff\n      and\n      0x8c5be1e5ebec7d5bd14f71427d1e84f3dd0314c0f7b2291e5b200ac8c7c3b925\n        /* \"contracts/StandardToken.sol\":3404:3411  allowed */\n      0x1\n        /* \"contracts/StandardToken.sol\":3404:3423  allowed[msg.sender] */\n      0x0\n        /* \"contracts/StandardToken.sol\":3412:3422  msg.sender */\n      caller\n        /* \"contracts/StandardToken.sol\":3404:3423  allowed[msg.sender] */\n      0xffffffffffffffffffffffffffffffffffffffff\n      and\n      0xffffffffffffffffffffffffffffffffffffffff\n      and\n      dup2\n      mstore\n      0x20\n      add\n      swap1\n      dup2\n      mstore\n      0x20\n      add\n      0x0\n      keccak256\n        /* \"contracts/StandardToken.sol\":3404:3433  allowed[msg.sender][_spender] */\n      0x0\n        /* \"contracts/StandardToken.sol\":3424:3432  _spender */\n      dup8\n        /* \"contracts/StandardToken.sol\":3404:3433  allowed[msg.sender][_spender] */\n      0xffffffffffffffffffffffffffffffffffffffff\n      and\n      0xffffffffffffffffffffffffffffffffffffffff\n      and\n      dup2\n      mstore\n      0x20\n      add\n      swap1\n      dup2\n      mstore\n      0x20\n      add\n      0x0\n      keccak256\n      sload\n        /* \"contracts/StandardToken.sol\":3373:3434  Approval(msg.sender, _spender, allowed[msg.sender][_spender]) */\n      mload(0x40)\n      dup1\n      dup3\n      dup2\n      mstore\n      0x20\n      add\n      swap2\n      pop\n      pop\n      mload(0x40)\n      dup1\n      swap2\n      sub\n      swap1\n      log3\n        /* \"contracts/StandardToken.sol\":3451:3455  true */\n      0x1\n        /* \"contracts/StandardToken.sol\":3444:3455  return true */\n      swap1\n      pop\n        /* \"contracts/StandardToken.sol\":3191:3462  function increaseApproval(address _spender, uint _addedValue) public returns (bool) {... */\n      swap3\n      swap2\n      pop\n      pop\n      jump\t// out\n        /* \"contracts/SafeMath.sol\":636:756  function sub(uint256 a, uint256 b) internal pure returns (uint256) {... */\n    tag_250:\n        /* \"contracts/SafeMath.sol\":694:701  uint256 */\n      0x0\n        /* \"contracts/SafeMath.sol\":725:726  a */\n      dup3\n        /* \"contracts/SafeMath.sol\":720:721  b */\n      dup3\n        /* \"contracts/SafeMath.sol\":720:726  b <= a */\n      gt\n      iszero\n        /* \"contracts/SafeMath.sol\":713:727  assert(b <= a) */\n      iszero\n      iszero\n      tag_308\n      jumpi\n      invalid\n    tag_308:\n        /* \"contracts/SafeMath.sol\":748:749  b */\n      dup2\n        /* \"contracts/SafeMath.sol\":744:745  a */\n      dup4\n        /* \"contracts/SafeMath.sol\":744:749  a - b */\n      sub\n        /* \"contracts/SafeMath.sol\":737:749  return a - b */\n      swap1\n      pop\n        /* \"contracts/SafeMath.sol\":636:756  function sub(uint256 a, uint256 b) internal pure returns (uint256) {... */\n      swap3\n      swap2\n      pop\n      pop\n      jump\t// out\n        /* \"contracts/StandardToken.sol\":2805:2937  function allowance(address _owner, address _spender) public view returns (uint256) {... */\n    tag_258:\n        /* \"contracts/StandardToken.sol\":2879:2886  uint256 */\n      0x0\n        /* \"contracts/StandardToken.sol\":2905:2912  allowed */\n      0x1\n        /* \"contracts/StandardToken.sol\":2905:2920  allowed[_owner] */\n      0x0\n        /* \"contracts/StandardToken.sol\":2913:2919  _owner */\n      dup5\n        /* \"contracts/StandardToken.sol\":2905:2920  allowed[_owner] */\n      0xffffffffffffffffffffffffffffffffffffffff\n      and\n      0xffffffffffffffffffffffffffffffffffffffff\n      and\n      dup2\n      mstore\n      0x20\n      add\n      swap1\n      dup2\n      mstore\n      0x20\n      add\n      0x0\n      keccak256\n        /* \"contracts/StandardToken.sol\":2905:2930  allowed[_owner][_spender] */\n      0x0\n        /* \"contracts/StandardToken.sol\":2921:2929  _spender */\n      dup4\n        /* \"contracts/StandardToken.sol\":2905:2930  allowed[_owner][_spender] */\n      0xffffffffffffffffffffffffffffffffffffffff\n      and\n      0xffffffffffffffffffffffffffffffffffffffff\n      and\n      dup2\n      mstore\n      0x20\n      add\n      swap1\n      dup2\n      mstore\n      0x20\n      add\n      0x0\n      keccak256\n      sload\n        /* \"contracts/StandardToken.sol\":2898:2930  return allowed[_owner][_spender] */\n      swap1\n      pop\n        /* \"contracts/StandardToken.sol\":2805:2937  function allowance(address _owner, address _spender) public view returns (uint256) {... */\n      swap3\n      swap2\n      pop\n      pop\n      jump\t// out\n        /* \"contracts/BasicToken.sol\":841:1250  function transfer(address _to, uint256 _value) public returns (bool) {... */\n    tag_300:\n        /* \"contracts/BasicToken.sol\":904:908  bool */\n      0x0\n        /* \"contracts/BasicToken.sol\":943:944  0 */\n      dup1\n        /* \"contracts/BasicToken.sol\":928:945  _to != address(0) */\n      0xffffffffffffffffffffffffffffffffffffffff\n      and\n        /* \"contracts/BasicToken.sol\":928:931  _to */\n      dup4\n        /* \"contracts/BasicToken.sol\":928:945  _to != address(0) */\n      0xffffffffffffffffffffffffffffffffffffffff\n      and\n      eq\n      iszero\n        /* \"contracts/BasicToken.sol\":920:946  require(_to != address(0)) */\n      iszero\n      iszero\n      tag_311\n      jumpi\n      0x0\n      dup1\n      revert\n    tag_311:\n        /* \"contracts/BasicToken.sol\":974:982  balances */\n      0x0\n        /* \"contracts/BasicToken.sol\":974:994  balances[msg.sender] */\n      dup1\n        /* \"contracts/BasicToken.sol\":983:993  msg.sender */\n      caller\n        /* \"contracts/BasicToken.sol\":974:994  balances[msg.sender] */\n      0xffffffffffffffffffffffffffffffffffffffff\n      and\n      0xffffffffffffffffffffffffffffffffffffffff\n      and\n      dup2\n      mstore\n      0x20\n      add\n      swap1\n      dup2\n      mstore\n      0x20\n      add\n      0x0\n      keccak256\n      sload\n        /* \"contracts/BasicToken.sol\":964:970  _value */\n      dup3\n        /* \"contracts/BasicToken.sol\":964:994  _value <= balances[msg.sender] */\n      gt\n      iszero\n        /* \"contracts/BasicToken.sol\":956:995  require(_value <= balances[msg.sender]) */\n      iszero\n      iszero\n      tag_312\n      jumpi\n      0x0\n      dup1\n      revert\n    tag_312:\n        /* \"contracts/BasicToken.sol\":1096:1128  balances[msg.sender].sub(_value) */\n      tag_313\n        /* \"contracts/BasicToken.sol\":1121:1127  _value */\n      dup3\n        /* \"contracts/BasicToken.sol\":1096:1104  balances */\n      0x0\n        /* \"contracts/BasicToken.sol\":1096:1116  balances[msg.sender] */\n      dup1\n        /* \"contracts/BasicToken.sol\":1105:1115  msg.sender */\n      caller\n        /* \"contracts/BasicToken.sol\":1096:1116  balances[msg.sender] */\n      0xffffffffffffffffffffffffffffffffffffffff\n      and\n      0xffffffffffffffffffffffffffffffffffffffff\n      and\n      dup2\n      mstore\n      0x20\n      add\n      swap1\n      dup2\n      mstore\n      0x20\n      add\n      0x0\n      keccak256\n      sload\n        /* \"contracts/BasicToken.sol\":1096:1120  balances[msg.sender].sub */\n      tag_250\n      swap1\n        /* \"contracts/BasicToken.sol\":1096:1128  balances[msg.sender].sub(_value) */\n      swap2\n      swap1\n      0xffffffff\n      and\n      jump\t// in\n    tag_313:\n        /* \"contracts/BasicToken.sol\":1073:1081  balances */\n      0x0\n        /* \"contracts/BasicToken.sol\":1073:1093  balances[msg.sender] */\n      dup1\n        /* \"contracts/BasicToken.sol\":1082:1092  msg.sender */\n      caller\n        /* \"contracts/BasicToken.sol\":1073:1093  balances[msg.sender] */\n      0xffffffffffffffffffffffffffffffffffffffff\n      and\n      0xffffffffffffffffffffffffffffffffffffffff\n      and\n      dup2\n      mstore\n      0x20\n      add\n      swap1\n      dup2\n      mstore\n      0x20\n      add\n      0x0\n      keccak256\n        /* \"contracts/BasicToken.sol\":1073:1128  balances[msg.sender] = balances[msg.sender].sub(_value) */\n      dup2\n      swap1\n      sstore\n      pop\n        /* \"contracts/BasicToken.sol\":1154:1179  balances[_to].add(_value) */\n      tag_314\n        /* \"contracts/BasicToken.sol\":1172:1178  _value */\n      dup3\n        /* \"contracts/BasicToken.sol\":1154:1162  balances */\n      0x0\n        /* \"contracts/BasicToken.sol\":1154:1167  balances[_to] */\n      dup1\n        /* \"contracts/BasicToken.sol\":1163:1166  _to */\n      dup7\n        /* \"contracts/BasicToken.sol\":1154:1167  balances[_to] */\n      0xffffffffffffffffffffffffffffffffffffffff\n      and\n      0xffffffffffffffffffffffffffffffffffffffff\n      and\n      dup2\n      mstore\n      0x20\n      add\n      swap1\n      dup2\n      mstore\n      0x20\n      add\n      0x0\n      keccak256\n      sload\n        /* \"contracts/BasicToken.sol\":1154:1171  balances[_to].add */\n      tag_235\n      swap1\n        /* \"contracts/BasicToken.sol\":1154:1179  balances[_to].add(_value) */\n      swap2\n      swap1\n      0xffffffff\n      and\n      jump\t// in\n    tag_314:\n        /* \"contracts/BasicToken.sol\":1138:1146  balances */\n      0x0\n        /* \"contracts/BasicToken.sol\":1138:1151  balances[_to] */\n      dup1\n        /* \"contracts/BasicToken.sol\":1147:1150  _to */\n      dup6\n        /* \"contracts/BasicToken.sol\":1138:1151  balances[_to] */\n      0xffffffffffffffffffffffffffffffffffffffff\n      and\n      0xffffffffffffffffffffffffffffffffffffffff\n      and\n      dup2\n      mstore\n      0x20\n      add\n      swap1\n      dup2\n      mstore\n      0x20\n      add\n      0x0\n      keccak256\n        /* \"contracts/BasicToken.sol\":1138:1179  balances[_to] = balances[_to].add(_value) */\n      dup2\n      swap1\n      sstore\n      pop\n        /* \"contracts/BasicToken.sol\":1210:1213  _to */\n      dup3\n        /* \"contracts/BasicToken.sol\":1189:1222  Transfer(msg.sender, _to, _value) */\n      0xffffffffffffffffffffffffffffffffffffffff\n      and\n        /* \"contracts/BasicToken.sol\":1198:1208  msg.sender */\n      caller\n        /* \"contracts/BasicToken.sol\":1189:1222  Transfer(msg.sender, _to, _value) */\n      0xffffffffffffffffffffffffffffffffffffffff\n      and\n      0xddf252ad1be2c89b69c2b068fc378daa952ba7f163c4a11628f55a4df523b3ef\n        /* \"contracts/BasicToken.sol\":1215:1221  _value */\n      dup5\n        /* \"contracts/BasicToken.sol\":1189:1222  Transfer(msg.sender, _to, _value) */\n      mload(0x40)\n      dup1\n      dup3\n      dup2\n      mstore\n      0x20\n      add\n      swap2\n      pop\n      pop\n      mload(0x40)\n      dup1\n      swap2\n      sub\n      swap1\n      log3\n        /* \"contracts/BasicToken.sol\":1239:1243  true */\n      0x1\n        /* \"contracts/BasicToken.sol\":1232:1243  return true */\n      swap1\n      pop\n        /* \"contracts/BasicToken.sol\":841:1250  function transfer(address _to, uint256 _value) public returns (bool) {... */\n      swap3\n      swap2\n      pop\n      pop\n      jump\t// out\n\n    auxdata: 0xa165627a7a7230582062b421377a5c8851cf0be3a42dd716d1f526bc4937c022462a0c1eae2dbed1b30029\n}\n","bytecode":{"linkReferences":{},"object":"60606040526000600260146101000a81548160ff0219169083151502179055506000600355600060045534156200003557600080fd5b604051620036b4380380620036b48339810160405280805190602001909190805182019190602001805182019190602001805190602001909190505033600260006101000a81548173ffffffffffffffffffffffffffffffffffffffff021916908373ffffffffffffffffffffffffffffffffffffffff160217905550836008819055508260059080519060200190620000d192919062000190565b508160069080519060200190620000ea92919062000190565b5080600760006101000a81548160ff021916908360ff16021790555083600080600260009054906101000a900473ffffffffffffffffffffffffffffffffffffffff1673ffffffffffffffffffffffffffffffffffffffff1673ffffffffffffffffffffffffffffffffffffffff168152602001908152602001600020819055506000600a60146101000a81548160ff021916908315150217905550505050506200023f565b828054600181600116156101000203166002900490600052602060002090601f016020900481019282601f10620001d357805160ff191683800117855562000204565b8280016001018555821562000204579182015b8281111562000203578251825591602001919060010190620001e6565b5b50905062000213919062000217565b5090565b6200023c91905b80821115620002385760008160009055506001016200021e565b5090565b90565b613465806200024f6000396000f3006060604052600436106101a1576000357c0100000000000000000000000000000000000000000000000000000000900463ffffffff16806306fdde03146101a65780630753c30c14610234578063095ea7b31461026d5780630e136b19146102c75780630ecb93c0146102f457806318160ddd1461032d57806323b872dd1461035657806326976e3f146103cf578063313ce5671461042457806335390714146104535780633eaaf86b1461047c5780633f4ba83a146104a557806359bf1abe146104ba5780635c975abb1461050b578063661884631461053857806370a082311461059257806375dc7d8c146105df5780638456cb59146106165780638da5cb5b1461062b57806395d89b4114610680578063a9059cbb1461070e578063b7a3446c14610768578063c0324c77146107b5578063cc872b66146107e1578063d73dd62314610804578063db006a751461085e578063dd62ed3e14610881578063dd644f72146108ed578063e47d606014610916578063e4997dc514610967578063e5b5019a146109a0578063f2fde38b146109c9578063f3bdc22814610a02575b600080fd5b34156101b157600080fd5b6101b9610a3b565b6040518080602001828103825283818151815260200191508051906020019080838360005b838110156101f95780820151818401526020810190506101de565b50505050905090810190601f1680156102265780820380516001836020036101000a031916815260200191505b509250505060405180910390f35b341561023f57600080fd5b61026b600480803573ffffffffffffffffffffffffffffffffffffffff16906020019091905050610ad9565b005b341561027857600080fd5b6102ad600480803573ffffffffffffffffffffffffffffffffffffffff16906020019091908035906020019091905050610c33565b604051808215151515815260200191505060405180910390f35b34156102d257600080fd5b6102da610d9c565b604051808215151515815260200191505060405180910390f35b34156102ff57600080fd5b61032b600480803573ffffffffffffffffffffffffffffffffffffffff16906020019091905050610daf565b005b341561033857600080fd5b610340610ea9565b6040518082815260200191505060405180910390f35b341561036157600080fd5b6103b5600480803573ffffffffffffffffffffffffffffffffffffffff1690602001909190803573ffffffffffffffffffffffffffffffffffffffff16906020019091908035906020019091905050610f79565b604051808215151515815260200191505060405180910390f35b34156103da57600080fd5b6103e2611171565b604051808273ffffffffffffffffffffffffffffffffffffffff1673ffffffffffffffffffffffffffffffffffffffff16815260200191505060405180910390f35b341561042f57600080fd5b610437611197565b604051808260ff1660ff16815260200191505060405180910390f35b341561045e57600080fd5b6104666111aa565b6040518082815260200191505060405180910390f35b341561048757600080fd5b61048f6111b0565b6040518082815260200191505060405180910390f35b34156104b057600080fd5b6104b86111b6565b005b34156104c557600080fd5b6104f1600480803573ffffffffffffffffffffffffffffffffffffffff16906020019091905050611276565b604051808215151515815260200191505060405180910390f35b341561051657600080fd5b61051e6112cc565b604051808215151515815260200191505060405180910390f35b341561054357600080fd5b610578600480803573ffffffffffffffffffffffffffffffffffffffff169060200190919080359060200190919050506112df565b604051808215151515815260200191505060405180910390f35b341561059d57600080fd5b6105c9600480803573ffffffffffffffffffffffffffffffffffffffff16906020019091905050611448565b6040518082815260200191505060405180910390f35b34156105ea57600080fd5b6106006004808035906020019091905050611557565b6040518082815260200191505060405180910390f35b341561062157600080fd5b61062961159e565b005b341561063657600080fd5b61063e61165f565b604051808273ffffffffffffffffffffffffffffffffffffffff1673ffffffffffffffffffffffffffffffffffffffff16815260200191505060405180910390f35b341561068b57600080fd5b610693611685565b6040518080602001828103825283818151815260200191508051906020019080838360005b838110156106d35780820151818401526020810190506106b8565b50505050905090810190601f1680156107005780820380516001836020036101000a031916815260200191505b509250505060405180910390f35b341561071957600080fd5b61074e600480803573ffffffffffffffffffffffffffffffffffffffff16906020019091908035906020019091905050611723565b604051808215151515815260200191505060405180910390f35b341561077357600080fd5b61079f600480803573ffffffffffffffffffffffffffffffffffffffff169060200190919050506118e5565b6040518082815260200191505060405180910390f35b34156107c057600080fd5b6107df6004808035906020019091908035906020019091905050611912565b005b34156107ec57600080fd5b6108026004808035906020019091905050611a08565b005b341561080f57600080fd5b610844600480803573ffffffffffffffffffffffffffffffffffffffff16906020019091908035906020019091905050611c18565b604051808215151515815260200191505060405180910390f35b341561086957600080fd5b61087f6004808035906020019091905050611d81565b005b341561088c57600080fd5b6108d7600480803573ffffffffffffffffffffffffffffffffffffffff1690602001909190803573ffffffffffffffffffffffffffffffffffffffff16906020019091905050611f91565b6040518082815260200191505060405180910390f35b34156108f857600080fd5b6109006120d6565b6040518082815260200191505060405180910390f35b341561092157600080fd5b61094d600480803573ffffffffffffffffffffffffffffffffffffffff169060200190919050506120dc565b604051808215151515815260200191505060405180910390f35b341561097257600080fd5b61099e600480803573ffffffffffffffffffffffffffffffffffffffff169060200190919050506120fc565b005b34156109ab57600080fd5b6109b36121f6565b6040518082815260200191505060405180910390f35b34156109d457600080fd5b610a00600480803573ffffffffffffffffffffffffffffffffffffffff1690602001909190505061221a565b005b3415610a0d57600080fd5b610a39600480803573ffffffffffffffffffffffffffffffffffffffff16906020019091905050612372565b005b60058054600181600116156101000203166002900480601f016020809104026020016040519081016040528092919081815260200182805460018160011615610100020316600290048015610ad15780601f10610aa657610100808354040283529160200191610ad1565b820191906000526020600020905b815481529060010190602001808311610ab457829003601f168201915b505050505081565b600260009054906101000a900473ffffffffffffffffffffffffffffffffffffffff1673ffffffffffffffffffffffffffffffffffffffff163373ffffffffffffffffffffffffffffffffffffffff16141515610b3557600080fd5b600073ffffffffffffffffffffffffffffffffffffffff168173ffffffffffffffffffffffffffffffffffffffff1614151515610b7157600080fd5b6001600a60146101000a81548160ff02191690831515021790555080600a60006101000a81548173ffffffffffffffffffffffffffffffffffffffff021916908373ffffffffffffffffffffffffffffffffffffffff1602179055507fcc358699805e9a8b7f77b522628c7cb9abd07d9efb86b6fb616af1609036a99e81604051808273ffffffffffffffffffffffffffffffffffffffff1673ffffffffffffffffffffffffffffffffffffffff16815260200191505060405180910390a150565b6000600260149054906101000a900460ff16151515610c5157600080fd5b600a60149054906101000a900460ff1615610d8957600a60009054906101000a900473ffffffffffffffffffffffffffffffffffffffff1673ffffffffffffffffffffffffffffffffffffffff1663aee92d333385856000604051602001526040518463ffffffff167c0100000000000000000000000000000000000000000000000000000000028152600401808473ffffffffffffffffffffffffffffffffffffffff1673ffffffffffffffffffffffffffffffffffffffff1681526020018373ffffffffffffffffffffffffffffffffffffffff1673ffffffffffffffffffffffffffffffffffffffff1681526020018281526020019350505050602060405180830381600087803b1515610d6757600080fd5b6102c65a03f11515610d7857600080fd5b505050604051805190509050610d96565b610d9383836124e4565b90505b92915050565b600a60149054906101000a900460ff1681565b600260009054906101000a900473ffffffffffffffffffffffffffffffffffffffff1673ffffffffffffffffffffffffffffffffffffffff163373ffffffffffffffffffffffffffffffffffffffff16141515610e0b57600080fd5b6001600960008373ffffffffffffffffffffffffffffffffffffffff1673ffffffffffffffffffffffffffffffffffffffff16815260200190815260200160002060006101000a81548160ff0219169083151502179055508073ffffffffffffffffffffffffffffffffffffffff167f42e160154868087d6bfdc0ca23d96a1c1cfa32f1b72ba9ba27b69b98a0d819dc60405160405180910390a250565b6000600a60149054906101000a900460ff1615610f7057600a60009054906101000a900473ffffffffffffffffffffffffffffffffffffffff1673ffffffffffffffffffffffffffffffffffffffff166318160ddd6000604051602001526040518163ffffffff167c0100000000000000000000000000000000000000000000000000000000028152600401602060405180830381600087803b1515610f4e57600080fd5b6102c65a03f11515610f5f57600080fd5b505050604051805190509050610f76565b60085490505b90565b6000600260149054906101000a900460ff16151515610f9757600080fd5b600960008573ffffffffffffffffffffffffffffffffffffffff1673ffffffffffffffffffffffffffffffffffffffff16815260200190815260200160002060009054906101000a900460ff16151515610ff057600080fd5b600a60149054906101000a900460ff161561115c57600a60009054906101000a900473ffffffffffffffffffffffffffffffffffffffff1673ffffffffffffffffffffffffffffffffffffffff16638b477adb338686866000604051602001526040518563ffffffff167c0100000000000000000000000000000000000000000000000000000000028152600401808573ffffffffffffffffffffffffffffffffffffffff1673ffffffffffffffffffffffffffffffffffffffff1681526020018473ffffffffffffffffffffffffffffffffffffffff1673ffffffffffffffffffffffffffffffffffffffff1681526020018373ffffffffffffffffffffffffffffffffffffffff1673ffffffffffffffffffffffffffffffffffffffff168152602001828152602001945050505050602060405180830381600087803b151561113a57600080fd5b6102c65a03f1151561114b57600080fd5b50505060405180519050905061116a565b6111678484846125d6565b90505b9392505050565b600a60009054906101000a900473ffffffffffffffffffffffffffffffffffffffff1681565b600760009054906101000a900460ff1681565b60045481565b60085481565b600260009054906101000a900473ffffffffffffffffffffffffffffffffffffffff1673ffffffffffffffffffffffffffffffffffffffff163373ffffffffffffffffffffffffffffffffffffffff1614151561121257600080fd5b600260149054906101000a900460ff16151561122d57600080fd5b6000600260146101000a81548160ff0219169083151502179055507f7805862f689e2f13df9f062ff482ad3ad112aca9e0847911ed832e158c525b3360405160405180910390a1565b6000600960008373ffffffffffffffffffffffffffffffffffffffff1673ffffffffffffffffffffffffffffffffffffffff16815260200190815260200160002060009054906101000a900460ff169050919050565b600260149054906101000a900460ff1681565b6000600260149054906101000a900460ff161515156112fd57600080fd5b600a60149054906101000a900460ff161561143557600a60009054906101000a900473ffffffffffffffffffffffffffffffffffffffff1673ffffffffffffffffffffffffffffffffffffffff16636001279f3385856000604051602001526040518463ffffffff167c0100000000000000000000000000000000000000000000000000000000028152600401808473ffffffffffffffffffffffffffffffffffffffff1673ffffffffffffffffffffffffffffffffffffffff1681526020018373ffffffffffffffffffffffffffffffffffffffff1673ffffffffffffffffffffffffffffffffffffffff1681526020018281526020019350505050602060405180830381600087803b151561141357600080fd5b6102c65a03f1151561142457600080fd5b505050604051805190509050611442565b61143f8383612bc2565b90505b92915050565b6000600a60149054906101000a900460ff161561154657600a60009054906101000a900473ffffffffffffffffffffffffffffffffffffffff1673ffffffffffffffffffffffffffffffffffffffff166370a08231836000604051602001526040518263ffffffff167c0100000000000000000000000000000000000000000000000000000000028152600401808273ffffffffffffffffffffffffffffffffffffffff1673ffffffffffffffffffffffffffffffffffffffff168152602001915050602060405180830381600087803b151561152457600080fd5b6102c65a03f1151561153557600080fd5b505050604051805190509050611552565b61154f82612e53565b90505b919050565b60008061158361271061157560035486612e9b90919063ffffffff16565b612ed690919063ffffffff16565b90506004548111156115955760045490505b80915050919050565b600260009054906101000a900473ffffffffffffffffffffffffffffffffffffffff1673ffffffffffffffffffffffffffffffffffffffff163373ffffffffffffffffffffffffffffffffffffffff161415156115fa57600080fd5b600260149054906101000a900460ff1615151561161657600080fd5b6001600260146101000a81548160ff0219169083151502179055507f6985a02210a168e66602d3235cb6db0e70f92b3ba4d376a33c0f3d9434bff62560405160405180910390a1565b600260009054906101000a900473ffffffffffffffffffffffffffffffffffffffff1681565b60068054600181600116156101000203166002900480601f01602080910402602001604051908101604052809291908181526020018280546001816001161561010002031660029004801561171b5780601f106116f05761010080835404028352916020019161171b565b820191906000526020600020905b8154815290600101906020018083116116fe57829003601f168201915b505050505081565b6000600260149054906101000a900460ff1615151561174157600080fd5b600960003373ffffffffffffffffffffffffffffffffffffffff1673ffffffffffffffffffffffffffffffffffffffff16815260200190815260200160002060009054906101000a900460ff1615151561179a57600080fd5b600a60149054906101000a900460ff16156118d257600a60009054906101000a900473ffffffffffffffffffffffffffffffffffffffff1673ffffffffffffffffffffffffffffffffffffffff16636e18980a3385856000604051602001526040518463ffffffff167c0100000000000000000000000000000000000000000000000000000000028152600401808473ffffffffffffffffffffffffffffffffffffffff1673ffffffffffffffffffffffffffffffffffffffff1681526020018373ffffffffffffffffffffffffffffffffffffffff1673ffffffffffffffffffffffffffffffffffffffff1681526020018281526020019350505050602060405180830381600087803b15156118b057600080fd5b6102c65a03f115156118c157600080fd5b5050506040518051905090506118df565b6118dc8383612ef1565b90505b92915050565b6000600a60149054906101000a900460ff161561190c5761190582612e53565b905061190d565b5b919050565b600260009054906101000a900473ffffffffffffffffffffffffffffffffffffffff1673ffffffffffffffffffffffffffffffffffffffff163373ffffffffffffffffffffffffffffffffffffffff1614151561196e57600080fd5b60148210151561197d57600080fd5b60328110151561198c57600080fd5b816003819055506119bb600760009054906101000a900460ff1660ff16600a0a82612e9b90919063ffffffff16565b6004819055507fb044a1e409eac5c48e5af22d4af52670dd1a99059537a78b31b48c6500a6354e600354600454604051808381526020018281526020019250505060405180910390a15050565b600260009054906101000a900473ffffffffffffffffffffffffffffffffffffffff1673ffffffffffffffffffffffffffffffffffffffff163373ffffffffffffffffffffffffffffffffffffffff16141515611a6457600080fd5b611ad781600080600260009054906101000a900473ffffffffffffffffffffffffffffffffffffffff1673ffffffffffffffffffffffffffffffffffffffff1673ffffffffffffffffffffffffffffffffffffffff16815260200190815260200160002054612f6090919063ffffffff16565b600080600260009054906101000a900473ffffffffffffffffffffffffffffffffffffffff1673ffffffffffffffffffffffffffffffffffffffff1673ffffffffffffffffffffffffffffffffffffffff16815260200190815260200160002081905550611b5081600854612f6090919063ffffffff16565b6008819055507fcb8241adb0c3fdb35b70c24ce35c5eb0c17af7431c99f827d44a445ca624176a816040518082815260200191505060405180910390a1600260009054906101000a900473ffffffffffffffffffffffffffffffffffffffff1673ffffffffffffffffffffffffffffffffffffffff16600073ffffffffffffffffffffffffffffffffffffffff167fddf252ad1be2c89b69c2b068fc378daa952ba7f163c4a11628f55a4df523b3ef836040518082815260200191505060405180910390a350565b6000600260149054906101000a900460ff16151515611c3657600080fd5b600a60149054906101000a900460ff1615611d6e57600a60009054906101000a900473ffffffffffffffffffffffffffffffffffffffff1673ffffffffffffffffffffffffffffffffffffffff1663a95381573385856000604051602001526040518463ffffffff167c0100000000000000000000000000000000000000000000000000000000028152600401808473ffffffffffffffffffffffffffffffffffffffff1673ffffffffffffffffffffffffffffffffffffffff1681526020018373ffffffffffffffffffffffffffffffffffffffff1673ffffffffffffffffffffffffffffffffffffffff1681526020018281526020019350505050602060405180830381600087803b1515611d4c57600080fd5b6102c65a03f11515611d5d57600080fd5b505050604051805190509050611d7b565b611d788383612f7e565b90505b92915050565b600260009054906101000a900473ffffffffffffffffffffffffffffffffffffffff1673ffffffffffffffffffffffffffffffffffffffff163373ffffffffffffffffffffffffffffffffffffffff16141515611ddd57600080fd5b611df28160085461317a90919063ffffffff16565b600881905550611e6b81600080600260009054906101000a900473ffffffffffffffffffffffffffffffffffffffff1673ffffffffffffffffffffffffffffffffffffffff1673ffffffffffffffffffffffffffffffffffffffff1681526020019081526020016000205461317a90919063ffffffff16565b600080600260009054906101000a900473ffffffffffffffffffffffffffffffffffffffff1673ffffffffffffffffffffffffffffffffffffffff1673ffffffffffffffffffffffffffffffffffffffff168152602001908152602001600020819055507f702d5967f45f6513a38ffc42d6ba9bf230bd40e8f53b16363c7eb4fd2deb9a44816040518082815260200191505060405180910390a1600073ffffffffffffffffffffffffffffffffffffffff16600260009054906101000a900473ffffffffffffffffffffffffffffffffffffffff1673ffffffffffffffffffffffffffffffffffffffff167fddf252ad1be2c89b69c2b068fc378daa952ba7f163c4a11628f55a4df523b3ef836040518082815260200191505060405180910390a350565b6000600a60149054906101000a900460ff16156120c357600a60009054906101000a900473ffffffffffffffffffffffffffffffffffffffff1673ffffffffffffffffffffffffffffffffffffffff1663dd62ed3e84846000604051602001526040518363ffffffff167c0100000000000000000000000000000000000000000000000000000000028152600401808373ffffffffffffffffffffffffffffffffffffffff1673ffffffffffffffffffffffffffffffffffffffff1681526020018273ffffffffffffffffffffffffffffffffffffffff1673ffffffffffffffffffffffffffffffffffffffff16815260200192505050602060405180830381600087803b15156120a157600080fd5b6102c65a03f115156120b257600080fd5b5050506040518051905090506120d0565b6120cd8383613193565b90505b92915050565b60035481565b60096020528060005260406000206000915054906101000a900460ff1681565b600260009054906101000a900473ffffffffffffffffffffffffffffffffffffffff1673ffffffffffffffffffffffffffffffffffffffff163373ffffffffffffffffffffffffffffffffffffffff1614151561215857600080fd5b6000600960008373ffffffffffffffffffffffffffffffffffffffff1673ffffffffffffffffffffffffffffffffffffffff16815260200190815260200160002060006101000a81548160ff0219169083151502179055508073ffffffffffffffffffffffffffffffffffffffff167fd7e9ec6e6ecd65492dce6bf513cd6867560d49544421d0783ddf06e76c24470c60405160405180910390a250565b7fffffffffffffffffffffffffffffffffffffffffffffffffffffffffffffffff81565b600260009054906101000a900473ffffffffffffffffffffffffffffffffffffffff1673ffffffffffffffffffffffffffffffffffffffff163373ffffffffffffffffffffffffffffffffffffffff1614151561227657600080fd5b600073ffffffffffffffffffffffffffffffffffffffff168173ffffffffffffffffffffffffffffffffffffffff16141515156122b257600080fd5b8073ffffffffffffffffffffffffffffffffffffffff16600260009054906101000a900473ffffffffffffffffffffffffffffffffffffffff1673ffffffffffffffffffffffffffffffffffffffff167f8be0079c531659141344cd1fd0a4f28419497f9722a3daafe3b4186f6b6457e060405160405180910390a380600260006101000a81548173ffffffffffffffffffffffffffffffffffffffff021916908373ffffffffffffffffffffffffffffffffffffffff16021790555050565b6000600260009054906101000a900473ffffffffffffffffffffffffffffffffffffffff1673ffffffffffffffffffffffffffffffffffffffff163373ffffffffffffffffffffffffffffffffffffffff161415156123d057600080fd5b600960008373ffffffffffffffffffffffffffffffffffffffff1673ffffffffffffffffffffffffffffffffffffffff16815260200190815260200160002060009054906101000a900460ff16151561242857600080fd5b61243182611448565b905060008060008473ffffffffffffffffffffffffffffffffffffffff1673ffffffffffffffffffffffffffffffffffffffff1681526020019081526020016000208190555061248c8160085461317a90919063ffffffff16565b6008819055508173ffffffffffffffffffffffffffffffffffffffff167f61e6e66b0d6339b2980aecc6ccc0039736791f0ccde9ed512e789a7fbdd698c6826040518082815260200191505060405180910390a25050565b600081600160003373ffffffffffffffffffffffffffffffffffffffff1673ffffffffffffffffffffffffffffffffffffffff16815260200190815260200160002060008573ffffffffffffffffffffffffffffffffffffffff1673ffffffffffffffffffffffffffffffffffffffff168152602001908152602001600020819055508273ffffffffffffffffffffffffffffffffffffffff163373ffffffffffffffffffffffffffffffffffffffff167f8c5be1e5ebec7d5bd14f71427d1e84f3dd0314c0f7b2291e5b200ac8c7c3b925846040518082815260200191505060405180910390a36001905092915050565b60008060008073ffffffffffffffffffffffffffffffffffffffff168573ffffffffffffffffffffffffffffffffffffffff161415151561261657600080fd5b6000808773ffffffffffffffffffffffffffffffffffffffff1673ffffffffffffffffffffffffffffffffffffffff16815260200190815260200160002054841115151561266357600080fd5b600160008773ffffffffffffffffffffffffffffffffffffffff1673ffffffffffffffffffffffffffffffffffffffff16815260200190815260200160002060003373ffffffffffffffffffffffffffffffffffffffff1673ffffffffffffffffffffffffffffffffffffffff1681526020019081526020016000205484111515156126ee57600080fd5b6126f784611557565b915061270c828561317a90919063ffffffff16565b905061275f846000808973ffffffffffffffffffffffffffffffffffffffff1673ffffffffffffffffffffffffffffffffffffffff1681526020019081526020016000205461317a90919063ffffffff16565b6000808873ffffffffffffffffffffffffffffffffffffffff1673ffffffffffffffffffffffffffffffffffffffff168152602001908152602001600020819055506127f2816000808873ffffffffffffffffffffffffffffffffffffffff1673ffffffffffffffffffffffffffffffffffffffff16815260200190815260200160002054612f6090919063ffffffff16565b6000808773ffffffffffffffffffffffffffffffffffffffff1673ffffffffffffffffffffffffffffffffffffffff168152602001908152602001600020819055507fffffffffffffffffffffffffffffffffffffffffffffffffffffffffffffffff600160008873ffffffffffffffffffffffffffffffffffffffff1673ffffffffffffffffffffffffffffffffffffffff16815260200190815260200160002060003373ffffffffffffffffffffffffffffffffffffffff1673ffffffffffffffffffffffffffffffffffffffff1681526020019081526020016000205410156129e85761296784600160008973ffffffffffffffffffffffffffffffffffffffff1673ffffffffffffffffffffffffffffffffffffffff16815260200190815260200160002060003373ffffffffffffffffffffffffffffffffffffffff1673ffffffffffffffffffffffffffffffffffffffff1681526020019081526020016000205461317a90919063ffffffff16565b600160008873ffffffffffffffffffffffffffffffffffffffff1673ffffffffffffffffffffffffffffffffffffffff16815260200190815260200160002060003373ffffffffffffffffffffffffffffffffffffffff1673ffffffffffffffffffffffffffffffffffffffff168152602001908152602001600020819055505b8473ffffffffffffffffffffffffffffffffffffffff168673ffffffffffffffffffffffffffffffffffffffff167fddf252ad1be2c89b69c2b068fc378daa952ba7f163c4a11628f55a4df523b3ef836040518082815260200191505060405180910390a36000821115612bb557612ac982600080600260009054906101000a900473ffffffffffffffffffffffffffffffffffffffff1673ffffffffffffffffffffffffffffffffffffffff1673ffffffffffffffffffffffffffffffffffffffff16815260200190815260200160002054612f6090919063ffffffff16565b600080600260009054906101000a900473ffffffffffffffffffffffffffffffffffffffff1673ffffffffffffffffffffffffffffffffffffffff1673ffffffffffffffffffffffffffffffffffffffff16815260200190815260200160002081905550600260009054906101000a900473ffffffffffffffffffffffffffffffffffffffff1673ffffffffffffffffffffffffffffffffffffffff168673ffffffffffffffffffffffffffffffffffffffff167fddf252ad1be2c89b69c2b068fc378daa952ba7f163c4a11628f55a4df523b3ef846040518082815260200191505060405180910390a35b6001925050509392505050565b600080600160003373ffffffffffffffffffffffffffffffffffffffff1673ffffffffffffffffffffffffffffffffffffffff16815260200190815260200160002060008573ffffffffffffffffffffffffffffffffffffffff1673ffffffffffffffffffffffffffffffffffffffff16815260200190815260200160002054905080831115612cd3576000600160003373ffffffffffffffffffffffffffffffffffffffff1673ffffffffffffffffffffffffffffffffffffffff16815260200190815260200160002060008673ffffffffffffffffffffffffffffffffffffffff1673ffffffffffffffffffffffffffffffffffffffff16815260200190815260200160002081905550612d67565b612ce6838261317a90919063ffffffff16565b600160003373ffffffffffffffffffffffffffffffffffffffff1673ffffffffffffffffffffffffffffffffffffffff16815260200190815260200160002060008673ffffffffffffffffffffffffffffffffffffffff1673ffffffffffffffffffffffffffffffffffffffff168152602001908152602001600020819055505b8373ffffffffffffffffffffffffffffffffffffffff163373ffffffffffffffffffffffffffffffffffffffff167f8c5be1e5ebec7d5bd14f71427d1e84f3dd0314c0f7b2291e5b200ac8c7c3b925600160003373ffffffffffffffffffffffffffffffffffffffff1673ffffffffffffffffffffffffffffffffffffffff16815260200190815260200160002060008873ffffffffffffffffffffffffffffffffffffffff1673ffffffffffffffffffffffffffffffffffffffff168152602001908152602001600020546040518082815260200191505060405180910390a3600191505092915050565b60008060008373ffffffffffffffffffffffffffffffffffffffff1673ffffffffffffffffffffffffffffffffffffffff168152602001908152602001600020549050919050565b6000806000841415612eb05760009150612ecf565b8284029050828482811515612ec157fe5b04141515612ecb57fe5b8091505b5092915050565b6000808284811515612ee457fe5b0490508091505092915050565b6000806000612eff84611557565b9150612f14828561317a90919063ffffffff16565b9050612f20858261321a565b506000821115612f5857612f56600260009054906101000a900473ffffffffffffffffffffffffffffffffffffffff168361321a565b505b505092915050565b6000808284019050838110151515612f7457fe5b8091505092915050565b600061300f82600160003373ffffffffffffffffffffffffffffffffffffffff1673ffffffffffffffffffffffffffffffffffffffff16815260200190815260200160002060008673ffffffffffffffffffffffffffffffffffffffff1673ffffffffffffffffffffffffffffffffffffffff16815260200190815260200160002054612f6090919063ffffffff16565b600160003373ffffffffffffffffffffffffffffffffffffffff1673ffffffffffffffffffffffffffffffffffffffff16815260200190815260200160002060008573ffffffffffffffffffffffffffffffffffffffff1673ffffffffffffffffffffffffffffffffffffffff168152602001908152602001600020819055508273ffffffffffffffffffffffffffffffffffffffff163373ffffffffffffffffffffffffffffffffffffffff167f8c5be1e5ebec7d5bd14f71427d1e84f3dd0314c0f7b2291e5b200ac8c7c3b925600160003373ffffffffffffffffffffffffffffffffffffffff1673ffffffffffffffffffffffffffffffffffffffff16815260200190815260200160002060008773ffffffffffffffffffffffffffffffffffffffff1673ffffffffffffffffffffffffffffffffffffffff168152602001908152602001600020546040518082815260200191505060405180910390a36001905092915050565b600082821115151561318857fe5b818303905092915050565b6000600160008473ffffffffffffffffffffffffffffffffffffffff1673ffffffffffffffffffffffffffffffffffffffff16815260200190815260200160002060008373ffffffffffffffffffffffffffffffffffffffff1673ffffffffffffffffffffffffffffffffffffffff16815260200190815260200160002054905092915050565b60008073ffffffffffffffffffffffffffffffffffffffff168373ffffffffffffffffffffffffffffffffffffffff161415151561325757600080fd5b6000803373ffffffffffffffffffffffffffffffffffffffff1673ffffffffffffffffffffffffffffffffffffffff1681526020019081526020016000205482111515156132a457600080fd5b6132f5826000803373ffffffffffffffffffffffffffffffffffffffff1673ffffffffffffffffffffffffffffffffffffffff1681526020019081526020016000205461317a90919063ffffffff16565b6000803373ffffffffffffffffffffffffffffffffffffffff1673ffffffffffffffffffffffffffffffffffffffff16815260200190815260200160002081905550613388826000808673ffffffffffffffffffffffffffffffffffffffff1673ffffffffffffffffffffffffffffffffffffffff16815260200190815260200160002054612f6090919063ffffffff16565b6000808573ffffffffffffffffffffffffffffffffffffffff1673ffffffffffffffffffffffffffffffffffffffff168152602001908152602001600020819055508273ffffffffffffffffffffffffffffffffffffffff163373ffffffffffffffffffffffffffffffffffffffff167fddf252ad1be2c89b69c2b068fc378daa952ba7f163c4a11628f55a4df523b3ef846040518082815260200191505060405180910390a360019050929150505600a165627a7a7230582062b421377a5c8851cf0be3a42dd716d1f526bc4937c022462a0c1eae2dbed1b30029","opcodes":"PUSH1 0x60 PUSH1 0x40 MSTORE PUSH1 0x0 PUSH1 0x2 PUSH1 0x14 PUSH2 0x100 EXP DUP2 SLOAD DUP2 PUSH1 0xFF MUL NOT AND SWAP1 DUP4 ISZERO ISZERO MUL OR SWAP1 SSTORE POP PUSH1 0x0 PUSH1 0x3 SSTORE PUSH1 0x0 PUSH1 0x4 SSTORE CALLVALUE ISZERO PUSH3 0x35 JUMPI PUSH1 0x0 DUP1 REVERT JUMPDEST PUSH1 0x40 MLOAD PUSH3 0x36B4 CODESIZE SUB DUP1 PUSH3 0x36B4 DUP4 CODECOPY DUP2 ADD PUSH1 0x40 MSTORE DUP1 DUP1 MLOAD SWAP1 PUSH1 0x20 ADD SWAP1 SWAP2 SWAP1 DUP1 MLOAD DUP3 ADD SWAP2 SWAP1 PUSH1 0x20 ADD DUP1 MLOAD DUP3 ADD SWAP2 SWAP1 PUSH1 0x20 ADD DUP1 MLOAD SWAP1 PUSH1 0x20 ADD SWAP1 SWAP2 SWAP1 POP POP CALLER PUSH1 0x2 PUSH1 0x0 PUSH2 0x100 EXP DUP2 SLOAD DUP2 PUSH20 0xFFFFFFFFFFFFFFFFFFFFFFFFFFFFFFFFFFFFFFFF MUL NOT AND SWAP1 DUP4 PUSH20 0xFFFFFFFFFFFFFFFFFFFFFFFFFFFFFFFFFFFFFFFF AND MUL OR SWAP1 SSTORE POP DUP4 PUSH1 0x8 DUP2 SWAP1 SSTORE POP DUP3 PUSH1 0x5 SWAP1 DUP1 MLOAD SWAP1 PUSH1 0x20 ADD SWAP1 PUSH3 0xD1 SWAP3 SWAP2 SWAP1 PUSH3 0x190 JUMP JUMPDEST POP DUP2 PUSH1 0x6 SWAP1 DUP1 MLOAD SWAP1 PUSH1 0x20 ADD SWAP1 PUSH3 0xEA SWAP3 SWAP2 SWAP1 PUSH3 0x190 JUMP JUMPDEST POP DUP1 PUSH1 0x7 PUSH1 0x0 PUSH2 0x100 EXP DUP2 SLOAD DUP2 PUSH1 0xFF MUL NOT AND SWAP1 DUP4 PUSH1 0xFF AND MUL OR SWAP1 SSTORE POP DUP4 PUSH1 0x0 DUP1 PUSH1 0x2 PUSH1 0x0 SWAP1 SLOAD SWAP1 PUSH2 0x100 EXP SWAP1 DIV PUSH20 0xFFFFFFFFFFFFFFFFFFFFFFFFFFFFFFFFFFFFFFFF AND PUSH20 0xFFFFFFFFFFFFFFFFFFFFFFFFFFFFFFFFFFFFFFFF AND PUSH20 0xFFFFFFFFFFFFFFFFFFFFFFFFFFFFFFFFFFFFFFFF AND DUP2 MSTORE PUSH1 0x20 ADD SWAP1 DUP2 MSTORE PUSH1 0x20 ADD PUSH1 0x0 KECCAK256 DUP2 SWAP1 SSTORE POP PUSH1 0x0 PUSH1 0xA PUSH1 0x14 PUSH2 0x100 EXP DUP2 SLOAD DUP2 PUSH1 0xFF MUL NOT AND SWAP1 DUP4 ISZERO ISZERO MUL OR SWAP1 SSTORE POP POP POP POP POP PUSH3 0x23F JUMP JUMPDEST DUP3 DUP1 SLOAD PUSH1 0x1 DUP2 PUSH1 0x1 AND ISZERO PUSH2 0x100 MUL SUB AND PUSH1 0x2 SWAP1 DIV SWAP1 PUSH1 0x0 MSTORE PUSH1 0x20 PUSH1 0x0 KECCAK256 SWAP1 PUSH1 0x1F ADD PUSH1 0x20 SWAP1 DIV DUP2 ADD SWAP3 DUP3 PUSH1 0x1F LT PUSH3 0x1D3 JUMPI DUP1 MLOAD PUSH1 0xFF NOT AND DUP4 DUP1 ADD OR DUP6 SSTORE PUSH3 0x204 JUMP JUMPDEST DUP3 DUP1 ADD PUSH1 0x1 ADD DUP6 SSTORE DUP3 ISZERO PUSH3 0x204 JUMPI SWAP2 DUP3 ADD JUMPDEST DUP3 DUP2 GT ISZERO PUSH3 0x203 JUMPI DUP3 MLOAD DUP3 SSTORE SWAP2 PUSH1 0x20 ADD SWAP2 SWAP1 PUSH1 0x1 ADD SWAP1 PUSH3 0x1E6 JUMP JUMPDEST JUMPDEST POP SWAP1 POP PUSH3 0x213 SWAP2 SWAP1 PUSH3 0x217 JUMP JUMPDEST POP SWAP1 JUMP JUMPDEST PUSH3 0x23C SWAP2 SWAP1 JUMPDEST DUP1 DUP3 GT ISZERO PUSH3 0x238 JUMPI PUSH1 0x0 DUP2 PUSH1 0x0 SWAP1 SSTORE POP PUSH1 0x1 ADD PUSH3 0x21E JUMP JUMPDEST POP SWAP1 JUMP JUMPDEST SWAP1 JUMP JUMPDEST PUSH2 0x3465 DUP1 PUSH3 0x24F PUSH1 0x0 CODECOPY PUSH1 0x0 RETURN STOP PUSH1 0x60 PUSH1 0x40 MSTORE PUSH1 0x4 CALLDATASIZE LT PUSH2 0x1A1 JUMPI PUSH1 0x0 CALLDATALOAD PUSH29 0x100000000000000000000000000000000000000000000000000000000 SWAP1 DIV PUSH4 0xFFFFFFFF AND DUP1 PUSH4 0x6FDDE03 EQ PUSH2 0x1A6 JUMPI DUP1 PUSH4 0x753C30C EQ PUSH2 0x234 JUMPI DUP1 PUSH4 0x95EA7B3 EQ PUSH2 0x26D JUMPI DUP1 PUSH4 0xE136B19 EQ PUSH2 0x2C7 JUMPI DUP1 PUSH4 0xECB93C0 EQ PUSH2 0x2F4 JUMPI DUP1 PUSH4 0x18160DDD EQ PUSH2 0x32D JUMPI DUP1 PUSH4 0x23B872DD EQ PUSH2 0x356 JUMPI DUP1 PUSH4 0x26976E3F EQ PUSH2 0x3CF JUMPI DUP1 PUSH4 0x313CE567 EQ PUSH2 0x424 JUMPI DUP1 PUSH4 0x35390714 EQ PUSH2 0x453 JUMPI DUP1 PUSH4 0x3EAAF86B EQ PUSH2 0x47C JUMPI DUP1 PUSH4 0x3F4BA83A EQ PUSH2 0x4A5 JUMPI DUP1 PUSH4 0x59BF1ABE EQ PUSH2 0x4BA JUMPI DUP1 PUSH4 0x5C975ABB EQ PUSH2 0x50B JUMPI DUP1 PUSH4 0x66188463 EQ PUSH2 0x538 JUMPI DUP1 PUSH4 0x70A08231 EQ PUSH2 0x592 JUMPI DUP1 PUSH4 0x75DC7D8C EQ PUSH2 0x5DF JUMPI DUP1 PUSH4 0x8456CB59 EQ PUSH2 0x616 JUMPI DUP1 PUSH4 0x8DA5CB5B EQ PUSH2 0x62B JUMPI DUP1 PUSH4 0x95D89B41 EQ PUSH2 0x680 JUMPI DUP1 PUSH4 0xA9059CBB EQ PUSH2 0x70E JUMPI DUP1 PUSH4 0xB7A3446C EQ PUSH2 0x768 JUMPI DUP1 PUSH4 0xC0324C77 EQ PUSH2 0x7B5 JUMPI DUP1 PUSH4 0xCC872B66 EQ PUSH2 0x7E1 JUMPI DUP1 PUSH4 0xD73DD623 EQ PUSH2 0x804 JUMPI DUP1 PUSH4 0xDB006A75 EQ PUSH2 0x85E JUMPI DUP1 PUSH4 0xDD62ED3E EQ PUSH2 0x881 JUMPI DUP1 PUSH4 0xDD644F72 EQ PUSH2 0x8ED JUMPI DUP1 PUSH4 0xE47D6060 EQ PUSH2 0x916 JUMPI DUP1 PUSH4 0xE4997DC5 EQ PUSH2 0x967 JUMPI DUP1 PUSH4 0xE5B5019A EQ PUSH2 0x9A0 JUMPI DUP1 PUSH4 0xF2FDE38B EQ PUSH2 0x9C9 JUMPI DUP1 PUSH4 0xF3BDC228 EQ PUSH2 0xA02 JUMPI JUMPDEST PUSH1 0x0 DUP1 REVERT JUMPDEST CALLVALUE ISZERO PUSH2 0x1B1 JUMPI PUSH1 0x0 DUP1 REVERT JUMPDEST PUSH2 0x1B9 PUSH2 0xA3B JUMP JUMPDEST PUSH1 0x40 MLOAD DUP1 DUP1 PUSH1 0x20 ADD DUP3 DUP2 SUB DUP3 MSTORE DUP4 DUP2 DUP2 MLOAD DUP2 MSTORE PUSH1 0x20 ADD SWAP2 POP DUP1 MLOAD SWAP1 PUSH1 0x20 ADD SWAP1 DUP1 DUP4 DUP4 PUSH1 0x0 JUMPDEST DUP4 DUP2 LT ISZERO PUSH2 0x1F9 JUMPI DUP1 DUP3 ADD MLOAD DUP2 DUP5 ADD MSTORE PUSH1 0x20 DUP2 ADD SWAP1 POP PUSH2 0x1DE JUMP JUMPDEST POP POP POP POP SWAP1 POP SWAP1 DUP2 ADD SWAP1 PUSH1 0x1F AND DUP1 ISZERO PUSH2 0x226 JUMPI DUP1 DUP3 SUB DUP1 MLOAD PUSH1 0x1 DUP4 PUSH1 0x20 SUB PUSH2 0x100 EXP SUB NOT AND DUP2 MSTORE PUSH1 0x20 ADD SWAP2 POP JUMPDEST POP SWAP3 POP POP POP PUSH1 0x40 MLOAD DUP1 SWAP2 SUB SWAP1 RETURN JUMPDEST CALLVALUE ISZERO PUSH2 0x23F JUMPI PUSH1 0x0 DUP1 REVERT JUMPDEST PUSH2 0x26B PUSH1 0x4 DUP1 DUP1 CALLDATALOAD PUSH20 0xFFFFFFFFFFFFFFFFFFFFFFFFFFFFFFFFFFFFFFFF AND SWAP1 PUSH1 0x20 ADD SWAP1 SWAP2 SWAP1 POP POP PUSH2 0xAD9 JUMP JUMPDEST STOP JUMPDEST CALLVALUE ISZERO PUSH2 0x278 JUMPI PUSH1 0x0 DUP1 REVERT JUMPDEST PUSH2 0x2AD PUSH1 0x4 DUP1 DUP1 CALLDATALOAD PUSH20 0xFFFFFFFFFFFFFFFFFFFFFFFFFFFFFFFFFFFFFFFF AND SWAP1 PUSH1 0x20 ADD SWAP1 SWAP2 SWAP1 DUP1 CALLDATALOAD SWAP1 PUSH1 0x20 ADD SWAP1 SWAP2 SWAP1 POP POP PUSH2 0xC33 JUMP JUMPDEST PUSH1 0x40 MLOAD DUP1 DUP3 ISZERO ISZERO ISZERO ISZERO DUP2 MSTORE PUSH1 0x20 ADD SWAP2 POP POP PUSH1 0x40 MLOAD DUP1 SWAP2 SUB SWAP1 RETURN JUMPDEST CALLVALUE ISZERO PUSH2 0x2D2 JUMPI PUSH1 0x0 DUP1 REVERT JUMPDEST PUSH2 0x2DA PUSH2 0xD9C JUMP JUMPDEST PUSH1 0x40 MLOAD DUP1 DUP3 ISZERO ISZERO ISZERO ISZERO DUP2 MSTORE PUSH1 0x20 ADD SWAP2 POP POP PUSH1 0x40 MLOAD DUP1 SWAP2 SUB SWAP1 RETURN JUMPDEST CALLVALUE ISZERO PUSH2 0x2FF JUMPI PUSH1 0x0 DUP1 REVERT JUMPDEST PUSH2 0x32B PUSH1 0x4 DUP1 DUP1 CALLDATALOAD PUSH20 0xFFFFFFFFFFFFFFFFFFFFFFFFFFFFFFFFFFFFFFFF AND SWAP1 PUSH1 0x20 ADD SWAP1 SWAP2 SWAP1 POP POP PUSH2 0xDAF JUMP JUMPDEST STOP JUMPDEST CALLVALUE ISZERO PUSH2 0x338 JUMPI PUSH1 0x0 DUP1 REVERT JUMPDEST PUSH2 0x340 PUSH2 0xEA9 JUMP JUMPDEST PUSH1 0x40 MLOAD DUP1 DUP3 DUP2 MSTORE PUSH1 0x20 ADD SWAP2 POP POP PUSH1 0x40 MLOAD DUP1 SWAP2 SUB SWAP1 RETURN JUMPDEST CALLVALUE ISZERO PUSH2 0x361 JUMPI PUSH1 0x0 DUP1 REVERT JUMPDEST PUSH2 0x3B5 PUSH1 0x4 DUP1 DUP1 CALLDATALOAD PUSH20 0xFFFFFFFFFFFFFFFFFFFFFFFFFFFFFFFFFFFFFFFF AND SWAP1 PUSH1 0x20 ADD SWAP1 SWAP2 SWAP1 DUP1 CALLDATALOAD PUSH20 0xFFFFFFFFFFFFFFFFFFFFFFFFFFFFFFFFFFFFFFFF AND SWAP1 PUSH1 0x20 ADD SWAP1 SWAP2 SWAP1 DUP1 CALLDATALOAD SWAP1 PUSH1 0x20 ADD SWAP1 SWAP2 SWAP1 POP POP PUSH2 0xF79 JUMP JUMPDEST PUSH1 0x40 MLOAD DUP1 DUP3 ISZERO ISZERO ISZERO ISZERO DUP2 MSTORE PUSH1 0x20 ADD SWAP2 POP POP PUSH1 0x40 MLOAD DUP1 SWAP2 SUB SWAP1 RETURN JUMPDEST CALLVALUE ISZERO PUSH2 0x3DA JUMPI PUSH1 0x0 DUP1 REVERT JUMPDEST PUSH2 0x3E2 PUSH2 0x1171 JUMP JUMPDEST PUSH1 0x40 MLOAD DUP1 DUP3 PUSH20 0xFFFFFFFFFFFFFFFFFFFFFFFFFFFFFFFFFFFFFFFF AND PUSH20 0xFFFFFFFFFFFFFFFFFFFFFFFFFFFFFFFFFFFFFFFF AND DUP2 MSTORE PUSH1 0x20 ADD SWAP2 POP POP PUSH1 0x40 MLOAD DUP1 SWAP2 SUB SWAP1 RETURN JUMPDEST CALLVALUE ISZERO PUSH2 0x42F JUMPI PUSH1 0x0 DUP1 REVERT JUMPDEST PUSH2 0x437 PUSH2 0x1197 JUMP JUMPDEST PUSH1 0x40 MLOAD DUP1 DUP3 PUSH1 0xFF AND PUSH1 0xFF AND DUP2 MSTORE PUSH1 0x20 ADD SWAP2 POP POP PUSH1 0x40 MLOAD DUP1 SWAP2 SUB SWAP1 RETURN JUMPDEST CALLVALUE ISZERO PUSH2 0x45E JUMPI PUSH1 0x0 DUP1 REVERT JUMPDEST PUSH2 0x466 PUSH2 0x11AA JUMP JUMPDEST PUSH1 0x40 MLOAD DUP1 DUP3 DUP2 MSTORE PUSH1 0x20 ADD SWAP2 POP POP PUSH1 0x40 MLOAD DUP1 SWAP2 SUB SWAP1 RETURN JUMPDEST CALLVALUE ISZERO PUSH2 0x487 JUMPI PUSH1 0x0 DUP1 REVERT JUMPDEST PUSH2 0x48F PUSH2 0x11B0 JUMP JUMPDEST PUSH1 0x40 MLOAD DUP1 DUP3 DUP2 MSTORE PUSH1 0x20 ADD SWAP2 POP POP PUSH1 0x40 MLOAD DUP1 SWAP2 SUB SWAP1 RETURN JUMPDEST CALLVALUE ISZERO PUSH2 0x4B0 JUMPI PUSH1 0x0 DUP1 REVERT JUMPDEST PUSH2 0x4B8 PUSH2 0x11B6 JUMP JUMPDEST STOP JUMPDEST CALLVALUE ISZERO PUSH2 0x4C5 JUMPI PUSH1 0x0 DUP1 REVERT JUMPDEST PUSH2 0x4F1 PUSH1 0x4 DUP1 DUP1 CALLDATALOAD PUSH20 0xFFFFFFFFFFFFFFFFFFFFFFFFFFFFFFFFFFFFFFFF AND SWAP1 PUSH1 0x20 ADD SWAP1 SWAP2 SWAP1 POP POP PUSH2 0x1276 JUMP JUMPDEST PUSH1 0x40 MLOAD DUP1 DUP3 ISZERO ISZERO ISZERO ISZERO DUP2 MSTORE PUSH1 0x20 ADD SWAP2 POP POP PUSH1 0x40 MLOAD DUP1 SWAP2 SUB SWAP1 RETURN JUMPDEST CALLVALUE ISZERO PUSH2 0x516 JUMPI PUSH1 0x0 DUP1 REVERT JUMPDEST PUSH2 0x51E PUSH2 0x12CC JUMP JUMPDEST PUSH1 0x40 MLOAD DUP1 DUP3 ISZERO ISZERO ISZERO ISZERO DUP2 MSTORE PUSH1 0x20 ADD SWAP2 POP POP PUSH1 0x40 MLOAD DUP1 SWAP2 SUB SWAP1 RETURN JUMPDEST CALLVALUE ISZERO PUSH2 0x543 JUMPI PUSH1 0x0 DUP1 REVERT JUMPDEST PUSH2 0x578 PUSH1 0x4 DUP1 DUP1 CALLDATALOAD PUSH20 0xFFFFFFFFFFFFFFFFFFFFFFFFFFFFFFFFFFFFFFFF AND SWAP1 PUSH1 0x20 ADD SWAP1 SWAP2 SWAP1 DUP1 CALLDATALOAD SWAP1 PUSH1 0x20 ADD SWAP1 SWAP2 SWAP1 POP POP PUSH2 0x12DF JUMP JUMPDEST PUSH1 0x40 MLOAD DUP1 DUP3 ISZERO ISZERO ISZERO ISZERO DUP2 MSTORE PUSH1 0x20 ADD SWAP2 POP POP PUSH1 0x40 MLOAD DUP1 SWAP2 SUB SWAP1 RETURN JUMPDEST CALLVALUE ISZERO PUSH2 0x59D JUMPI PUSH1 0x0 DUP1 REVERT JUMPDEST PUSH2 0x5C9 PUSH1 0x4 DUP1 DUP1 CALLDATALOAD PUSH20 0xFFFFFFFFFFFFFFFFFFFFFFFFFFFFFFFFFFFFFFFF AND SWAP1 PUSH1 0x20 ADD SWAP1 SWAP2 SWAP1 POP POP PUSH2 0x1448 JUMP JUMPDEST PUSH1 0x40 MLOAD DUP1 DUP3 DUP2 MSTORE PUSH1 0x20 ADD SWAP2 POP POP PUSH1 0x40 MLOAD DUP1 SWAP2 SUB SWAP1 RETURN JUMPDEST CALLVALUE ISZERO PUSH2 0x5EA JUMPI PUSH1 0x0 DUP1 REVERT JUMPDEST PUSH2 0x600 PUSH1 0x4 DUP1 DUP1 CALLDATALOAD SWAP1 PUSH1 0x20 ADD SWAP1 SWAP2 SWAP1 POP POP PUSH2 0x1557 JUMP JUMPDEST PUSH1 0x40 MLOAD DUP1 DUP3 DUP2 MSTORE PUSH1 0x20 ADD SWAP2 POP POP PUSH1 0x40 MLOAD DUP1 SWAP2 SUB SWAP1 RETURN JUMPDEST CALLVALUE ISZERO PUSH2 0x621 JUMPI PUSH1 0x0 DUP1 REVERT JUMPDEST PUSH2 0x629 PUSH2 0x159E JUMP JUMPDEST STOP JUMPDEST CALLVALUE ISZERO PUSH2 0x636 JUMPI PUSH1 0x0 DUP1 REVERT JUMPDEST PUSH2 0x63E PUSH2 0x165F JUMP JUMPDEST PUSH1 0x40 MLOAD DUP1 DUP3 PUSH20 0xFFFFFFFFFFFFFFFFFFFFFFFFFFFFFFFFFFFFFFFF AND PUSH20 0xFFFFFFFFFFFFFFFFFFFFFFFFFFFFFFFFFFFFFFFF AND DUP2 MSTORE PUSH1 0x20 ADD SWAP2 POP POP PUSH1 0x40 MLOAD DUP1 SWAP2 SUB SWAP1 RETURN JUMPDEST CALLVALUE ISZERO PUSH2 0x68B JUMPI PUSH1 0x0 DUP1 REVERT JUMPDEST PUSH2 0x693 PUSH2 0x1685 JUMP JUMPDEST PUSH1 0x40 MLOAD DUP1 DUP1 PUSH1 0x20 ADD DUP3 DUP2 SUB DUP3 MSTORE DUP4 DUP2 DUP2 MLOAD DUP2 MSTORE PUSH1 0x20 ADD SWAP2 POP DUP1 MLOAD SWAP1 PUSH1 0x20 ADD SWAP1 DUP1 DUP4 DUP4 PUSH1 0x0 JUMPDEST DUP4 DUP2 LT ISZERO PUSH2 0x6D3 JUMPI DUP1 DUP3 ADD MLOAD DUP2 DUP5 ADD MSTORE PUSH1 0x20 DUP2 ADD SWAP1 POP PUSH2 0x6B8 JUMP JUMPDEST POP POP POP POP SWAP1 POP SWAP1 DUP2 ADD SWAP1 PUSH1 0x1F AND DUP1 ISZERO PUSH2 0x700 JUMPI DUP1 DUP3 SUB DUP1 MLOAD PUSH1 0x1 DUP4 PUSH1 0x20 SUB PUSH2 0x100 EXP SUB NOT AND DUP2 MSTORE PUSH1 0x20 ADD SWAP2 POP JUMPDEST POP SWAP3 POP POP POP PUSH1 0x40 MLOAD DUP1 SWAP2 SUB SWAP1 RETURN JUMPDEST CALLVALUE ISZERO PUSH2 0x719 JUMPI PUSH1 0x0 DUP1 REVERT JUMPDEST PUSH2 0x74E PUSH1 0x4 DUP1 DUP1 CALLDATALOAD PUSH20 0xFFFFFFFFFFFFFFFFFFFFFFFFFFFFFFFFFFFFFFFF AND SWAP1 PUSH1 0x20 ADD SWAP1 SWAP2 SWAP1 DUP1 CALLDATALOAD SWAP1 PUSH1 0x20 ADD SWAP1 SWAP2 SWAP1 POP POP PUSH2 0x1723 JUMP JUMPDEST PUSH1 0x40 MLOAD DUP1 DUP3 ISZERO ISZERO ISZERO ISZERO DUP2 MSTORE PUSH1 0x20 ADD SWAP2 POP POP PUSH1 0x40 MLOAD DUP1 SWAP2 SUB SWAP1 RETURN JUMPDEST CALLVALUE ISZERO PUSH2 0x773 JUMPI PUSH1 0x0 DUP1 REVERT JUMPDEST PUSH2 0x79F PUSH1 0x4 DUP1 DUP1 CALLDATALOAD PUSH20 0xFFFFFFFFFFFFFFFFFFFFFFFFFFFFFFFFFFFFFFFF AND SWAP1 PUSH1 0x20 ADD SWAP1 SWAP2 SWAP1 POP POP PUSH2 0x18E5 JUMP JUMPDEST PUSH1 0x40 MLOAD DUP1 DUP3 DUP2 MSTORE PUSH1 0x20 ADD SWAP2 POP POP PUSH1 0x40 MLOAD DUP1 SWAP2 SUB SWAP1 RETURN JUMPDEST CALLVALUE ISZERO PUSH2 0x7C0 JUMPI PUSH1 0x0 DUP1 REVERT JUMPDEST PUSH2 0x7DF PUSH1 0x4 DUP1 DUP1 CALLDATALOAD SWAP1 PUSH1 0x20 ADD SWAP1 SWAP2 SWAP1 DUP1 CALLDATALOAD SWAP1 PUSH1 0x20 ADD SWAP1 SWAP2 SWAP1 POP POP PUSH2 0x1912 JUMP JUMPDEST STOP JUMPDEST CALLVALUE ISZERO PUSH2 0x7EC JUMPI PUSH1 0x0 DUP1 REVERT JUMPDEST PUSH2 0x802 PUSH1 0x4 DUP1 DUP1 CALLDATALOAD SWAP1 PUSH1 0x20 ADD SWAP1 SWAP2 SWAP1 POP POP PUSH2 0x1A08 JUMP JUMPDEST STOP JUMPDEST CALLVALUE ISZERO PUSH2 0x80F JUMPI PUSH1 0x0 DUP1 REVERT JUMPDEST PUSH2 0x844 PUSH1 0x4 DUP1 DUP1 CALLDATALOAD PUSH20 0xFFFFFFFFFFFFFFFFFFFFFFFFFFFFFFFFFFFFFFFF AND SWAP1 PUSH1 0x20 ADD SWAP1 SWAP2 SWAP1 DUP1 CALLDATALOAD SWAP1 PUSH1 0x20 ADD SWAP1 SWAP2 SWAP1 POP POP PUSH2 0x1C18 JUMP JUMPDEST PUSH1 0x40 MLOAD DUP1 DUP3 ISZERO ISZERO ISZERO ISZERO DUP2 MSTORE PUSH1 0x20 ADD SWAP2 POP POP PUSH1 0x40 MLOAD DUP1 SWAP2 SUB SWAP1 RETURN JUMPDEST CALLVALUE ISZERO PUSH2 0x869 JUMPI PUSH1 0x0 DUP1 REVERT JUMPDEST PUSH2 0x87F PUSH1 0x4 DUP1 DUP1 CALLDATALOAD SWAP1 PUSH1 0x20 ADD SWAP1 SWAP2 SWAP1 POP POP PUSH2 0x1D81 JUMP JUMPDEST STOP JUMPDEST CALLVALUE ISZERO PUSH2 0x88C JUMPI PUSH1 0x0 DUP1 REVERT JUMPDEST PUSH2 0x8D7 PUSH1 0x4 DUP1 DUP1 CALLDATALOAD PUSH20 0xFFFFFFFFFFFFFFFFFFFFFFFFFFFFFFFFFFFFFFFF AND SWAP1 PUSH1 0x20 ADD SWAP1 SWAP2 SWAP1 DUP1 CALLDATALOAD PUSH20 0xFFFFFFFFFFFFFFFFFFFFFFFFFFFFFFFFFFFFFFFF AND SWAP1 PUSH1 0x20 ADD SWAP1 SWAP2 SWAP1 POP POP PUSH2 0x1F91 JUMP JUMPDEST PUSH1 0x40 MLOAD DUP1 DUP3 DUP2 MSTORE PUSH1 0x20 ADD SWAP2 POP POP PUSH1 0x40 MLOAD DUP1 SWAP2 SUB SWAP1 RETURN JUMPDEST CALLVALUE ISZERO PUSH2 0x8F8 JUMPI PUSH1 0x0 DUP1 REVERT JUMPDEST PUSH2 0x900 PUSH2 0x20D6 JUMP JUMPDEST PUSH1 0x40 MLOAD DUP1 DUP3 DUP2 MSTORE PUSH1 0x20 ADD SWAP2 POP POP PUSH1 0x40 MLOAD DUP1 SWAP2 SUB SWAP1 RETURN JUMPDEST CALLVALUE ISZERO PUSH2 0x921 JUMPI PUSH1 0x0 DUP1 REVERT JUMPDEST PUSH2 0x94D PUSH1 0x4 DUP1 DUP1 CALLDATALOAD PUSH20 0xFFFFFFFFFFFFFFFFFFFFFFFFFFFFFFFFFFFFFFFF AND SWAP1 PUSH1 0x20 ADD SWAP1 SWAP2 SWAP1 POP POP PUSH2 0x20DC JUMP JUMPDEST PUSH1 0x40 MLOAD DUP1 DUP3 ISZERO ISZERO ISZERO ISZERO DUP2 MSTORE PUSH1 0x20 ADD SWAP2 POP POP PUSH1 0x40 MLOAD DUP1 SWAP2 SUB SWAP1 RETURN JUMPDEST CALLVALUE ISZERO PUSH2 0x972 JUMPI PUSH1 0x0 DUP1 REVERT JUMPDEST PUSH2 0x99E PUSH1 0x4 DUP1 DUP1 CALLDATALOAD PUSH20 0xFFFFFFFFFFFFFFFFFFFFFFFFFFFFFFFFFFFFFFFF AND SWAP1 PUSH1 0x20 ADD SWAP1 SWAP2 SWAP1 POP POP PUSH2 0x20FC JUMP JUMPDEST STOP JUMPDEST CALLVALUE ISZERO PUSH2 0x9AB JUMPI PUSH1 0x0 DUP1 REVERT JUMPDEST PUSH2 0x9B3 PUSH2 0x21F6 JUMP JUMPDEST PUSH1 0x40 MLOAD DUP1 DUP3 DUP2 MSTORE PUSH1 0x20 ADD SWAP2 POP POP PUSH1 0x40 MLOAD DUP1 SWAP2 SUB SWAP1 RETURN JUMPDEST CALLVALUE ISZERO PUSH2 0x9D4 JUMPI PUSH1 0x0 DUP1 REVERT JUMPDEST PUSH2 0xA00 PUSH1 0x4 DUP1 DUP1 CALLDATALOAD PUSH20 0xFFFFFFFFFFFFFFFFFFFFFFFFFFFFFFFFFFFFFFFF AND SWAP1 PUSH1 0x20 ADD SWAP1 SWAP2 SWAP1 POP POP PUSH2 0x221A JUMP JUMPDEST STOP JUMPDEST CALLVALUE ISZERO PUSH2 0xA0D JUMPI PUSH1 0x0 DUP1 REVERT JUMPDEST PUSH2 0xA39 PUSH1 0x4 DUP1 DUP1 CALLDATALOAD PUSH20 0xFFFFFFFFFFFFFFFFFFFFFFFFFFFFFFFFFFFFFFFF AND SWAP1 PUSH1 0x20 ADD SWAP1 SWAP2 SWAP1 POP POP PUSH2 0x2372 JUMP JUMPDEST STOP JUMPDEST PUSH1 0x5 DUP1 SLOAD PUSH1 0x1 DUP2 PUSH1 0x1 AND ISZERO PUSH2 0x100 MUL SUB AND PUSH1 0x2 SWAP1 DIV DUP1 PUSH1 0x1F ADD PUSH1 0x20 DUP1 SWAP2 DIV MUL PUSH1 0x20 ADD PUSH1 0x40 MLOAD SWAP1 DUP2 ADD PUSH1 0x40 MSTORE DUP1 SWAP3 SWAP2 SWAP1 DUP2 DUP2 MSTORE PUSH1 0x20 ADD DUP3 DUP1 SLOAD PUSH1 0x1 DUP2 PUSH1 0x1 AND ISZERO PUSH2 0x100 MUL SUB AND PUSH1 0x2 SWAP1 DIV DUP1 ISZERO PUSH2 0xAD1 JUMPI DUP1 PUSH1 0x1F LT PUSH2 0xAA6 JUMPI PUSH2 0x100 DUP1 DUP4 SLOAD DIV MUL DUP4 MSTORE SWAP2 PUSH1 0x20 ADD SWAP2 PUSH2 0xAD1 JUMP JUMPDEST DUP3 ADD SWAP2 SWAP1 PUSH1 0x0 MSTORE PUSH1 0x20 PUSH1 0x0 KECCAK256 SWAP1 JUMPDEST DUP2 SLOAD DUP2 MSTORE SWAP1 PUSH1 0x1 ADD SWAP1 PUSH1 0x20 ADD DUP1 DUP4 GT PUSH2 0xAB4 JUMPI DUP3 SWAP1 SUB PUSH1 0x1F AND DUP3 ADD SWAP2 JUMPDEST POP POP POP POP POP DUP2 JUMP JUMPDEST PUSH1 0x2 PUSH1 0x0 SWAP1 SLOAD SWAP1 PUSH2 0x100 EXP SWAP1 DIV PUSH20 0xFFFFFFFFFFFFFFFFFFFFFFFFFFFFFFFFFFFFFFFF AND PUSH20 0xFFFFFFFFFFFFFFFFFFFFFFFFFFFFFFFFFFFFFFFF AND CALLER PUSH20 0xFFFFFFFFFFFFFFFFFFFFFFFFFFFFFFFFFFFFFFFF AND EQ ISZERO ISZERO PUSH2 0xB35 JUMPI PUSH1 0x0 DUP1 REVERT JUMPDEST PUSH1 0x0 PUSH20 0xFFFFFFFFFFFFFFFFFFFFFFFFFFFFFFFFFFFFFFFF AND DUP2 PUSH20 0xFFFFFFFFFFFFFFFFFFFFFFFFFFFFFFFFFFFFFFFF AND EQ ISZERO ISZERO ISZERO PUSH2 0xB71 JUMPI PUSH1 0x0 DUP1 REVERT JUMPDEST PUSH1 0x1 PUSH1 0xA PUSH1 0x14 PUSH2 0x100 EXP DUP2 SLOAD DUP2 PUSH1 0xFF MUL NOT AND SWAP1 DUP4 ISZERO ISZERO MUL OR SWAP1 SSTORE POP DUP1 PUSH1 0xA PUSH1 0x0 PUSH2 0x100 EXP DUP2 SLOAD DUP2 PUSH20 0xFFFFFFFFFFFFFFFFFFFFFFFFFFFFFFFFFFFFFFFF MUL NOT AND SWAP1 DUP4 PUSH20 0xFFFFFFFFFFFFFFFFFFFFFFFFFFFFFFFFFFFFFFFF AND MUL OR SWAP1 SSTORE POP PUSH32 0xCC358699805E9A8B7F77B522628C7CB9ABD07D9EFB86B6FB616AF1609036A99E DUP2 PUSH1 0x40 MLOAD DUP1 DUP3 PUSH20 0xFFFFFFFFFFFFFFFFFFFFFFFFFFFFFFFFFFFFFFFF AND PUSH20 0xFFFFFFFFFFFFFFFFFFFFFFFFFFFFFFFFFFFFFFFF AND DUP2 MSTORE PUSH1 0x20 ADD SWAP2 POP POP PUSH1 0x40 MLOAD DUP1 SWAP2 SUB SWAP1 LOG1 POP JUMP JUMPDEST PUSH1 0x0 PUSH1 0x2 PUSH1 0x14 SWAP1 SLOAD SWAP1 PUSH2 0x100 EXP SWAP1 DIV PUSH1 0xFF AND ISZERO ISZERO ISZERO PUSH2 0xC51 JUMPI PUSH1 0x0 DUP1 REVERT JUMPDEST PUSH1 0xA PUSH1 0x14 SWAP1 SLOAD SWAP1 PUSH2 0x100 EXP SWAP1 DIV PUSH1 0xFF AND ISZERO PUSH2 0xD89 JUMPI PUSH1 0xA PUSH1 0x0 SWAP1 SLOAD SWAP1 PUSH2 0x100 EXP SWAP1 DIV PUSH20 0xFFFFFFFFFFFFFFFFFFFFFFFFFFFFFFFFFFFFFFFF AND PUSH20 0xFFFFFFFFFFFFFFFFFFFFFFFFFFFFFFFFFFFFFFFF AND PUSH4 0xAEE92D33 CALLER DUP6 DUP6 PUSH1 0x0 PUSH1 0x40 MLOAD PUSH1 0x20 ADD MSTORE PUSH1 0x40 MLOAD DUP5 PUSH4 0xFFFFFFFF AND PUSH29 0x100000000000000000000000000000000000000000000000000000000 MUL DUP2 MSTORE PUSH1 0x4 ADD DUP1 DUP5 PUSH20 0xFFFFFFFFFFFFFFFFFFFFFFFFFFFFFFFFFFFFFFFF AND PUSH20 0xFFFFFFFFFFFFFFFFFFFFFFFFFFFFFFFFFFFFFFFF AND DUP2 MSTORE PUSH1 0x20 ADD DUP4 PUSH20 0xFFFFFFFFFFFFFFFFFFFFFFFFFFFFFFFFFFFFFFFF AND PUSH20 0xFFFFFFFFFFFFFFFFFFFFFFFFFFFFFFFFFFFFFFFF AND DUP2 MSTORE PUSH1 0x20 ADD DUP3 DUP2 MSTORE PUSH1 0x20 ADD SWAP4 POP POP POP POP PUSH1 0x20 PUSH1 0x40 MLOAD DUP1 DUP4 SUB DUP2 PUSH1 0x0 DUP8 DUP1 EXTCODESIZE ISZERO ISZERO PUSH2 0xD67 JUMPI PUSH1 0x0 DUP1 REVERT JUMPDEST PUSH2 0x2C6 GAS SUB CALL ISZERO ISZERO PUSH2 0xD78 JUMPI PUSH1 0x0 DUP1 REVERT JUMPDEST POP POP POP PUSH1 0x40 MLOAD DUP1 MLOAD SWAP1 POP SWAP1 POP PUSH2 0xD96 JUMP JUMPDEST PUSH2 0xD93 DUP4 DUP4 PUSH2 0x24E4 JUMP JUMPDEST SWAP1 POP JUMPDEST SWAP3 SWAP2 POP POP JUMP JUMPDEST PUSH1 0xA PUSH1 0x14 SWAP1 SLOAD SWAP1 PUSH2 0x100 EXP SWAP1 DIV PUSH1 0xFF AND DUP2 JUMP JUMPDEST PUSH1 0x2 PUSH1 0x0 SWAP1 SLOAD SWAP1 PUSH2 0x100 EXP SWAP1 DIV PUSH20 0xFFFFFFFFFFFFFFFFFFFFFFFFFFFFFFFFFFFFFFFF AND PUSH20 0xFFFFFFFFFFFFFFFFFFFFFFFFFFFFFFFFFFFFFFFF AND CALLER PUSH20 0xFFFFFFFFFFFFFFFFFFFFFFFFFFFFFFFFFFFFFFFF AND EQ ISZERO ISZERO PUSH2 0xE0B JUMPI PUSH1 0x0 DUP1 REVERT JUMPDEST PUSH1 0x1 PUSH1 0x9 PUSH1 0x0 DUP4 PUSH20 0xFFFFFFFFFFFFFFFFFFFFFFFFFFFFFFFFFFFFFFFF AND PUSH20 0xFFFFFFFFFFFFFFFFFFFFFFFFFFFFFFFFFFFFFFFF AND DUP2 MSTORE PUSH1 0x20 ADD SWAP1 DUP2 MSTORE PUSH1 0x20 ADD PUSH1 0x0 KECCAK256 PUSH1 0x0 PUSH2 0x100 EXP DUP2 SLOAD DUP2 PUSH1 0xFF MUL NOT AND SWAP1 DUP4 ISZERO ISZERO MUL OR SWAP1 SSTORE POP DUP1 PUSH20 0xFFFFFFFFFFFFFFFFFFFFFFFFFFFFFFFFFFFFFFFF AND PUSH32 0x42E160154868087D6BFDC0CA23D96A1C1CFA32F1B72BA9BA27B69B98A0D819DC PUSH1 0x40 MLOAD PUSH1 0x40 MLOAD DUP1 SWAP2 SUB SWAP1 LOG2 POP JUMP JUMPDEST PUSH1 0x0 PUSH1 0xA PUSH1 0x14 SWAP1 SLOAD SWAP1 PUSH2 0x100 EXP SWAP1 DIV PUSH1 0xFF AND ISZERO PUSH2 0xF70 JUMPI PUSH1 0xA PUSH1 0x0 SWAP1 SLOAD SWAP1 PUSH2 0x100 EXP SWAP1 DIV PUSH20 0xFFFFFFFFFFFFFFFFFFFFFFFFFFFFFFFFFFFFFFFF AND PUSH20 0xFFFFFFFFFFFFFFFFFFFFFFFFFFFFFFFFFFFFFFFF AND PUSH4 0x18160DDD PUSH1 0x0 PUSH1 0x40 MLOAD PUSH1 0x20 ADD MSTORE PUSH1 0x40 MLOAD DUP2 PUSH4 0xFFFFFFFF AND PUSH29 0x100000000000000000000000000000000000000000000000000000000 MUL DUP2 MSTORE PUSH1 0x4 ADD PUSH1 0x20 PUSH1 0x40 MLOAD DUP1 DUP4 SUB DUP2 PUSH1 0x0 DUP8 DUP1 EXTCODESIZE ISZERO ISZERO PUSH2 0xF4E JUMPI PUSH1 0x0 DUP1 REVERT JUMPDEST PUSH2 0x2C6 GAS SUB CALL ISZERO ISZERO PUSH2 0xF5F JUMPI PUSH1 0x0 DUP1 REVERT JUMPDEST POP POP POP PUSH1 0x40 MLOAD DUP1 MLOAD SWAP1 POP SWAP1 POP PUSH2 0xF76 JUMP JUMPDEST PUSH1 0x8 SLOAD SWAP1 POP JUMPDEST SWAP1 JUMP JUMPDEST PUSH1 0x0 PUSH1 0x2 PUSH1 0x14 SWAP1 SLOAD SWAP1 PUSH2 0x100 EXP SWAP1 DIV PUSH1 0xFF AND ISZERO ISZERO ISZERO PUSH2 0xF97 JUMPI PUSH1 0x0 DUP1 REVERT JUMPDEST PUSH1 0x9 PUSH1 0x0 DUP6 PUSH20 0xFFFFFFFFFFFFFFFFFFFFFFFFFFFFFFFFFFFFFFFF AND PUSH20 0xFFFFFFFFFFFFFFFFFFFFFFFFFFFFFFFFFFFFFFFF AND DUP2 MSTORE PUSH1 0x20 ADD SWAP1 DUP2 MSTORE PUSH1 0x20 ADD PUSH1 0x0 KECCAK256 PUSH1 0x0 SWAP1 SLOAD SWAP1 PUSH2 0x100 EXP SWAP1 DIV PUSH1 0xFF AND ISZERO ISZERO ISZERO PUSH2 0xFF0 JUMPI PUSH1 0x0 DUP1 REVERT JUMPDEST PUSH1 0xA PUSH1 0x14 SWAP1 SLOAD SWAP1 PUSH2 0x100 EXP SWAP1 DIV PUSH1 0xFF AND ISZERO PUSH2 0x115C JUMPI PUSH1 0xA PUSH1 0x0 SWAP1 SLOAD SWAP1 PUSH2 0x100 EXP SWAP1 DIV PUSH20 0xFFFFFFFFFFFFFFFFFFFFFFFFFFFFFFFFFFFFFFFF AND PUSH20 0xFFFFFFFFFFFFFFFFFFFFFFFFFFFFFFFFFFFFFFFF AND PUSH4 0x8B477ADB CALLER DUP7 DUP7 DUP7 PUSH1 0x0 PUSH1 0x40 MLOAD PUSH1 0x20 ADD MSTORE PUSH1 0x40 MLOAD DUP6 PUSH4 0xFFFFFFFF AND PUSH29 0x100000000000000000000000000000000000000000000000000000000 MUL DUP2 MSTORE PUSH1 0x4 ADD DUP1 DUP6 PUSH20 0xFFFFFFFFFFFFFFFFFFFFFFFFFFFFFFFFFFFFFFFF AND PUSH20 0xFFFFFFFFFFFFFFFFFFFFFFFFFFFFFFFFFFFFFFFF AND DUP2 MSTORE PUSH1 0x20 ADD DUP5 PUSH20 0xFFFFFFFFFFFFFFFFFFFFFFFFFFFFFFFFFFFFFFFF AND PUSH20 0xFFFFFFFFFFFFFFFFFFFFFFFFFFFFFFFFFFFFFFFF AND DUP2 MSTORE PUSH1 0x20 ADD DUP4 PUSH20 0xFFFFFFFFFFFFFFFFFFFFFFFFFFFFFFFFFFFFFFFF AND PUSH20 0xFFFFFFFFFFFFFFFFFFFFFFFFFFFFFFFFFFFFFFFF AND DUP2 MSTORE PUSH1 0x20 ADD DUP3 DUP2 MSTORE PUSH1 0x20 ADD SWAP5 POP POP POP POP POP PUSH1 0x20 PUSH1 0x40 MLOAD DUP1 DUP4 SUB DUP2 PUSH1 0x0 DUP8 DUP1 EXTCODESIZE ISZERO ISZERO PUSH2 0x113A JUMPI PUSH1 0x0 DUP1 REVERT JUMPDEST PUSH2 0x2C6 GAS SUB CALL ISZERO ISZERO PUSH2 0x114B JUMPI PUSH1 0x0 DUP1 REVERT JUMPDEST POP POP POP PUSH1 0x40 MLOAD DUP1 MLOAD SWAP1 POP SWAP1 POP PUSH2 0x116A JUMP JUMPDEST PUSH2 0x1167 DUP5 DUP5 DUP5 PUSH2 0x25D6 JUMP JUMPDEST SWAP1 POP JUMPDEST SWAP4 SWAP3 POP POP POP JUMP JUMPDEST PUSH1 0xA PUSH1 0x0 SWAP1 SLOAD SWAP1 PUSH2 0x100 EXP SWAP1 DIV PUSH20 0xFFFFFFFFFFFFFFFFFFFFFFFFFFFFFFFFFFFFFFFF AND DUP2 JUMP JUMPDEST PUSH1 0x7 PUSH1 0x0 SWAP1 SLOAD SWAP1 PUSH2 0x100 EXP SWAP1 DIV PUSH1 0xFF AND DUP2 JUMP JUMPDEST PUSH1 0x4 SLOAD DUP2 JUMP JUMPDEST PUSH1 0x8 SLOAD DUP2 JUMP JUMPDEST PUSH1 0x2 PUSH1 0x0 SWAP1 SLOAD SWAP1 PUSH2 0x100 EXP SWAP1 DIV PUSH20 0xFFFFFFFFFFFFFFFFFFFFFFFFFFFFFFFFFFFFFFFF AND PUSH20 0xFFFFFFFFFFFFFFFFFFFFFFFFFFFFFFFFFFFFFFFF AND CALLER PUSH20 0xFFFFFFFFFFFFFFFFFFFFFFFFFFFFFFFFFFFFFFFF AND EQ ISZERO ISZERO PUSH2 0x1212 JUMPI PUSH1 0x0 DUP1 REVERT JUMPDEST PUSH1 0x2 PUSH1 0x14 SWAP1 SLOAD SWAP1 PUSH2 0x100 EXP SWAP1 DIV PUSH1 0xFF AND ISZERO ISZERO PUSH2 0x122D JUMPI PUSH1 0x0 DUP1 REVERT JUMPDEST PUSH1 0x0 PUSH1 0x2 PUSH1 0x14 PUSH2 0x100 EXP DUP2 SLOAD DUP2 PUSH1 0xFF MUL NOT AND SWAP1 DUP4 ISZERO ISZERO MUL OR SWAP1 SSTORE POP PUSH32 0x7805862F689E2F13DF9F062FF482AD3AD112ACA9E0847911ED832E158C525B33 PUSH1 0x40 MLOAD PUSH1 0x40 MLOAD DUP1 SWAP2 SUB SWAP1 LOG1 JUMP JUMPDEST PUSH1 0x0 PUSH1 0x9 PUSH1 0x0 DUP4 PUSH20 0xFFFFFFFFFFFFFFFFFFFFFFFFFFFFFFFFFFFFFFFF AND PUSH20 0xFFFFFFFFFFFFFFFFFFFFFFFFFFFFFFFFFFFFFFFF AND DUP2 MSTORE PUSH1 0x20 ADD SWAP1 DUP2 MSTORE PUSH1 0x20 ADD PUSH1 0x0 KECCAK256 PUSH1 0x0 SWAP1 SLOAD SWAP1 PUSH2 0x100 EXP SWAP1 DIV PUSH1 0xFF AND SWAP1 POP SWAP2 SWAP1 POP JUMP JUMPDEST PUSH1 0x2 PUSH1 0x14 SWAP1 SLOAD SWAP1 PUSH2 0x100 EXP SWAP1 DIV PUSH1 0xFF AND DUP2 JUMP JUMPDEST PUSH1 0x0 PUSH1 0x2 PUSH1 0x14 SWAP1 SLOAD SWAP1 PUSH2 0x100 EXP SWAP1 DIV PUSH1 0xFF AND ISZERO ISZERO ISZERO PUSH2 0x12FD JUMPI PUSH1 0x0 DUP1 REVERT JUMPDEST PUSH1 0xA PUSH1 0x14 SWAP1 SLOAD SWAP1 PUSH2 0x100 EXP SWAP1 DIV PUSH1 0xFF AND ISZERO PUSH2 0x1435 JUMPI PUSH1 0xA PUSH1 0x0 SWAP1 SLOAD SWAP1 PUSH2 0x100 EXP SWAP1 DIV PUSH20 0xFFFFFFFFFFFFFFFFFFFFFFFFFFFFFFFFFFFFFFFF AND PUSH20 0xFFFFFFFFFFFFFFFFFFFFFFFFFFFFFFFFFFFFFFFF AND PUSH4 0x6001279F CALLER DUP6 DUP6 PUSH1 0x0 PUSH1 0x40 MLOAD PUSH1 0x20 ADD MSTORE PUSH1 0x40 MLOAD DUP5 PUSH4 0xFFFFFFFF AND PUSH29 0x100000000000000000000000000000000000000000000000000000000 MUL DUP2 MSTORE PUSH1 0x4 ADD DUP1 DUP5 PUSH20 0xFFFFFFFFFFFFFFFFFFFFFFFFFFFFFFFFFFFFFFFF AND PUSH20 0xFFFFFFFFFFFFFFFFFFFFFFFFFFFFFFFFFFFFFFFF AND DUP2 MSTORE PUSH1 0x20 ADD DUP4 PUSH20 0xFFFFFFFFFFFFFFFFFFFFFFFFFFFFFFFFFFFFFFFF AND PUSH20 0xFFFFFFFFFFFFFFFFFFFFFFFFFFFFFFFFFFFFFFFF AND DUP2 MSTORE PUSH1 0x20 ADD DUP3 DUP2 MSTORE PUSH1 0x20 ADD SWAP4 POP POP POP POP PUSH1 0x20 PUSH1 0x40 MLOAD DUP1 DUP4 SUB DUP2 PUSH1 0x0 DUP8 DUP1 EXTCODESIZE ISZERO ISZERO PUSH2 0x1413 JUMPI PUSH1 0x0 DUP1 REVERT JUMPDEST PUSH2 0x2C6 GAS SUB CALL ISZERO ISZERO PUSH2 0x1424 JUMPI PUSH1 0x0 DUP1 REVERT JUMPDEST POP POP POP PUSH1 0x40 MLOAD DUP1 MLOAD SWAP1 POP SWAP1 POP PUSH2 0x1442 JUMP JUMPDEST PUSH2 0x143F DUP4 DUP4 PUSH2 0x2BC2 JUMP JUMPDEST SWAP1 POP JUMPDEST SWAP3 SWAP2 POP POP JUMP JUMPDEST PUSH1 0x0 PUSH1 0xA PUSH1 0x14 SWAP1 SLOAD SWAP1 PUSH2 0x100 EXP SWAP1 DIV PUSH1 0xFF AND ISZERO PUSH2 0x1546 JUMPI PUSH1 0xA PUSH1 0x0 SWAP1 SLOAD SWAP1 PUSH2 0x100 EXP SWAP1 DIV PUSH20 0xFFFFFFFFFFFFFFFFFFFFFFFFFFFFFFFFFFFFFFFF AND PUSH20 0xFFFFFFFFFFFFFFFFFFFFFFFFFFFFFFFFFFFFFFFF AND PUSH4 0x70A08231 DUP4 PUSH1 0x0 PUSH1 0x40 MLOAD PUSH1 0x20 ADD MSTORE PUSH1 0x40 MLOAD DUP3 PUSH4 0xFFFFFFFF AND PUSH29 0x100000000000000000000000000000000000000000000000000000000 MUL DUP2 MSTORE PUSH1 0x4 ADD DUP1 DUP3 PUSH20 0xFFFFFFFFFFFFFFFFFFFFFFFFFFFFFFFFFFFFFFFF AND PUSH20 0xFFFFFFFFFFFFFFFFFFFFFFFFFFFFFFFFFFFFFFFF AND DUP2 MSTORE PUSH1 0x20 ADD SWAP2 POP POP PUSH1 0x20 PUSH1 0x40 MLOAD DUP1 DUP4 SUB DUP2 PUSH1 0x0 DUP8 DUP1 EXTCODESIZE ISZERO ISZERO PUSH2 0x1524 JUMPI PUSH1 0x0 DUP1 REVERT JUMPDEST PUSH2 0x2C6 GAS SUB CALL ISZERO ISZERO PUSH2 0x1535 JUMPI PUSH1 0x0 DUP1 REVERT JUMPDEST POP POP POP PUSH1 0x40 MLOAD DUP1 MLOAD SWAP1 POP SWAP1 POP PUSH2 0x1552 JUMP JUMPDEST PUSH2 0x154F DUP3 PUSH2 0x2E53 JUMP JUMPDEST SWAP1 POP JUMPDEST SWAP2 SWAP1 POP JUMP JUMPDEST PUSH1 0x0 DUP1 PUSH2 0x1583 PUSH2 0x2710 PUSH2 0x1575 PUSH1 0x3 SLOAD DUP7 PUSH2 0x2E9B SWAP1 SWAP2 SWAP1 PUSH4 0xFFFFFFFF AND JUMP JUMPDEST PUSH2 0x2ED6 SWAP1 SWAP2 SWAP1 PUSH4 0xFFFFFFFF AND JUMP JUMPDEST SWAP1 POP PUSH1 0x4 SLOAD DUP2 GT ISZERO PUSH2 0x1595 JUMPI PUSH1 0x4 SLOAD SWAP1 POP JUMPDEST DUP1 SWAP2 POP POP SWAP2 SWAP1 POP JUMP JUMPDEST PUSH1 0x2 PUSH1 0x0 SWAP1 SLOAD SWAP1 PUSH2 0x100 EXP SWAP1 DIV PUSH20 0xFFFFFFFFFFFFFFFFFFFFFFFFFFFFFFFFFFFFFFFF AND PUSH20 0xFFFFFFFFFFFFFFFFFFFFFFFFFFFFFFFFFFFFFFFF AND CALLER PUSH20 0xFFFFFFFFFFFFFFFFFFFFFFFFFFFFFFFFFFFFFFFF AND EQ ISZERO ISZERO PUSH2 0x15FA JUMPI PUSH1 0x0 DUP1 REVERT JUMPDEST PUSH1 0x2 PUSH1 0x14 SWAP1 SLOAD SWAP1 PUSH2 0x100 EXP SWAP1 DIV PUSH1 0xFF AND ISZERO ISZERO ISZERO PUSH2 0x1616 JUMPI PUSH1 0x0 DUP1 REVERT JUMPDEST PUSH1 0x1 PUSH1 0x2 PUSH1 0x14 PUSH2 0x100 EXP DUP2 SLOAD DUP2 PUSH1 0xFF MUL NOT AND SWAP1 DUP4 ISZERO ISZERO MUL OR SWAP1 SSTORE POP PUSH32 0x6985A02210A168E66602D3235CB6DB0E70F92B3BA4D376A33C0F3D9434BFF625 PUSH1 0x40 MLOAD PUSH1 0x40 MLOAD DUP1 SWAP2 SUB SWAP1 LOG1 JUMP JUMPDEST PUSH1 0x2 PUSH1 0x0 SWAP1 SLOAD SWAP1 PUSH2 0x100 EXP SWAP1 DIV PUSH20 0xFFFFFFFFFFFFFFFFFFFFFFFFFFFFFFFFFFFFFFFF AND DUP2 JUMP JUMPDEST PUSH1 0x6 DUP1 SLOAD PUSH1 0x1 DUP2 PUSH1 0x1 AND ISZERO PUSH2 0x100 MUL SUB AND PUSH1 0x2 SWAP1 DIV DUP1 PUSH1 0x1F ADD PUSH1 0x20 DUP1 SWAP2 DIV MUL PUSH1 0x20 ADD PUSH1 0x40 MLOAD SWAP1 DUP2 ADD PUSH1 0x40 MSTORE DUP1 SWAP3 SWAP2 SWAP1 DUP2 DUP2 MSTORE PUSH1 0x20 ADD DUP3 DUP1 SLOAD PUSH1 0x1 DUP2 PUSH1 0x1 AND ISZERO PUSH2 0x100 MUL SUB AND PUSH1 0x2 SWAP1 DIV DUP1 ISZERO PUSH2 0x171B JUMPI DUP1 PUSH1 0x1F LT PUSH2 0x16F0 JUMPI PUSH2 0x100 DUP1 DUP4 SLOAD DIV MUL DUP4 MSTORE SWAP2 PUSH1 0x20 ADD SWAP2 PUSH2 0x171B JUMP JUMPDEST DUP3 ADD SWAP2 SWAP1 PUSH1 0x0 MSTORE PUSH1 0x20 PUSH1 0x0 KECCAK256 SWAP1 JUMPDEST DUP2 SLOAD DUP2 MSTORE SWAP1 PUSH1 0x1 ADD SWAP1 PUSH1 0x20 ADD DUP1 DUP4 GT PUSH2 0x16FE JUMPI DUP3 SWAP1 SUB PUSH1 0x1F AND DUP3 ADD SWAP2 JUMPDEST POP POP POP POP POP DUP2 JUMP JUMPDEST PUSH1 0x0 PUSH1 0x2 PUSH1 0x14 SWAP1 SLOAD SWAP1 PUSH2 0x100 EXP SWAP1 DIV PUSH1 0xFF AND ISZERO ISZERO ISZERO PUSH2 0x1741 JUMPI PUSH1 0x0 DUP1 REVERT JUMPDEST PUSH1 0x9 PUSH1 0x0 CALLER PUSH20 0xFFFFFFFFFFFFFFFFFFFFFFFFFFFFFFFFFFFFFFFF AND PUSH20 0xFFFFFFFFFFFFFFFFFFFFFFFFFFFFFFFFFFFFFFFF AND DUP2 MSTORE PUSH1 0x20 ADD SWAP1 DUP2 MSTORE PUSH1 0x20 ADD PUSH1 0x0 KECCAK256 PUSH1 0x0 SWAP1 SLOAD SWAP1 PUSH2 0x100 EXP SWAP1 DIV PUSH1 0xFF AND ISZERO ISZERO ISZERO PUSH2 0x179A JUMPI PUSH1 0x0 DUP1 REVERT JUMPDEST PUSH1 0xA PUSH1 0x14 SWAP1 SLOAD SWAP1 PUSH2 0x100 EXP SWAP1 DIV PUSH1 0xFF AND ISZERO PUSH2 0x18D2 JUMPI PUSH1 0xA PUSH1 0x0 SWAP1 SLOAD SWAP1 PUSH2 0x100 EXP SWAP1 DIV PUSH20 0xFFFFFFFFFFFFFFFFFFFFFFFFFFFFFFFFFFFFFFFF AND PUSH20 0xFFFFFFFFFFFFFFFFFFFFFFFFFFFFFFFFFFFFFFFF AND PUSH4 0x6E18980A CALLER DUP6 DUP6 PUSH1 0x0 PUSH1 0x40 MLOAD PUSH1 0x20 ADD MSTORE PUSH1 0x40 MLOAD DUP5 PUSH4 0xFFFFFFFF AND PUSH29 0x100000000000000000000000000000000000000000000000000000000 MUL DUP2 MSTORE PUSH1 0x4 ADD DUP1 DUP5 PUSH20 0xFFFFFFFFFFFFFFFFFFFFFFFFFFFFFFFFFFFFFFFF AND PUSH20 0xFFFFFFFFFFFFFFFFFFFFFFFFFFFFFFFFFFFFFFFF AND DUP2 MSTORE PUSH1 0x20 ADD DUP4 PUSH20 0xFFFFFFFFFFFFFFFFFFFFFFFFFFFFFFFFFFFFFFFF AND PUSH20 0xFFFFFFFFFFFFFFFFFFFFFFFFFFFFFFFFFFFFFFFF AND DUP2 MSTORE PUSH1 0x20 ADD DUP3 DUP2 MSTORE PUSH1 0x20 ADD SWAP4 POP POP POP POP PUSH1 0x20 PUSH1 0x40 MLOAD DUP1 DUP4 SUB DUP2 PUSH1 0x0 DUP8 DUP1 EXTCODESIZE ISZERO ISZERO PUSH2 0x18B0 JUMPI PUSH1 0x0 DUP1 REVERT JUMPDEST PUSH2 0x2C6 GAS SUB CALL ISZERO ISZERO PUSH2 0x18C1 JUMPI PUSH1 0x0 DUP1 REVERT JUMPDEST POP POP POP PUSH1 0x40 MLOAD DUP1 MLOAD SWAP1 POP SWAP1 POP PUSH2 0x18DF JUMP JUMPDEST PUSH2 0x18DC DUP4 DUP4 PUSH2 0x2EF1 JUMP JUMPDEST SWAP1 POP JUMPDEST SWAP3 SWAP2 POP POP JUMP JUMPDEST PUSH1 0x0 PUSH1 0xA PUSH1 0x14 SWAP1 SLOAD SWAP1 PUSH2 0x100 EXP SWAP1 DIV PUSH1 0xFF AND ISZERO PUSH2 0x190C JUMPI PUSH2 0x1905 DUP3 PUSH2 0x2E53 JUMP JUMPDEST SWAP1 POP PUSH2 0x190D JUMP JUMPDEST JUMPDEST SWAP2 SWAP1 POP JUMP JUMPDEST PUSH1 0x2 PUSH1 0x0 SWAP1 SLOAD SWAP1 PUSH2 0x100 EXP SWAP1 DIV PUSH20 0xFFFFFFFFFFFFFFFFFFFFFFFFFFFFFFFFFFFFFFFF AND PUSH20 0xFFFFFFFFFFFFFFFFFFFFFFFFFFFFFFFFFFFFFFFF AND CALLER PUSH20 0xFFFFFFFFFFFFFFFFFFFFFFFFFFFFFFFFFFFFFFFF AND EQ ISZERO ISZERO PUSH2 0x196E JUMPI PUSH1 0x0 DUP1 REVERT JUMPDEST PUSH1 0x14 DUP3 LT ISZERO ISZERO PUSH2 0x197D JUMPI PUSH1 0x0 DUP1 REVERT JUMPDEST PUSH1 0x32 DUP2 LT ISZERO ISZERO PUSH2 0x198C JUMPI PUSH1 0x0 DUP1 REVERT JUMPDEST DUP2 PUSH1 0x3 DUP2 SWAP1 SSTORE POP PUSH2 0x19BB PUSH1 0x7 PUSH1 0x0 SWAP1 SLOAD SWAP1 PUSH2 0x100 EXP SWAP1 DIV PUSH1 0xFF AND PUSH1 0xFF AND PUSH1 0xA EXP DUP3 PUSH2 0x2E9B SWAP1 SWAP2 SWAP1 PUSH4 0xFFFFFFFF AND JUMP JUMPDEST PUSH1 0x4 DUP2 SWAP1 SSTORE POP PUSH32 0xB044A1E409EAC5C48E5AF22D4AF52670DD1A99059537A78B31B48C6500A6354E PUSH1 0x3 SLOAD PUSH1 0x4 SLOAD PUSH1 0x40 MLOAD DUP1 DUP4 DUP2 MSTORE PUSH1 0x20 ADD DUP3 DUP2 MSTORE PUSH1 0x20 ADD SWAP3 POP POP POP PUSH1 0x40 MLOAD DUP1 SWAP2 SUB SWAP1 LOG1 POP POP JUMP JUMPDEST PUSH1 0x2 PUSH1 0x0 SWAP1 SLOAD SWAP1 PUSH2 0x100 EXP SWAP1 DIV PUSH20 0xFFFFFFFFFFFFFFFFFFFFFFFFFFFFFFFFFFFFFFFF AND PUSH20 0xFFFFFFFFFFFFFFFFFFFFFFFFFFFFFFFFFFFFFFFF AND CALLER PUSH20 0xFFFFFFFFFFFFFFFFFFFFFFFFFFFFFFFFFFFFFFFF AND EQ ISZERO ISZERO PUSH2 0x1A64 JUMPI PUSH1 0x0 DUP1 REVERT JUMPDEST PUSH2 0x1AD7 DUP2 PUSH1 0x0 DUP1 PUSH1 0x2 PUSH1 0x0 SWAP1 SLOAD SWAP1 PUSH2 0x100 EXP SWAP1 DIV PUSH20 0xFFFFFFFFFFFFFFFFFFFFFFFFFFFFFFFFFFFFFFFF AND PUSH20 0xFFFFFFFFFFFFFFFFFFFFFFFFFFFFFFFFFFFFFFFF AND PUSH20 0xFFFFFFFFFFFFFFFFFFFFFFFFFFFFFFFFFFFFFFFF AND DUP2 MSTORE PUSH1 0x20 ADD SWAP1 DUP2 MSTORE PUSH1 0x20 ADD PUSH1 0x0 KECCAK256 SLOAD PUSH2 0x2F60 SWAP1 SWAP2 SWAP1 PUSH4 0xFFFFFFFF AND JUMP JUMPDEST PUSH1 0x0 DUP1 PUSH1 0x2 PUSH1 0x0 SWAP1 SLOAD SWAP1 PUSH2 0x100 EXP SWAP1 DIV PUSH20 0xFFFFFFFFFFFFFFFFFFFFFFFFFFFFFFFFFFFFFFFF AND PUSH20 0xFFFFFFFFFFFFFFFFFFFFFFFFFFFFFFFFFFFFFFFF AND PUSH20 0xFFFFFFFFFFFFFFFFFFFFFFFFFFFFFFFFFFFFFFFF AND DUP2 MSTORE PUSH1 0x20 ADD SWAP1 DUP2 MSTORE PUSH1 0x20 ADD PUSH1 0x0 KECCAK256 DUP2 SWAP1 SSTORE POP PUSH2 0x1B50 DUP2 PUSH1 0x8 SLOAD PUSH2 0x2F60 SWAP1 SWAP2 SWAP1 PUSH4 0xFFFFFFFF AND JUMP JUMPDEST PUSH1 0x8 DUP2 SWAP1 SSTORE POP PUSH32 0xCB8241ADB0C3FDB35B70C24CE35C5EB0C17AF7431C99F827D44A445CA624176A DUP2 PUSH1 0x40 MLOAD DUP1 DUP3 DUP2 MSTORE PUSH1 0x20 ADD SWAP2 POP POP PUSH1 0x40 MLOAD DUP1 SWAP2 SUB SWAP1 LOG1 PUSH1 0x2 PUSH1 0x0 SWAP1 SLOAD SWAP1 PUSH2 0x100 EXP SWAP1 DIV PUSH20 0xFFFFFFFFFFFFFFFFFFFFFFFFFFFFFFFFFFFFFFFF AND PUSH20 0xFFFFFFFFFFFFFFFFFFFFFFFFFFFFFFFFFFFFFFFF AND PUSH1 0x0 PUSH20 0xFFFFFFFFFFFFFFFFFFFFFFFFFFFFFFFFFFFFFFFF AND PUSH32 0xDDF252AD1BE2C89B69C2B068FC378DAA952BA7F163C4A11628F55A4DF523B3EF DUP4 PUSH1 0x40 MLOAD DUP1 DUP3 DUP2 MSTORE PUSH1 0x20 ADD SWAP2 POP POP PUSH1 0x40 MLOAD DUP1 SWAP2 SUB SWAP1 LOG3 POP JUMP JUMPDEST PUSH1 0x0 PUSH1 0x2 PUSH1 0x14 SWAP1 SLOAD SWAP1 PUSH2 0x100 EXP SWAP1 DIV PUSH1 0xFF AND ISZERO ISZERO ISZERO PUSH2 0x1C36 JUMPI PUSH1 0x0 DUP1 REVERT JUMPDEST PUSH1 0xA PUSH1 0x14 SWAP1 SLOAD SWAP1 PUSH2 0x100 EXP SWAP1 DIV PUSH1 0xFF AND ISZERO PUSH2 0x1D6E JUMPI PUSH1 0xA PUSH1 0x0 SWAP1 SLOAD SWAP1 PUSH2 0x100 EXP SWAP1 DIV PUSH20 0xFFFFFFFFFFFFFFFFFFFFFFFFFFFFFFFFFFFFFFFF AND PUSH20 0xFFFFFFFFFFFFFFFFFFFFFFFFFFFFFFFFFFFFFFFF AND PUSH4 0xA9538157 CALLER DUP6 DUP6 PUSH1 0x0 PUSH1 0x40 MLOAD PUSH1 0x20 ADD MSTORE PUSH1 0x40 MLOAD DUP5 PUSH4 0xFFFFFFFF AND PUSH29 0x100000000000000000000000000000000000000000000000000000000 MUL DUP2 MSTORE PUSH1 0x4 ADD DUP1 DUP5 PUSH20 0xFFFFFFFFFFFFFFFFFFFFFFFFFFFFFFFFFFFFFFFF AND PUSH20 0xFFFFFFFFFFFFFFFFFFFFFFFFFFFFFFFFFFFFFFFF AND DUP2 MSTORE PUSH1 0x20 ADD DUP4 PUSH20 0xFFFFFFFFFFFFFFFFFFFFFFFFFFFFFFFFFFFFFFFF AND PUSH20 0xFFFFFFFFFFFFFFFFFFFFFFFFFFFFFFFFFFFFFFFF AND DUP2 MSTORE PUSH1 0x20 ADD DUP3 DUP2 MSTORE PUSH1 0x20 ADD SWAP4 POP POP POP POP PUSH1 0x20 PUSH1 0x40 MLOAD DUP1 DUP4 SUB DUP2 PUSH1 0x0 DUP8 DUP1 EXTCODESIZE ISZERO ISZERO PUSH2 0x1D4C JUMPI PUSH1 0x0 DUP1 REVERT JUMPDEST PUSH2 0x2C6 GAS SUB CALL ISZERO ISZERO PUSH2 0x1D5D JUMPI PUSH1 0x0 DUP1 REVERT JUMPDEST POP POP POP PUSH1 0x40 MLOAD DUP1 MLOAD SWAP1 POP SWAP1 POP PUSH2 0x1D7B JUMP JUMPDEST PUSH2 0x1D78 DUP4 DUP4 PUSH2 0x2F7E JUMP JUMPDEST SWAP1 POP JUMPDEST SWAP3 SWAP2 POP POP JUMP JUMPDEST PUSH1 0x2 PUSH1 0x0 SWAP1 SLOAD SWAP1 PUSH2 0x100 EXP SWAP1 DIV PUSH20 0xFFFFFFFFFFFFFFFFFFFFFFFFFFFFFFFFFFFFFFFF AND PUSH20 0xFFFFFFFFFFFFFFFFFFFFFFFFFFFFFFFFFFFFFFFF AND CALLER PUSH20 0xFFFFFFFFFFFFFFFFFFFFFFFFFFFFFFFFFFFFFFFF AND EQ ISZERO ISZERO PUSH2 0x1DDD JUMPI PUSH1 0x0 DUP1 REVERT JUMPDEST PUSH2 0x1DF2 DUP2 PUSH1 0x8 SLOAD PUSH2 0x317A SWAP1 SWAP2 SWAP1 PUSH4 0xFFFFFFFF AND JUMP JUMPDEST PUSH1 0x8 DUP2 SWAP1 SSTORE POP PUSH2 0x1E6B DUP2 PUSH1 0x0 DUP1 PUSH1 0x2 PUSH1 0x0 SWAP1 SLOAD SWAP1 PUSH2 0x100 EXP SWAP1 DIV PUSH20 0xFFFFFFFFFFFFFFFFFFFFFFFFFFFFFFFFFFFFFFFF AND PUSH20 0xFFFFFFFFFFFFFFFFFFFFFFFFFFFFFFFFFFFFFFFF AND PUSH20 0xFFFFFFFFFFFFFFFFFFFFFFFFFFFFFFFFFFFFFFFF AND DUP2 MSTORE PUSH1 0x20 ADD SWAP1 DUP2 MSTORE PUSH1 0x20 ADD PUSH1 0x0 KECCAK256 SLOAD PUSH2 0x317A SWAP1 SWAP2 SWAP1 PUSH4 0xFFFFFFFF AND JUMP JUMPDEST PUSH1 0x0 DUP1 PUSH1 0x2 PUSH1 0x0 SWAP1 SLOAD SWAP1 PUSH2 0x100 EXP SWAP1 DIV PUSH20 0xFFFFFFFFFFFFFFFFFFFFFFFFFFFFFFFFFFFFFFFF AND PUSH20 0xFFFFFFFFFFFFFFFFFFFFFFFFFFFFFFFFFFFFFFFF AND PUSH20 0xFFFFFFFFFFFFFFFFFFFFFFFFFFFFFFFFFFFFFFFF AND DUP2 MSTORE PUSH1 0x20 ADD SWAP1 DUP2 MSTORE PUSH1 0x20 ADD PUSH1 0x0 KECCAK256 DUP2 SWAP1 SSTORE POP PUSH32 0x702D5967F45F6513A38FFC42D6BA9BF230BD40E8F53B16363C7EB4FD2DEB9A44 DUP2 PUSH1 0x40 MLOAD DUP1 DUP3 DUP2 MSTORE PUSH1 0x20 ADD SWAP2 POP POP PUSH1 0x40 MLOAD DUP1 SWAP2 SUB SWAP1 LOG1 PUSH1 0x0 PUSH20 0xFFFFFFFFFFFFFFFFFFFFFFFFFFFFFFFFFFFFFFFF AND PUSH1 0x2 PUSH1 0x0 SWAP1 SLOAD SWAP1 PUSH2 0x100 EXP SWAP1 DIV PUSH20 0xFFFFFFFFFFFFFFFFFFFFFFFFFFFFFFFFFFFFFFFF AND PUSH20 0xFFFFFFFFFFFFFFFFFFFFFFFFFFFFFFFFFFFFFFFF AND PUSH32 0xDDF252AD1BE2C89B69C2B068FC378DAA952BA7F163C4A11628F55A4DF523B3EF DUP4 PUSH1 0x40 MLOAD DUP1 DUP3 DUP2 MSTORE PUSH1 0x20 ADD SWAP2 POP POP PUSH1 0x40 MLOAD DUP1 SWAP2 SUB SWAP1 LOG3 POP JUMP JUMPDEST PUSH1 0x0 PUSH1 0xA PUSH1 0x14 SWAP1 SLOAD SWAP1 PUSH2 0x100 EXP SWAP1 DIV PUSH1 0xFF AND ISZERO PUSH2 0x20C3 JUMPI PUSH1 0xA PUSH1 0x0 SWAP1 SLOAD SWAP1 PUSH2 0x100 EXP SWAP1 DIV PUSH20 0xFFFFFFFFFFFFFFFFFFFFFFFFFFFFFFFFFFFFFFFF AND PUSH20 0xFFFFFFFFFFFFFFFFFFFFFFFFFFFFFFFFFFFFFFFF AND PUSH4 0xDD62ED3E DUP5 DUP5 PUSH1 0x0 PUSH1 0x40 MLOAD PUSH1 0x20 ADD MSTORE PUSH1 0x40 MLOAD DUP4 PUSH4 0xFFFFFFFF AND PUSH29 0x100000000000000000000000000000000000000000000000000000000 MUL DUP2 MSTORE PUSH1 0x4 ADD DUP1 DUP4 PUSH20 0xFFFFFFFFFFFFFFFFFFFFFFFFFFFFFFFFFFFFFFFF AND PUSH20 0xFFFFFFFFFFFFFFFFFFFFFFFFFFFFFFFFFFFFFFFF AND DUP2 MSTORE PUSH1 0x20 ADD DUP3 PUSH20 0xFFFFFFFFFFFFFFFFFFFFFFFFFFFFFFFFFFFFFFFF AND PUSH20 0xFFFFFFFFFFFFFFFFFFFFFFFFFFFFFFFFFFFFFFFF AND DUP2 MSTORE PUSH1 0x20 ADD SWAP3 POP POP POP PUSH1 0x20 PUSH1 0x40 MLOAD DUP1 DUP4 SUB DUP2 PUSH1 0x0 DUP8 DUP1 EXTCODESIZE ISZERO ISZERO PUSH2 0x20A1 JUMPI PUSH1 0x0 DUP1 REVERT JUMPDEST PUSH2 0x2C6 GAS SUB CALL ISZERO ISZERO PUSH2 0x20B2 JUMPI PUSH1 0x0 DUP1 REVERT JUMPDEST POP POP POP PUSH1 0x40 MLOAD DUP1 MLOAD SWAP1 POP SWAP1 POP PUSH2 0x20D0 JUMP JUMPDEST PUSH2 0x20CD DUP4 DUP4 PUSH2 0x3193 JUMP JUMPDEST SWAP1 POP JUMPDEST SWAP3 SWAP2 POP POP JUMP JUMPDEST PUSH1 0x3 SLOAD DUP2 JUMP JUMPDEST PUSH1 0x9 PUSH1 0x20 MSTORE DUP1 PUSH1 0x0 MSTORE PUSH1 0x40 PUSH1 0x0 KECCAK256 PUSH1 0x0 SWAP2 POP SLOAD SWAP1 PUSH2 0x100 EXP SWAP1 DIV PUSH1 0xFF AND DUP2 JUMP JUMPDEST PUSH1 0x2 PUSH1 0x0 SWAP1 SLOAD SWAP1 PUSH2 0x100 EXP SWAP1 DIV PUSH20 0xFFFFFFFFFFFFFFFFFFFFFFFFFFFFFFFFFFFFFFFF AND PUSH20 0xFFFFFFFFFFFFFFFFFFFFFFFFFFFFFFFFFFFFFFFF AND CALLER PUSH20 0xFFFFFFFFFFFFFFFFFFFFFFFFFFFFFFFFFFFFFFFF AND EQ ISZERO ISZERO PUSH2 0x2158 JUMPI PUSH1 0x0 DUP1 REVERT JUMPDEST PUSH1 0x0 PUSH1 0x9 PUSH1 0x0 DUP4 PUSH20 0xFFFFFFFFFFFFFFFFFFFFFFFFFFFFFFFFFFFFFFFF AND PUSH20 0xFFFFFFFFFFFFFFFFFFFFFFFFFFFFFFFFFFFFFFFF AND DUP2 MSTORE PUSH1 0x20 ADD SWAP1 DUP2 MSTORE PUSH1 0x20 ADD PUSH1 0x0 KECCAK256 PUSH1 0x0 PUSH2 0x100 EXP DUP2 SLOAD DUP2 PUSH1 0xFF MUL NOT AND SWAP1 DUP4 ISZERO ISZERO MUL OR SWAP1 SSTORE POP DUP1 PUSH20 0xFFFFFFFFFFFFFFFFFFFFFFFFFFFFFFFFFFFFFFFF AND PUSH32 0xD7E9EC6E6ECD65492DCE6BF513CD6867560D49544421D0783DDF06E76C24470C PUSH1 0x40 MLOAD PUSH1 0x40 MLOAD DUP1 SWAP2 SUB SWAP1 LOG2 POP JUMP JUMPDEST PUSH32 0xFFFFFFFFFFFFFFFFFFFFFFFFFFFFFFFFFFFFFFFFFFFFFFFFFFFFFFFFFFFFFFFF DUP2 JUMP JUMPDEST PUSH1 0x2 PUSH1 0x0 SWAP1 SLOAD SWAP1 PUSH2 0x100 EXP SWAP1 DIV PUSH20 0xFFFFFFFFFFFFFFFFFFFFFFFFFFFFFFFFFFFFFFFF AND PUSH20 0xFFFFFFFFFFFFFFFFFFFFFFFFFFFFFFFFFFFFFFFF AND CALLER PUSH20 0xFFFFFFFFFFFFFFFFFFFFFFFFFFFFFFFFFFFFFFFF AND EQ ISZERO ISZERO PUSH2 0x2276 JUMPI PUSH1 0x0 DUP1 REVERT JUMPDEST PUSH1 0x0 PUSH20 0xFFFFFFFFFFFFFFFFFFFFFFFFFFFFFFFFFFFFFFFF AND DUP2 PUSH20 0xFFFFFFFFFFFFFFFFFFFFFFFFFFFFFFFFFFFFFFFF AND EQ ISZERO ISZERO ISZERO PUSH2 0x22B2 JUMPI PUSH1 0x0 DUP1 REVERT JUMPDEST DUP1 PUSH20 0xFFFFFFFFFFFFFFFFFFFFFFFFFFFFFFFFFFFFFFFF AND PUSH1 0x2 PUSH1 0x0 SWAP1 SLOAD SWAP1 PUSH2 0x100 EXP SWAP1 DIV PUSH20 0xFFFFFFFFFFFFFFFFFFFFFFFFFFFFFFFFFFFFFFFF AND PUSH20 0xFFFFFFFFFFFFFFFFFFFFFFFFFFFFFFFFFFFFFFFF AND PUSH32 0x8BE0079C531659141344CD1FD0A4F28419497F9722A3DAAFE3B4186F6B6457E0 PUSH1 0x40 MLOAD PUSH1 0x40 MLOAD DUP1 SWAP2 SUB SWAP1 LOG3 DUP1 PUSH1 0x2 PUSH1 0x0 PUSH2 0x100 EXP DUP2 SLOAD DUP2 PUSH20 0xFFFFFFFFFFFFFFFFFFFFFFFFFFFFFFFFFFFFFFFF MUL NOT AND SWAP1 DUP4 PUSH20 0xFFFFFFFFFFFFFFFFFFFFFFFFFFFFFFFFFFFFFFFF AND MUL OR SWAP1 SSTORE POP POP JUMP JUMPDEST PUSH1 0x0 PUSH1 0x2 PUSH1 0x0 SWAP1 SLOAD SWAP1 PUSH2 0x100 EXP SWAP1 DIV PUSH20 0xFFFFFFFFFFFFFFFFFFFFFFFFFFFFFFFFFFFFFFFF AND PUSH20 0xFFFFFFFFFFFFFFFFFFFFFFFFFFFFFFFFFFFFFFFF AND CALLER PUSH20 0xFFFFFFFFFFFFFFFFFFFFFFFFFFFFFFFFFFFFFFFF AND EQ ISZERO ISZERO PUSH2 0x23D0 JUMPI PUSH1 0x0 DUP1 REVERT JUMPDEST PUSH1 0x9 PUSH1 0x0 DUP4 PUSH20 0xFFFFFFFFFFFFFFFFFFFFFFFFFFFFFFFFFFFFFFFF AND PUSH20 0xFFFFFFFFFFFFFFFFFFFFFFFFFFFFFFFFFFFFFFFF AND DUP2 MSTORE PUSH1 0x20 ADD SWAP1 DUP2 MSTORE PUSH1 0x20 ADD PUSH1 0x0 KECCAK256 PUSH1 0x0 SWAP1 SLOAD SWAP1 PUSH2 0x100 EXP SWAP1 DIV PUSH1 0xFF AND ISZERO ISZERO PUSH2 0x2428 JUMPI PUSH1 0x0 DUP1 REVERT JUMPDEST PUSH2 0x2431 DUP3 PUSH2 0x1448 JUMP JUMPDEST SWAP1 POP PUSH1 0x0 DUP1 PUSH1 0x0 DUP5 PUSH20 0xFFFFFFFFFFFFFFFFFFFFFFFFFFFFFFFFFFFFFFFF AND PUSH20 0xFFFFFFFFFFFFFFFFFFFFFFFFFFFFFFFFFFFFFFFF AND DUP2 MSTORE PUSH1 0x20 ADD SWAP1 DUP2 MSTORE PUSH1 0x20 ADD PUSH1 0x0 KECCAK256 DUP2 SWAP1 SSTORE POP PUSH2 0x248C DUP2 PUSH1 0x8 SLOAD PUSH2 0x317A SWAP1 SWAP2 SWAP1 PUSH4 0xFFFFFFFF AND JUMP JUMPDEST PUSH1 0x8 DUP2 SWAP1 SSTORE POP DUP2 PUSH20 0xFFFFFFFFFFFFFFFFFFFFFFFFFFFFFFFFFFFFFFFF AND PUSH32 0x61E6E66B0D6339B2980AECC6CCC0039736791F0CCDE9ED512E789A7FBDD698C6 DUP3 PUSH1 0x40 MLOAD DUP1 DUP3 DUP2 MSTORE PUSH1 0x20 ADD SWAP2 POP POP PUSH1 0x40 MLOAD DUP1 SWAP2 SUB SWAP1 LOG2 POP POP JUMP JUMPDEST PUSH1 0x0 DUP2 PUSH1 0x1 PUSH1 0x0 CALLER PUSH20 0xFFFFFFFFFFFFFFFFFFFFFFFFFFFFFFFFFFFFFFFF AND PUSH20 0xFFFFFFFFFFFFFFFFFFFFFFFFFFFFFFFFFFFFFFFF AND DUP2 MSTORE PUSH1 0x20 ADD SWAP1 DUP2 MSTORE PUSH1 0x20 ADD PUSH1 0x0 KECCAK256 PUSH1 0x0 DUP6 PUSH20 0xFFFFFFFFFFFFFFFFFFFFFFFFFFFFFFFFFFFFFFFF AND PUSH20 0xFFFFFFFFFFFFFFFFFFFFFFFFFFFFFFFFFFFFFFFF AND DUP2 MSTORE PUSH1 0x20 ADD SWAP1 DUP2 MSTORE PUSH1 0x20 ADD PUSH1 0x0 KECCAK256 DUP2 SWAP1 SSTORE POP DUP3 PUSH20 0xFFFFFFFFFFFFFFFFFFFFFFFFFFFFFFFFFFFFFFFF AND CALLER PUSH20 0xFFFFFFFFFFFFFFFFFFFFFFFFFFFFFFFFFFFFFFFF AND PUSH32 0x8C5BE1E5EBEC7D5BD14F71427D1E84F3DD0314C0F7B2291E5B200AC8C7C3B925 DUP5 PUSH1 0x40 MLOAD DUP1 DUP3 DUP2 MSTORE PUSH1 0x20 ADD SWAP2 POP POP PUSH1 0x40 MLOAD DUP1 SWAP2 SUB SWAP1 LOG3 PUSH1 0x1 SWAP1 POP SWAP3 SWAP2 POP POP JUMP JUMPDEST PUSH1 0x0 DUP1 PUSH1 0x0 DUP1 PUSH20 0xFFFFFFFFFFFFFFFFFFFFFFFFFFFFFFFFFFFFFFFF AND DUP6 PUSH20 0xFFFFFFFFFFFFFFFFFFFFFFFFFFFFFFFFFFFFFFFF AND EQ ISZERO ISZERO ISZERO PUSH2 0x2616 JUMPI PUSH1 0x0 DUP1 REVERT JUMPDEST PUSH1 0x0 DUP1 DUP8 PUSH20 0xFFFFFFFFFFFFFFFFFFFFFFFFFFFFFFFFFFFFFFFF AND PUSH20 0xFFFFFFFFFFFFFFFFFFFFFFFFFFFFFFFFFFFFFFFF AND DUP2 MSTORE PUSH1 0x20 ADD SWAP1 DUP2 MSTORE PUSH1 0x20 ADD PUSH1 0x0 KECCAK256 SLOAD DUP5 GT ISZERO ISZERO ISZERO PUSH2 0x2663 JUMPI PUSH1 0x0 DUP1 REVERT JUMPDEST PUSH1 0x1 PUSH1 0x0 DUP8 PUSH20 0xFFFFFFFFFFFFFFFFFFFFFFFFFFFFFFFFFFFFFFFF AND PUSH20 0xFFFFFFFFFFFFFFFFFFFFFFFFFFFFFFFFFFFFFFFF AND DUP2 MSTORE PUSH1 0x20 ADD SWAP1 DUP2 MSTORE PUSH1 0x20 ADD PUSH1 0x0 KECCAK256 PUSH1 0x0 CALLER PUSH20 0xFFFFFFFFFFFFFFFFFFFFFFFFFFFFFFFFFFFFFFFF AND PUSH20 0xFFFFFFFFFFFFFFFFFFFFFFFFFFFFFFFFFFFFFFFF AND DUP2 MSTORE PUSH1 0x20 ADD SWAP1 DUP2 MSTORE PUSH1 0x20 ADD PUSH1 0x0 KECCAK256 SLOAD DUP5 GT ISZERO ISZERO ISZERO PUSH2 0x26EE JUMPI PUSH1 0x0 DUP1 REVERT JUMPDEST PUSH2 0x26F7 DUP5 PUSH2 0x1557 JUMP JUMPDEST SWAP2 POP PUSH2 0x270C DUP3 DUP6 PUSH2 0x317A SWAP1 SWAP2 SWAP1 PUSH4 0xFFFFFFFF AND JUMP JUMPDEST SWAP1 POP PUSH2 0x275F DUP5 PUSH1 0x0 DUP1 DUP10 PUSH20 0xFFFFFFFFFFFFFFFFFFFFFFFFFFFFFFFFFFFFFFFF AND PUSH20 0xFFFFFFFFFFFFFFFFFFFFFFFFFFFFFFFFFFFFFFFF AND DUP2 MSTORE PUSH1 0x20 ADD SWAP1 DUP2 MSTORE PUSH1 0x20 ADD PUSH1 0x0 KECCAK256 SLOAD PUSH2 0x317A SWAP1 SWAP2 SWAP1 PUSH4 0xFFFFFFFF AND JUMP JUMPDEST PUSH1 0x0 DUP1 DUP9 PUSH20 0xFFFFFFFFFFFFFFFFFFFFFFFFFFFFFFFFFFFFFFFF AND PUSH20 0xFFFFFFFFFFFFFFFFFFFFFFFFFFFFFFFFFFFFFFFF AND DUP2 MSTORE PUSH1 0x20 ADD SWAP1 DUP2 MSTORE PUSH1 0x20 ADD PUSH1 0x0 KECCAK256 DUP2 SWAP1 SSTORE POP PUSH2 0x27F2 DUP2 PUSH1 0x0 DUP1 DUP9 PUSH20 0xFFFFFFFFFFFFFFFFFFFFFFFFFFFFFFFFFFFFFFFF AND PUSH20 0xFFFFFFFFFFFFFFFFFFFFFFFFFFFFFFFFFFFFFFFF AND DUP2 MSTORE PUSH1 0x20 ADD SWAP1 DUP2 MSTORE PUSH1 0x20 ADD PUSH1 0x0 KECCAK256 SLOAD PUSH2 0x2F60 SWAP1 SWAP2 SWAP1 PUSH4 0xFFFFFFFF AND JUMP JUMPDEST PUSH1 0x0 DUP1 DUP8 PUSH20 0xFFFFFFFFFFFFFFFFFFFFFFFFFFFFFFFFFFFFFFFF AND PUSH20 0xFFFFFFFFFFFFFFFFFFFFFFFFFFFFFFFFFFFFFFFF AND DUP2 MSTORE PUSH1 0x20 ADD SWAP1 DUP2 MSTORE PUSH1 0x20 ADD PUSH1 0x0 KECCAK256 DUP2 SWAP1 SSTORE POP PUSH32 0xFFFFFFFFFFFFFFFFFFFFFFFFFFFFFFFFFFFFFFFFFFFFFFFFFFFFFFFFFFFFFFFF PUSH1 0x1 PUSH1 0x0 DUP9 PUSH20 0xFFFFFFFFFFFFFFFFFFFFFFFFFFFFFFFFFFFFFFFF AND PUSH20 0xFFFFFFFFFFFFFFFFFFFFFFFFFFFFFFFFFFFFFFFF AND DUP2 MSTORE PUSH1 0x20 ADD SWAP1 DUP2 MSTORE PUSH1 0x20 ADD PUSH1 0x0 KECCAK256 PUSH1 0x0 CALLER PUSH20 0xFFFFFFFFFFFFFFFFFFFFFFFFFFFFFFFFFFFFFFFF AND PUSH20 0xFFFFFFFFFFFFFFFFFFFFFFFFFFFFFFFFFFFFFFFF AND DUP2 MSTORE PUSH1 0x20 ADD SWAP1 DUP2 MSTORE PUSH1 0x20 ADD PUSH1 0x0 KECCAK256 SLOAD LT ISZERO PUSH2 0x29E8 JUMPI PUSH2 0x2967 DUP5 PUSH1 0x1 PUSH1 0x0 DUP10 PUSH20 0xFFFFFFFFFFFFFFFFFFFFFFFFFFFFFFFFFFFFFFFF AND PUSH20 0xFFFFFFFFFFFFFFFFFFFFFFFFFFFFFFFFFFFFFFFF AND DUP2 MSTORE PUSH1 0x20 ADD SWAP1 DUP2 MSTORE PUSH1 0x20 ADD PUSH1 0x0 KECCAK256 PUSH1 0x0 CALLER PUSH20 0xFFFFFFFFFFFFFFFFFFFFFFFFFFFFFFFFFFFFFFFF AND PUSH20 0xFFFFFFFFFFFFFFFFFFFFFFFFFFFFFFFFFFFFFFFF AND DUP2 MSTORE PUSH1 0x20 ADD SWAP1 DUP2 MSTORE PUSH1 0x20 ADD PUSH1 0x0 KECCAK256 SLOAD PUSH2 0x317A SWAP1 SWAP2 SWAP1 PUSH4 0xFFFFFFFF AND JUMP JUMPDEST PUSH1 0x1 PUSH1 0x0 DUP9 PUSH20 0xFFFFFFFFFFFFFFFFFFFFFFFFFFFFFFFFFFFFFFFF AND PUSH20 0xFFFFFFFFFFFFFFFFFFFFFFFFFFFFFFFFFFFFFFFF AND DUP2 MSTORE PUSH1 0x20 ADD SWAP1 DUP2 MSTORE PUSH1 0x20 ADD PUSH1 0x0 KECCAK256 PUSH1 0x0 CALLER PUSH20 0xFFFFFFFFFFFFFFFFFFFFFFFFFFFFFFFFFFFFFFFF AND PUSH20 0xFFFFFFFFFFFFFFFFFFFFFFFFFFFFFFFFFFFFFFFF AND DUP2 MSTORE PUSH1 0x20 ADD SWAP1 DUP2 MSTORE PUSH1 0x20 ADD PUSH1 0x0 KECCAK256 DUP2 SWAP1 SSTORE POP JUMPDEST DUP5 PUSH20 0xFFFFFFFFFFFFFFFFFFFFFFFFFFFFFFFFFFFFFFFF AND DUP7 PUSH20 0xFFFFFFFFFFFFFFFFFFFFFFFFFFFFFFFFFFFFFFFF AND PUSH32 0xDDF252AD1BE2C89B69C2B068FC378DAA952BA7F163C4A11628F55A4DF523B3EF DUP4 PUSH1 0x40 MLOAD DUP1 DUP3 DUP2 MSTORE PUSH1 0x20 ADD SWAP2 POP POP PUSH1 0x40 MLOAD DUP1 SWAP2 SUB SWAP1 LOG3 PUSH1 0x0 DUP3 GT ISZERO PUSH2 0x2BB5 JUMPI PUSH2 0x2AC9 DUP3 PUSH1 0x0 DUP1 PUSH1 0x2 PUSH1 0x0 SWAP1 SLOAD SWAP1 PUSH2 0x100 EXP SWAP1 DIV PUSH20 0xFFFFFFFFFFFFFFFFFFFFFFFFFFFFFFFFFFFFFFFF AND PUSH20 0xFFFFFFFFFFFFFFFFFFFFFFFFFFFFFFFFFFFFFFFF AND PUSH20 0xFFFFFFFFFFFFFFFFFFFFFFFFFFFFFFFFFFFFFFFF AND DUP2 MSTORE PUSH1 0x20 ADD SWAP1 DUP2 MSTORE PUSH1 0x20 ADD PUSH1 0x0 KECCAK256 SLOAD PUSH2 0x2F60 SWAP1 SWAP2 SWAP1 PUSH4 0xFFFFFFFF AND JUMP JUMPDEST PUSH1 0x0 DUP1 PUSH1 0x2 PUSH1 0x0 SWAP1 SLOAD SWAP1 PUSH2 0x100 EXP SWAP1 DIV PUSH20 0xFFFFFFFFFFFFFFFFFFFFFFFFFFFFFFFFFFFFFFFF AND PUSH20 0xFFFFFFFFFFFFFFFFFFFFFFFFFFFFFFFFFFFFFFFF AND PUSH20 0xFFFFFFFFFFFFFFFFFFFFFFFFFFFFFFFFFFFFFFFF AND DUP2 MSTORE PUSH1 0x20 ADD SWAP1 DUP2 MSTORE PUSH1 0x20 ADD PUSH1 0x0 KECCAK256 DUP2 SWAP1 SSTORE POP PUSH1 0x2 PUSH1 0x0 SWAP1 SLOAD SWAP1 PUSH2 0x100 EXP SWAP1 DIV PUSH20 0xFFFFFFFFFFFFFFFFFFFFFFFFFFFFFFFFFFFFFFFF AND PUSH20 0xFFFFFFFFFFFFFFFFFFFFFFFFFFFFFFFFFFFFFFFF AND DUP7 PUSH20 0xFFFFFFFFFFFFFFFFFFFFFFFFFFFFFFFFFFFFFFFF AND PUSH32 0xDDF252AD1BE2C89B69C2B068FC378DAA952BA7F163C4A11628F55A4DF523B3EF DUP5 PUSH1 0x40 MLOAD DUP1 DUP3 DUP2 MSTORE PUSH1 0x20 ADD SWAP2 POP POP PUSH1 0x40 MLOAD DUP1 SWAP2 SUB SWAP1 LOG3 JUMPDEST PUSH1 0x1 SWAP3 POP POP POP SWAP4 SWAP3 POP POP POP JUMP JUMPDEST PUSH1 0x0 DUP1 PUSH1 0x1 PUSH1 0x0 CALLER PUSH20 0xFFFFFFFFFFFFFFFFFFFFFFFFFFFFFFFFFFFFFFFF AND PUSH20 0xFFFFFFFFFFFFFFFFFFFFFFFFFFFFFFFFFFFFFFFF AND DUP2 MSTORE PUSH1 0x20 ADD SWAP1 DUP2 MSTORE PUSH1 0x20 ADD PUSH1 0x0 KECCAK256 PUSH1 0x0 DUP6 PUSH20 0xFFFFFFFFFFFFFFFFFFFFFFFFFFFFFFFFFFFFFFFF AND PUSH20 0xFFFFFFFFFFFFFFFFFFFFFFFFFFFFFFFFFFFFFFFF AND DUP2 MSTORE PUSH1 0x20 ADD SWAP1 DUP2 MSTORE PUSH1 0x20 ADD PUSH1 0x0 KECCAK256 SLOAD SWAP1 POP DUP1 DUP4 GT ISZERO PUSH2 0x2CD3 JUMPI PUSH1 0x0 PUSH1 0x1 PUSH1 0x0 CALLER PUSH20 0xFFFFFFFFFFFFFFFFFFFFFFFFFFFFFFFFFFFFFFFF AND PUSH20 0xFFFFFFFFFFFFFFFFFFFFFFFFFFFFFFFFFFFFFFFF AND DUP2 MSTORE PUSH1 0x20 ADD SWAP1 DUP2 MSTORE PUSH1 0x20 ADD PUSH1 0x0 KECCAK256 PUSH1 0x0 DUP7 PUSH20 0xFFFFFFFFFFFFFFFFFFFFFFFFFFFFFFFFFFFFFFFF AND PUSH20 0xFFFFFFFFFFFFFFFFFFFFFFFFFFFFFFFFFFFFFFFF AND DUP2 MSTORE PUSH1 0x20 ADD SWAP1 DUP2 MSTORE PUSH1 0x20 ADD PUSH1 0x0 KECCAK256 DUP2 SWAP1 SSTORE POP PUSH2 0x2D67 JUMP JUMPDEST PUSH2 0x2CE6 DUP4 DUP3 PUSH2 0x317A SWAP1 SWAP2 SWAP1 PUSH4 0xFFFFFFFF AND JUMP JUMPDEST PUSH1 0x1 PUSH1 0x0 CALLER PUSH20 0xFFFFFFFFFFFFFFFFFFFFFFFFFFFFFFFFFFFFFFFF AND PUSH20 0xFFFFFFFFFFFFFFFFFFFFFFFFFFFFFFFFFFFFFFFF AND DUP2 MSTORE PUSH1 0x20 ADD SWAP1 DUP2 MSTORE PUSH1 0x20 ADD PUSH1 0x0 KECCAK256 PUSH1 0x0 DUP7 PUSH20 0xFFFFFFFFFFFFFFFFFFFFFFFFFFFFFFFFFFFFFFFF AND PUSH20 0xFFFFFFFFFFFFFFFFFFFFFFFFFFFFFFFFFFFFFFFF AND DUP2 MSTORE PUSH1 0x20 ADD SWAP1 DUP2 MSTORE PUSH1 0x20 ADD PUSH1 0x0 KECCAK256 DUP2 SWAP1 SSTORE POP JUMPDEST DUP4 PUSH20 0xFFFFFFFFFFFFFFFFFFFFFFFFFFFFFFFFFFFFFFFF AND CALLER PUSH20 0xFFFFFFFFFFFFFFFFFFFFFFFFFFFFFFFFFFFFFFFF AND PUSH32 0x8C5BE1E5EBEC7D5BD14F71427D1E84F3DD0314C0F7B2291E5B200AC8C7C3B925 PUSH1 0x1 PUSH1 0x0 CALLER PUSH20 0xFFFFFFFFFFFFFFFFFFFFFFFFFFFFFFFFFFFFFFFF AND PUSH20 0xFFFFFFFFFFFFFFFFFFFFFFFFFFFFFFFFFFFFFFFF AND DUP2 MSTORE PUSH1 0x20 ADD SWAP1 DUP2 MSTORE PUSH1 0x20 ADD PUSH1 0x0 KECCAK256 PUSH1 0x0 DUP9 PUSH20 0xFFFFFFFFFFFFFFFFFFFFFFFFFFFFFFFFFFFFFFFF AND PUSH20 0xFFFFFFFFFFFFFFFFFFFFFFFFFFFFFFFFFFFFFFFF AND DUP2 MSTORE PUSH1 0x20 ADD SWAP1 DUP2 MSTORE PUSH1 0x20 ADD PUSH1 0x0 KECCAK256 SLOAD PUSH1 0x40 MLOAD DUP1 DUP3 DUP2 MSTORE PUSH1 0x20 ADD SWAP2 POP POP PUSH1 0x40 MLOAD DUP1 SWAP2 SUB SWAP1 LOG3 PUSH1 0x1 SWAP2 POP POP SWAP3 SWAP2 POP POP JUMP JUMPDEST PUSH1 0x0 DUP1 PUSH1 0x0 DUP4 PUSH20 0xFFFFFFFFFFFFFFFFFFFFFFFFFFFFFFFFFFFFFFFF AND PUSH20 0xFFFFFFFFFFFFFFFFFFFFFFFFFFFFFFFFFFFFFFFF AND DUP2 MSTORE PUSH1 0x20 ADD SWAP1 DUP2 MSTORE PUSH1 0x20 ADD PUSH1 0x0 KECCAK256 SLOAD SWAP1 POP SWAP2 SWAP1 POP JUMP JUMPDEST PUSH1 0x0 DUP1 PUSH1 0x0 DUP5 EQ ISZERO PUSH2 0x2EB0 JUMPI PUSH1 0x0 SWAP2 POP PUSH2 0x2ECF JUMP JUMPDEST DUP3 DUP5 MUL SWAP1 POP DUP3 DUP5 DUP3 DUP2 ISZERO ISZERO PUSH2 0x2EC1 JUMPI INVALID JUMPDEST DIV EQ ISZERO ISZERO PUSH2 0x2ECB JUMPI INVALID JUMPDEST DUP1 SWAP2 POP JUMPDEST POP SWAP3 SWAP2 POP POP JUMP JUMPDEST PUSH1 0x0 DUP1 DUP3 DUP5 DUP2 ISZERO ISZERO PUSH2 0x2EE4 JUMPI INVALID JUMPDEST DIV SWAP1 POP DUP1 SWAP2 POP POP SWAP3 SWAP2 POP POP JUMP JUMPDEST PUSH1 0x0 DUP1 PUSH1 0x0 PUSH2 0x2EFF DUP5 PUSH2 0x1557 JUMP JUMPDEST SWAP2 POP PUSH2 0x2F14 DUP3 DUP6 PUSH2 0x317A SWAP1 SWAP2 SWAP1 PUSH4 0xFFFFFFFF AND JUMP JUMPDEST SWAP1 POP PUSH2 0x2F20 DUP6 DUP3 PUSH2 0x321A JUMP JUMPDEST POP PUSH1 0x0 DUP3 GT ISZERO PUSH2 0x2F58 JUMPI PUSH2 0x2F56 PUSH1 0x2 PUSH1 0x0 SWAP1 SLOAD SWAP1 PUSH2 0x100 EXP SWAP1 DIV PUSH20 0xFFFFFFFFFFFFFFFFFFFFFFFFFFFFFFFFFFFFFFFF AND DUP4 PUSH2 0x321A JUMP JUMPDEST POP JUMPDEST POP POP SWAP3 SWAP2 POP POP JUMP JUMPDEST PUSH1 0x0 DUP1 DUP3 DUP5 ADD SWAP1 POP DUP4 DUP2 LT ISZERO ISZERO ISZERO PUSH2 0x2F74 JUMPI INVALID JUMPDEST DUP1 SWAP2 POP POP SWAP3 SWAP2 POP POP JUMP JUMPDEST PUSH1 0x0 PUSH2 0x300F DUP3 PUSH1 0x1 PUSH1 0x0 CALLER PUSH20 0xFFFFFFFFFFFFFFFFFFFFFFFFFFFFFFFFFFFFFFFF AND PUSH20 0xFFFFFFFFFFFFFFFFFFFFFFFFFFFFFFFFFFFFFFFF AND DUP2 MSTORE PUSH1 0x20 ADD SWAP1 DUP2 MSTORE PUSH1 0x20 ADD PUSH1 0x0 KECCAK256 PUSH1 0x0 DUP7 PUSH20 0xFFFFFFFFFFFFFFFFFFFFFFFFFFFFFFFFFFFFFFFF AND PUSH20 0xFFFFFFFFFFFFFFFFFFFFFFFFFFFFFFFFFFFFFFFF AND DUP2 MSTORE PUSH1 0x20 ADD SWAP1 DUP2 MSTORE PUSH1 0x20 ADD PUSH1 0x0 KECCAK256 SLOAD PUSH2 0x2F60 SWAP1 SWAP2 SWAP1 PUSH4 0xFFFFFFFF AND JUMP JUMPDEST PUSH1 0x1 PUSH1 0x0 CALLER PUSH20 0xFFFFFFFFFFFFFFFFFFFFFFFFFFFFFFFFFFFFFFFF AND PUSH20 0xFFFFFFFFFFFFFFFFFFFFFFFFFFFFFFFFFFFFFFFF AND DUP2 MSTORE PUSH1 0x20 ADD SWAP1 DUP2 MSTORE PUSH1 0x20 ADD PUSH1 0x0 KECCAK256 PUSH1 0x0 DUP6 PUSH20 0xFFFFFFFFFFFFFFFFFFFFFFFFFFFFFFFFFFFFFFFF AND PUSH20 0xFFFFFFFFFFFFFFFFFFFFFFFFFFFFFFFFFFFFFFFF AND DUP2 MSTORE PUSH1 0x20 ADD SWAP1 DUP2 MSTORE PUSH1 0x20 ADD PUSH1 0x0 KECCAK256 DUP2 SWAP1 SSTORE POP DUP3 PUSH20 0xFFFFFFFFFFFFFFFFFFFFFFFFFFFFFFFFFFFFFFFF AND CALLER PUSH20 0xFFFFFFFFFFFFFFFFFFFFFFFFFFFFFFFFFFFFFFFF AND PUSH32 0x8C5BE1E5EBEC7D5BD14F71427D1E84F3DD0314C0F7B2291E5B200AC8C7C3B925 PUSH1 0x1 PUSH1 0x0 CALLER PUSH20 0xFFFFFFFFFFFFFFFFFFFFFFFFFFFFFFFFFFFFFFFF AND PUSH20 0xFFFFFFFFFFFFFFFFFFFFFFFFFFFFFFFFFFFFFFFF AND DUP2 MSTORE PUSH1 0x20 ADD SWAP1 DUP2 MSTORE PUSH1 0x20 ADD PUSH1 0x0 KECCAK256 PUSH1 0x0 DUP8 PUSH20 0xFFFFFFFFFFFFFFFFFFFFFFFFFFFFFFFFFFFFFFFF AND PUSH20 0xFFFFFFFFFFFFFFFFFFFFFFFFFFFFFFFFFFFFFFFF AND DUP2 MSTORE PUSH1 0x20 ADD SWAP1 DUP2 MSTORE PUSH1 0x20 ADD PUSH1 0x0 KECCAK256 SLOAD PUSH1 0x40 MLOAD DUP1 DUP3 DUP2 MSTORE PUSH1 0x20 ADD SWAP2 POP POP PUSH1 0x40 MLOAD DUP1 SWAP2 SUB SWAP1 LOG3 PUSH1 0x1 SWAP1 POP SWAP3 SWAP2 POP POP JUMP JUMPDEST PUSH1 0x0 DUP3 DUP3 GT ISZERO ISZERO ISZERO PUSH2 0x3188 JUMPI INVALID JUMPDEST DUP2 DUP4 SUB SWAP1 POP SWAP3 SWAP2 POP POP JUMP JUMPDEST PUSH1 0x0 PUSH1 0x1 PUSH1 0x0 DUP5 PUSH20 0xFFFFFFFFFFFFFFFFFFFFFFFFFFFFFFFFFFFFFFFF AND PUSH20 0xFFFFFFFFFFFFFFFFFFFFFFFFFFFFFFFFFFFFFFFF AND DUP2 MSTORE PUSH1 0x20 ADD SWAP1 DUP2 MSTORE PUSH1 0x20 ADD PUSH1 0x0 KECCAK256 PUSH1 0x0 DUP4 PUSH20 0xFFFFFFFFFFFFFFFFFFFFFFFFFFFFFFFFFFFFFFFF AND PUSH20 0xFFFFFFFFFFFFFFFFFFFFFFFFFFFFFFFFFFFFFFFF AND DUP2 MSTORE PUSH1 0x20 ADD SWAP1 DUP2 MSTORE PUSH1 0x20 ADD PUSH1 0x0 KECCAK256 SLOAD SWAP1 POP SWAP3 SWAP2 POP POP JUMP JUMPDEST PUSH1 0x0 DUP1 PUSH20 0xFFFFFFFFFFFFFFFFFFFFFFFFFFFFFFFFFFFFFFFF AND DUP4 PUSH20 0xFFFFFFFFFFFFFFFFFFFFFFFFFFFFFFFFFFFFFFFF AND EQ ISZERO ISZERO ISZERO PUSH2 0x3257 JUMPI PUSH1 0x0 DUP1 REVERT JUMPDEST PUSH1 0x0 DUP1 CALLER PUSH20 0xFFFFFFFFFFFFFFFFFFFFFFFFFFFFFFFFFFFFFFFF AND PUSH20 0xFFFFFFFFFFFFFFFFFFFFFFFFFFFFFFFFFFFFFFFF AND DUP2 MSTORE PUSH1 0x20 ADD SWAP1 DUP2 MSTORE PUSH1 0x20 ADD PUSH1 0x0 KECCAK256 SLOAD DUP3 GT ISZERO ISZERO ISZERO PUSH2 0x32A4 JUMPI PUSH1 0x0 DUP1 REVERT JUMPDEST PUSH2 0x32F5 DUP3 PUSH1 0x0 DUP1 CALLER PUSH20 0xFFFFFFFFFFFFFFFFFFFFFFFFFFFFFFFFFFFFFFFF AND PUSH20 0xFFFFFFFFFFFFFFFFFFFFFFFFFFFFFFFFFFFFFFFF AND DUP2 MSTORE PUSH1 0x20 ADD SWAP1 DUP2 MSTORE PUSH1 0x20 ADD PUSH1 0x0 KECCAK256 SLOAD PUSH2 0x317A SWAP1 SWAP2 SWAP1 PUSH4 0xFFFFFFFF AND JUMP JUMPDEST PUSH1 0x0 DUP1 CALLER PUSH20 0xFFFFFFFFFFFFFFFFFFFFFFFFFFFFFFFFFFFFFFFF AND PUSH20 0xFFFFFFFFFFFFFFFFFFFFFFFFFFFFFFFFFFFFFFFF AND DUP2 MSTORE PUSH1 0x20 ADD SWAP1 DUP2 MSTORE PUSH1 0x20 ADD PUSH1 0x0 KECCAK256 DUP2 SWAP1 SSTORE POP PUSH2 0x3388 DUP3 PUSH1 0x0 DUP1 DUP7 PUSH20 0xFFFFFFFFFFFFFFFFFFFFFFFFFFFFFFFFFFFFFFFF AND PUSH20 0xFFFFFFFFFFFFFFFFFFFFFFFFFFFFFFFFFFFFFFFF AND DUP2 MSTORE PUSH1 0x20 ADD SWAP1 DUP2 MSTORE PUSH1 0x20 ADD PUSH1 0x0 KECCAK256 SLOAD PUSH2 0x2F60 SWAP1 SWAP2 SWAP1 PUSH4 0xFFFFFFFF AND JUMP JUMPDEST PUSH1 0x0 DUP1 DUP6 PUSH20 0xFFFFFFFFFFFFFFFFFFFFFFFFFFFFFFFFFFFFFFFF AND PUSH20 0xFFFFFFFFFFFFFFFFFFFFFFFFFFFFFFFFFFFFFFFF AND DUP2 MSTORE PUSH1 0x20 ADD SWAP1 DUP2 MSTORE PUSH1 0x20 ADD PUSH1 0x0 KECCAK256 DUP2 SWAP1 SSTORE POP DUP3 PUSH20 0xFFFFFFFFFFFFFFFFFFFFFFFFFFFFFFFFFFFFFFFF AND CALLER PUSH20 0xFFFFFFFFFFFFFFFFFFFFFFFFFFFFFFFFFFFFFFFF AND PUSH32 0xDDF252AD1BE2C89B69C2B068FC378DAA952BA7F163C4A11628F55A4DF523B3EF DUP5 PUSH1 0x40 MLOAD DUP1 DUP3 DUP2 MSTORE PUSH1 0x20 ADD SWAP2 POP POP PUSH1 0x40 MLOAD DUP1 SWAP2 SUB SWAP1 LOG3 PUSH1 0x1 SWAP1 POP SWAP3 SWAP2 POP POP JUMP STOP LOG1 PUSH6 0x627A7A723058 KECCAK256 PUSH3 0xB42137 PUSH27 0x5C8851CF0BE3A42DD716D1F526BC4937C022462A0C1EAE2DBED1B3 STOP 0x29 "},"gasEstimates":{"creation":{"codeDepositCost":"2682600","executionCost":"infinite","totalCost":"infinite"},"external":{"MAX_UINT()":"846","_totalSupply()":"606","addBlackList(address)":"22052","allowance(address,address)":"infinite","approve(address,uint256)":"infinite","balanceOf(address)":"infinite","basisPointsRate()":"980","calcFee(uint256)":"infinite","decimals()":"610","decreaseApproval(address,uint256)":"infinite","deprecate(address)":"42172","deprecated()":"550","destroyBlackFunds(address)":"infinite","getBlackListStatus(address)":"841","increaseApproval(address,uint256)":"infinite","isBlackListed(address)":"1155","issue(uint256)":"infinite","maximumFee()":"584","name()":"infinite","oldBalanceOf(address)":"1351","owner()":"830","pause()":"22184","paused()":"770","redeem(uint256)":"infinite","removeBlackList(address)":"22602","setParams(uint256,uint256)":"infinite","symbol()":"infinite","totalSupply()":"infinite","transfer(address,uint256)":"infinite","transferFrom(address,address,uint256)":"infinite","transferOwnership(address)":"23220","unpause()":"22049","upgradedAddress()":"588"}},"methodIdentifiers":{"MAX_UINT()":"e5b5019a","_totalSupply()":"3eaaf86b","addBlackList(address)":"0ecb93c0","allowance(address,address)":"dd62ed3e","approve(address,uint256)":"095ea7b3","balanceOf(address)":"70a08231","basisPointsRate()":"dd644f72","calcFee(uint256)":"75dc7d8c","decimals()":"313ce567","decreaseApproval(address,uint256)":"66188463","deprecate(address)":"0753c30c","deprecated()":"0e136b19","destroyBlackFunds(address)":"f3bdc228","getBlackListStatus(address)":"59bf1abe","increaseApproval(address,uint256)":"d73dd623","isBlackListed(address)":"e47d6060","issue(uint256)":"cc872b66","maximumFee()":"35390714","name()":"06fdde03","oldBalanceOf(address)":"b7a3446c","owner()":"8da5cb5b","pause()":"8456cb59","paused()":"5c975abb","redeem(uint256)":"db006a75","removeBlackList(address)":"e4997dc5","setParams(uint256,uint256)":"c0324c77","symbol()":"95d89b41","totalSupply()":"18160ddd","transfer(address,uint256)":"a9059cbb","transferFrom(address,address,uint256)":"23b872dd","transferOwnership(address)":"f2fde38b","unpause()":"3f4ba83a","upgradedAddress()":"26976e3f"}},"userdoc":{"methods":{"getBlackListStatus(address)":{"notice":"//// Getter to allow the same blacklist to be used also by other contracts (including upgraded Tether) ///////"}}}}}}